:020000040800F2
:10000000480B0020FD020008F9180008FB18000842
:10001000FD180008FF180008011900080000000082
:1000200000000000000000000000000003190008AC
:10003000051900080000000007190008231900082E
:100040001703000817030008170300081703000828
:10005000170300081703000817030008DD1600083F
:1000600017030008FF16000817030008170300080D
:1000700017030008170300081703000817030008F8
:1000800017030008170300081703000817030008E8
:100090001703000817030008170300081D170008BE
:1000A00017030008170300081703000817030008C8
:1000B0001703000869160008051600081703000852
:1000C00017030008170300081703000817030008A8
:1000D0001703000817030008170300081703000898
:1000E00017030008170300081703000800F002F8C0
:1000F00000F04DF80AA090E8000C82448344AAF175
:100100000107DA4501D100F042F8AFF2090EBAE872
:100110000F0013F0010F18BFFB1A43F0010318473B
:100120004460000064600000103A24BF78C878C1C1
:10013000FAD8520724BF30C830C144BF04680C60ED
:10014000704700000023002400250026103A28BF35
:1001500078C1FBD8520728BF30C148BF0B60704739
:10016000662905F02E87642903F0EC87782904F0CE
:100170002580002070471FB504F040FB04000020DC
:10018000002105F091F8E0601FBD10B510BD04F02E
:100190004DFC1146FFF7EFFF01F03EFB04F06BFC56
:1001A00003B4FFF7F2FF03BC00F08AFC0CB500219A
:1001B0004A4801910091026842F4803202604FF493
:1001C000A063026802F400320092019A521C01926C
:1001D000009A12B9019A9A42F3D10268920331D57A
:1001E000012100913E490A6842F010020A600A6843
:1001F00022F003020A600A6842F001020A604168C4
:1002000041604168416041684160416821F47C116E
:100210004160416841F4F8114160016841F080712A
:10022000016001688901FCD5416821F0030141604A
:10023000416841F0020141604168C1F38101022936
:10024000FAD10CBD00910CBD244810B5016841F0F5
:10025000010101604168234A114041600168224A5E
:1002600011400160016821F480210160416821F49E
:10027000FE0141604FF41F018160FFF797FF1B49AA
:100280004FF00060086010BD144910B54868184A66
:1002900010F00C03174803D0042B01D0082B0AD010
:1002A00002604968134AC1F30311121D515C0268D0
:1002B000CA40026010BD4A684B6802F470124FF0E9
:1002C000020413F4803F04EB924202D04B689B037C
:1002D00001D5094B00E0064B5A43E1E7001002400C
:1002E000002002400000FFF8FFFFF6FE08ED00E0EE
:1002F00000127A000000002000093D0009488047F4
:1003000009480047FEE7FEE7FEE7FEE7FEE7FEE7F7
:10031000FEE7FEE7FEE7FEE704480549054A064B0F
:100320007047000049020008ED0000084805002061
:10033000480B002048070020480700202DE9F8431B
:100340004FF48050ADF800000224DFF824948DF8BB
:10035000024010258DF803506946484601F033FCF1
:10036000F020ADF80000DFF80C848DF802408DF825
:1003700003506946404601F026FC0121FE4801F089
:10038000B1FC4FF4C060ADF8000003248DF80240CA
:1003900018268DF803606946484601F014FC0F20CA
:1003A000ADF8000000278DF803708DF80240694613
:1003B000484601F008FC0120ADF800008DF80370FC
:1003C0008DF802406946404601F0FDFB0A20ADF879
:1003D000000048278DF803708DF8024069464046BA
:1003E00001F0F1FB0121084601F0A5FC03210120E9
:1003F00001F0A1FC2801ADF800008DF803708DF824
:1004000002406946484601F0DEFB0821002001F069
:1004100092FCE020ADF800008DF802408DF80360FA
:100420006946484601F0CFFBE802ADF800008DF8C0
:1004300002408DF803506946484601F0C4FBADF810
:1004400000508DF802408DF803506946484601F08F
:10045000BAFB1021484601F024FC7902484601F01D
:1004600022FCF021404601F01EFCBDE8F88310B5E7
:10047000102003F045F8022003F032F8002001F0CC
:100480009AFC012001F0E2FC212001F0ACFC0128E3
:10049000FAD14FF46011002001F0DBFC012001F0E3
:1004A000E0FC392001F09FFC0128FAD1022001F084
:1004B000DBFC00BF01F0DFFC0828FBD1002001F0CD
:1004C000DFFC4FF4806001F0E2FC002001F0E6FC6C
:1004D0004FF4004001F0F7FCA849402008700121CA
:1004E000142001F051FD0121062001F05FFD0121E2
:1004F00045F20D2001F051FD01218C03204601F051
:100500005EFD0021204601F05AFD01214C022046EB
:1005100001F055FD2046BDE81040002101F04FBD1F
:1005200010B586B000214FF46020CDE902018DF8AE
:1005300004100120924C00918DF805108DF81000E8
:100540006946204602F050FE012002F095FF062386
:1005500001220021204602F0C7FE01220623114697
:10056000204602F0C1FE062301220221204602F0AD
:10057000BBFE062301220321204602F0B5FE06231E
:1005800001220821204602F0AFFE0723012210219C
:10059000204602F0A9FE0121204602F04DFE204631
:1005A00002F067FE204602F069FE0028FAD12046DC
:1005B00002F06BFE204602F06DFE0028FAD106B074
:1005C00010BDFEB56F4E304601F036FD6B4D42F268
:1005D0000F70ADF804002878002400EBC00101EB97
:1005E00000104FF0FF3101EB8000ADF80000ADF8D6
:1005F0000640ADF802406946304601F0B5FD0121E4
:10060000304602F081FA01221146304602F06AF8C3
:100610000121304602F051F85B4E304601F00CFDEE
:1006200040F2F310ADF804002978ADF80640491EF9
:10063000ADF80010ADF802406946304601F094FD77
:100640000121304602F060FA01221146304602F0E4
:1006500049F80121304602F030F8FEBD10B586B0F1
:100660000020ADF800004FF48271ADF80210ADF833
:1006700008004FF40071ADF80A101021ADF80C100D
:10068000ADF80400ADF80600ADF80E0007203F4CB1
:10069000ADF810006946204602F000FC012120461A
:1006A00002F079FC8BE77CB5002402208DF8044031
:1006B0000C2500908DF8055001268DF806606846DF
:1006C00002F010FD08208DF8044000908DF80550D0
:1006D0008DF80660684602F005FD30028DF8044092
:1006E00000908DF805508DF80660684602F0FAFC1F
:1006F0007CBD1FB50C2100900020ADF80800ADF8BE
:100700000400234CADF80600ADF80A10ADF80C005B
:100710006946204602F03AFA012240F2255120466D
:1007200002F0B1FA0121204602F0A3FA1FBD38B54C
:100730004FF4A06001F098F91D208DF80000022010
:100740008DF8010001248DF802408DF803406846C1
:1007500001F08FF91E208DF800008DF801408DF812
:1007600002408DF80340684601F083F9072011E04C
:1007700000080140000C014000023000140000207D
:100780000024014000040040000800400030014007
:10079000003801408DF8000003208DF8010000258D
:1007A0008DF802508DF80340684601F062F9092087
:1007B0008DF8000004208DF801008DF802508DF8AE
:1007C0000340684601F055F917208DF80000052018
:1007D0008DF801008DF802508DF80340684601F055
:1007E00048F938BD10B5FFF742FE01F08DF8144806
:1007F0004FF47A710068B0FBF1F0B0F1807F0DD258
:1008000020F07F414FF0E020491E41610D4AF02168
:1008100082F8141D0021816107210161FFF7D1FEDB
:100820004FF4E130FFF765FFFFF718FFFFF786FD94
:10083000FFF776FEFFF737FFBDE8104077E70000CF
:10084000000000200FE000E070B5054601F06EF8F2
:10085000044605EB4500C0EBC51500BF01F066F886
:10086000001BB0EBC50FF9D370BD70B5054601F0A4
:100870005DF8044601F05AF8001BA842FAD370BD97
:100880007648754941607649416076A003F01ABC0C
:100890007248016941F08001016170476F48C0688A
:1008A000C10701D001207047410701D502207047E0
:1008B000C00601D5032070470020704710B50446DC
:1008C000FFF7ECFF012803D0002C00D1FF2010BD62
:1008D0000120FFF7CAFF641E2404240CF0D1F5E7C1
:1008E00070B5054645F6FF763046FFF7E7FF00286E
:1008F00012D15A4C206940F00200206165612069E4
:1009000040F0400020613046FFF7D8FF012803D0B7
:10091000216921F00201216170BD70B506460D46C6
:10092000FF20FFF7CBFF00280ED14C4C206940F090
:10093000010020613580FF20FFF7C0FF012803D0B0
:10094000216921F00101216170BD008870472DE906
:10095000F04116460F460546002407E037F814100C
:100960002846FFF7DAFF641CA4B2AD1CB442F5D3ED
:10097000BDE8F08110B5002306E000BF30F8024B5F
:1009800021F813405B1C9BB29342F7D310BD2DE9B5
:10099000F05FA0F1006415468A468346B4F5803FB7
:1009A00052D2FFF76DFFA70AC4F34806C6F50074DC
:1009B000A54200D82C46DFF8C89000BF4FF0006079
:1009C00000EB872080464FF400722D49FFF7D2FFDD
:1009D00000204FF6FF7106E0331839F813208A42E1
:1009E00003D1401C80B2A042F6D3A04225D240469B
:1009F000FFF776FF0020494607E000BF3AF81020D5
:100A00008319401C21F8132080B2A042F6D31C4960
:100A100040464FF4007200BFFFF799FFA54210D087
:100A2000281B0AEB440AA344002685B24FF4007445
:100A30007F1CA542C2D82C46C0E7224651465846E4
:100A4000EAE7BDE8F05F23E7BDE8F09F13B50122B8
:100A500001A9FFF79CFF1CBD230167450020024050
:100A6000AB89EFCD466C61736820756E6C6F636BFC
:100A700020737563636573732E2E2E0D0A000000BC
:100A8000880000200F490A881206FCD50D4AC0F3E1
:100A90000801121D118070470A4801888906FCD59B
:100AA0000848001D0088C0F30800704705490A88FF
:100AB0001206FCD50349C0F30800091D08807047E1
:100AC0007047000000380140414910B50A6822F023
:100AD0001F020A600A6802430A603D4C0121343C4F
:100AE000204602F0DEFB20688007FCD5384818302D
:100AF000006880B210BD2DE9F04100250E46074682
:100B00002C4605E03846FFF7DFFF641C0544E4B2DD
:100B1000B442F7D3B5FBF6F080B2BDE8F08110B572
:100B200014211020FFF7E7FF04F006FE4FF06632B5
:100B3000284B04F015FE04F0CDFB05F005F8264A1D
:100B4000264B04F00BFF264A264B04F09DFC0022A6
:100B5000254B04F0F1FB04F0BDFB244905F0F0F84F
:100B6000BDE8104005F084B810B514210820FFF747
:100B7000C2FF04F0E1FD4FF06632164B04F0F0FDC9
:100B8000BDE8104004F0A6BB10B5FFF7EDFFB0F1D3
:100B9000814F01DB062010BD1549884201DB05208D
:100BA00010BD1449884201DD042010BD124988425D
:100BB00001DD032010BD1149884201DB022010BD78
:100BC0000F49884201DB012010BD002010BD00004C
:100BD0003424014066665A3FE17A14AE47E1F63F9D
:100BE00022FDF675E09C713F000039400000204175
:100BF0009A9979408FC2754033337340000070403A
:100C000052B86E4070B5FF4C05460221204602F0F6
:100C10002EFA0028F9D02946204602F0E4F90121F5
:100C2000204602F024FA0028F9D0204602F0DDF92F
:100C3000C0B270BD70B5F44D00F01F0410212846FD
:100C400001F031F82046FFF7DDFF0020FFF7DAFF63
:100C500004461021284601F024F8204670BD2DE9F5
:100C6000F041E94E044601F01F07154610213046B9
:100C700001F019F83846FFF7C5FF04E00020FFF740
:100C8000C1FF04F8010B6D1EEDB2F7D23046BDE88E
:100C9000F041102101F005B870B500F01F00DA4EE8
:100CA0000D4640F020041021304600F0FCFF2046A5
:100CB000FFF7A8FF2846FFF7A5FF3046BDE87040C4
:100CC000102100F0EEBF2DE9F04100F01F00CE4EE4
:100CD0000C4640F0200715461021304600F0E3FF97
:100CE000384601E014F8010BFFF78CFF6D1EEDB2E2
:100CF000F8D23046BDE8F041102100F0D2BF70B507
:100D0000C14D04461021284600F0CDFF2046FFF7D4
:100D100079FF04461021284600F0C3FF204670BD2D
:100D20002DE9F04117460546B848B84A007854788E
:100D300008B1002000E0601AC6B2A14200D20C4601
:100D4000DFF8C4821021404600F0ADFF3846FFF7BF
:100D500059FF074604E000BF15F8010BFFF752FFEB
:100D6000641EE4B2F8D202E00020FFF74BFF761ECB
:100D7000F6B2F9D21021404600F093FF3846BDE8A4
:100D8000F0812DE9F0410546A048A04A007854784A
:100D900008B1002000E0601AC6B2A14200D20C46A1
:100DA000DFF864821021404600F07DFF6120FFF7EC
:100DB00029FF074604E00020FFF724FF05F8010B98
:100DC000641EE4B2F7D202E00020FFF71BFF761E9C
:100DD000F6B2F9D21021404600F063FF3846CEE764
:100DE00010B500F0A3FD894908310871BDE8104035
:100DF00000F025BE70B500252C464FF40041824816
:100E000000F051FF8148C0F80D504474083000795B
:100E1000002802D1BDE87040E2E770BD10B50020A7
:100E2000FFF708FF810709D440F002010020FFF717
:100E300033FFBDE810400520FFF706BD10BDE120DF
:100E40005DE7E2205BE710B50620FFF7F3FE00F058
:100E50002800202803D0082803D0012010BD00203E
:100E600010BD022010BD0520E4E670B50546002641
:100E70000620FFF7DFFE022D00D3022520F0280414
:100E800062485521416015B1022D04D007E044F0BD
:100E900020049B2102E044F00804412141602146E6
:100EA0000620FFF7F9FE0620FFF7C4FEA04200D19E
:100EB0000126304670BD10B504460620FFF7BAFE85
:100EC00000F0F800032C00D3032440EA4400C1B230
:100ED000BDE810400620DFE610B504460020FFF70D
:100EE000A9FE20F00C011CB1012C05D041F00C0131
:100EF000BDE810400020CFE641F00801F8E72DE9F9
:100F0000FF5F1E46DDE912B5DDE90EA891460746F2
:100F1000FFF770FF7F2F01D2394600E07F210520C7
:100F2000FFF7BAFE56B1202E00D92026374CB8F173
:100F3000030F667004D24FF0030806E00126F5E7C0
:100F4000B8F1050F01D94FF0050884F80280A8F127
:100F5000020808F0FF010320FFF79EFE119808B178
:100F60003F2100E000210120FFF796FEBAF1000FBB
:100F700011D01D20FFF75EFE40F004011D20FFF799
:100F80008BFE1C20FFF756FE40F03F011C20FFF7B0
:100F900083FE012020701098FFF79EFF0BF00F00DA
:100FA000294660F31F110420FFF776FE0198FFF732
:100FB00082FF4846FFF759FF70210720FFF76CFEBC
:100FC000FFF751FFB84203D1FFF73DFF484503D07B
:100FD000002004B0BDE8F09FE220FFF790FEE12082
:100FE000FFF78DFEFFF71AFF6420FFF72DFC0020AE
:100FF000FFF720FE20F001010020FFF74DFE012049
:10100000E7E7000000300140000801401C0000201C
:1010100070B50D46044606280ED80120FFF70AFEDB
:101020000122A24015B10243D1B201E020EA02013F
:10103000BDE8704001202FE670BD10B51720FFF706
:10104000F9FD40F30000401C10BD10B5FF20FFF774
:1010500056FEC0F3420010BD10B54FF40041FC48ED
:1010600000F021FE0020FFF7E5FD20F00201BDE8C1
:101070001040002010E6FF2041E670B506461446F9
:101080000D460020FFF7D6FD40EA051040EA461065
:1010900040EA8410BDE87040C1B20020FCE510B504
:1010A0006020FFF72CFE202806D9E220FFF727FE5C
:1010B0000220FFF7C9FB002010BD70B500242046B8
:1010C000FFF7B8FD00F00C050120FFF7B3FD05F0B8
:1010D0000801014304D0680701D5022400E001247F
:1010E000204670BD10B50920FFF7A4FD00F00100F7
:1010F00010BD70B5D64D4FF400442146284600F08F
:10110000D2FD10210720FFF7C7FDE320FFF7F7FD11
:1011100021462846BDE8704000F0C3BD10B506204A
:10112000FFF788FDC0F3410010BD10B51D20FFF78B
:1011300081FD40F006011D20FFF7AEFD1C20FFF7EA
:1011400079FD40F03F011C20FFF7A6FDC1490120B9
:10115000087010BD10B51D20FFF76CFD40F00101B7
:10116000BDE810401D2097E510B5FFF784FF044649
:1011700070210720FFF790FDC4F34011C4F3001065
:101180004143C4F380104143C1EB0110400010BD46
:1011900010B54FF40041AE4800F085FDAD4C6068DD
:1011A000FFF763FB1D20FFF745FD800705D560684D
:1011B000FFF75BFBE120FFF7A2FDA649A27808310B
:1011C0000A20FFF780FD61781120FFF765FD0220FE
:1011D000FFF730FD40F001010220FFF75DFD002028
:1011E000FFF728FD20F00101BDE81040002053E585
:1011F00010B504460220FFF71DFD0121A14020EAA1
:101200000101BDE81040022046E510B50020FFF7BF
:1012100011FD40F001010020FFF73EFD7021072085
:10122000FFF73AFD4FF40041894800F03AFD894844
:101230000D3001784278C3781143827800791A43DF
:101240001143014313D0834C0A2004F10D01A2780D
:10125000FFF739FD61781120FFF71EFD0220FFF72F
:10126000E9FC40F001010220FFF716FD02E000203A
:10127000FFF7BEFF1D20FFF7DDFC800703D5BDE8AB
:101280001040E1203BE510BD13B5724C694604F1F6
:101290000800A27803F003F8A27869461020FFF74F
:1012A00012FD1CBD6B4800F10801827810200AE590
:1012B0007FB5684D04001CD0012C2AD0A01E042844
:1012C0000CD20C30C0B2012202A9FFF7FCFC04F1E1
:1012D0001100C0B295F80110FFF7DEFC0220FFF705
:1012E000A9FC0121A1400843C1B20220FFF7D4FCB0
:1012F0007FBDAA7802A90A20FFF7E5FC69781120D2
:10130000FFF7CAFC5348AA7802A90D3002F082FF09
:10131000E4E7AA7802A90B20FFF7D5FC6978122030
:10132000DAE710B5FFF72DFD7021BDE8104007206A
:10133000B2E42DE9F04106460C46202A00D32022D3
:10134000434F15461021384600F0ADFC06F007006B
:1013500040F0A80002E000BF14F8010BFFF752FCB8
:101360006D1EEDB2F8D23846BDE8F041102100F014
:1013700098BC10B51C460AB1A02200E0B022FFF7CD
:10138000CFFC002C06D0BDE810404FF4004130489F
:1013900000F087BC10BD2DE9F0471F4690468946F6
:1013A0008246089C00F0EDFA044470210720FFF704
:1013B00073FC274E4FF400452946304600F071FC7F
:1013C000D7B91EE0FFF757FEC00607D5102107204A
:1013D000FFF762FC2946304600F063FC00F0D1FACA
:1013E000A04209D92946304600F05DFCE120FFF714
:1013F00086FC0020BDE8F087FFF73DFEC007E1D185
:1014000006E02946304600F04EFCE120FFF777FC6D
:101410000123424649465046FFF7ABFF0120E9E76A
:101420002DE9F0471F46904689468246089C00F009
:10143000A8FA044470210720FFF72EFC044E4FF455
:1014400000452946304600F02CFCAFB919E00000F9
:10145000000801401C000020FFF70DFEC00607D564
:1014600010210720FFF718FC2946304600F019FC30
:1014700000F087FAA04223D8FFF7FDFDC007EBD1AB
:1014800006E02946304600F00EFCE120FFF737FC6D
:101490000123424649465046FFF76BFF19E000BF63
:1014A000FFF7E9FDC00607D510210720FFF7F4FB81
:1014B0002946304600F0F5FB00F063FAA04208D957
:1014C0002946304600F0EFFBE120FFF718FC002032
:1014D00090E71720FFF7AEFBC006E1D5294630465E
:1014E00000F0E1FB70210720FFF7D6FB012081E728
:1014F0002DE9F0410C46074600F043FA404E044403
:101500004FF400452946304600F0CBFBCFB91EE032
:10151000FFF7B1FDC00607D510210720FFF7BCFB80
:101520002946304600F0BDFB00F02BFAA04208D956
:101530002946304600F0B7FBE120FFF7E0FB002032
:101540001DE41720FFF776FBC006E1D502E0E1209D
:10155000FFF7D5FB2946304600F0A5FB7021072098
:10156000FFF79AFB01200AE42DE9FC5F0646C8005C
:1015700093460838C2B21C469146FF20002102F073
:101580008EFD05468846E8436FEA0802CDE9000271
:1015900000F0F7F900EB040AD6E900230120FFF779
:1015A00087FEFFF732FE1FFA8BF0FFF74DF9FFF7CA
:1015B00044FD28B1E220FFF7A2FB0120BDE8FC9F1B
:1015C00000F0DFF9504501D90020F7E7D6E90074B3
:1015D00025EA070028EA0401084309D04A46012009
:1015E000002102F05CFD38184C41C6E90004D3E745
:1015F000DDE9000107400C40C6E90074CCE70000BB
:101600000008014010B54E4C0121204601F07FFA40
:10161000002828D04B4901220888401C83B20020B2
:101620000B80C82B01D308800A814B885B1C9BB2BE
:101630004B80282B01D348804A818B885B1C9BB24E
:101640008B80192B01D388808A81CB885B1C9BB24D
:10165000CB80142B01D3C880CA812046BDE810403E
:10166000012101F060BA10BD1CB5374C01212046A4
:1016700001F04DFA002830D03448018834A002F03F
:1016800021FD3648018836A002F01CFD384801884B
:1016900038A002F017FD3B4801883BA002F012FD84
:1016A000FFF762FA04F050FA02460B4639A002F046
:1016B00009FD3D4802784178CDE900128378C2786F
:1016C00001793AA002F0FEFC40A002F0FBFC2046AB
:1016D000BDE81C40012101F026BA1CBD10B5022056
:1016E00001F050FD002809D03CA002F0EBFCFFF710
:1016F00077FBBDE81040022001F052BD10BD10B5CF
:10170000082001F03FFD002807D039A002F0DAFCE4
:10171000BDE81040082001F043BD10BD10B54FF4E6
:101720008074204601F02EFD002807D035A002F07D
:10173000C9FC2046BDE8104001F032BD10BD0000DC
:10174000000800402E000020000400406A00002035
:10175000746872202D2D3E25640D0A006E00002055
:101760007069746368202D2D3E25640D0A00000009
:101770006C000020726F6C6C202D2D3E25640D0ACC
:101780000000000070000020796177202D2D3E259B
:10179000640D0A004261747465727920285629200C
:1017A0002D2D3E25660D0A002400002072656D6F08
:1017B00074652061646472202D2D3E307825782573
:1017C000782578257825780D0A0000002D2D2D2DFF
:1017D0002D2D2D2D2D2D2D2D2D0D0A006B657920F4
:1017E0006D6F64652070726573732E2E2E0D0A0066
:1017F0006B6579206164642070726573732E2E2E80
:101800000D0A00006B657920737562207072657334
:10181000732E2E2E0D0A000086B0FEF7E3FFFFF7B1
:101820002FF800F0F4F84FF001090F21CDE90491F1
:10183000052000240222CDE90040CDE90229202321
:1018400003212820FFF75BFBFFF72CFDFFF7A0FC2F
:1018500002F010F9224DDFF88C80234E234F2888A8
:1018600068B12C8002F07AF802F0F4FB072002F055
:1018700055FB10B188F8009001E088F800403088EE
:10188000012827D1348098F8000050B1FFF72AFCD6
:1018900008B1012206E01648006840F30032521CED
:1018A00000E0002212484FF480510C3800F0FDF99E
:1018B00002F0C4FAFFF768F9012805D80D4800685E
:1018C00040F38012521C00E001220A4840210C38EB
:1018D00000F0EBF938880128C1D13C80BFE7000057
:1018E0003A0000203E000020360000203800002092
:1018F0000C0801400C0C01407047FEE7FEE7FEE7D4
:10190000FEE770477047704700B585B0684600F045
:10191000FBFA1D490098B0FBF1F01C49086005B0C6
:1019200000BD1A484168491C4160704710B517480E
:101930004FF0E02341689A694468A142FAD10368F4
:10194000006803EB4304C4EBC313C2EBC302B2FB56
:10195000F0F001EB4102C2EBC11100EBC10010BD80
:1019600030B50546FFF7E2FF044605EB4500C0EB46
:10197000C51500BFFFF7DAFF001BB0EBC50FF9D3A9
:1019800030BD02484068704740420F0040000020D0
:1019900002222E492E48FEF7FABF0C222B492C4872
:1019A000FEF7E8BF0C2229492948FEF7F0BF274877
:1019B000284A41881180284A81881180274AC18895
:1019C0001180274A018911802649807A0871704761
:1019D0001E48012101801F49098841801E4909884C
:1019E00081801E490988C1801D49098801811D49DE
:1019F00009794181704717490020088016490880FD
:101A0000164908801649088016490871704710B5B4
:101A100002220E490E48FEF7ADFF0C4A0123108842
:101A2000012807D0FFF7E7FFFFF7D2FF1380BDE8DB
:101A30001040B7E7FFF7B1FFBDE81040B7E710B5BA
:101A4000FFF7C6FFBDE81040ACE7000088040020A7
:101A500000F0000862000020640000206600002002
:101A60006800002024000020284908432849086015
:101A7000704770B50F23C47801780122F4B1244C6B
:101A80002468457804F4E064C4F5E064240AC4F1F1
:101A90000406E3408478B5401C402C4301F1E0216A
:101AA000230181F80034007800F01F018A404009CA
:101AB000800000F1E020C0F8002170BD01F01F009F
:101AC00082404809800000F1E020C0F8802170BD0C
:101AD000104A114001430E48001F016070470C4A34
:101AE000121D0029116801D0014300E081431160FB
:101AF00070474FF0E0210428086903D020F004006B
:101B00000861704740F00400FAE700000000FA05A1
:101B10000CED00E080FFFF1F914910B5884206D10F
:101B20000121042000F04BFA002104203BE08D4904
:101B3000884206D10121082000F041FA0021082046
:101B400031E08949884206D10121102000F037FA9E
:101B50000021102027E08549884206D1012120205C
:101B600000F02DFA002120201DE08149884206D195
:101B70000121402000F023FA0021402013E07D499C
:101B8000884206D10121802000F019FA002180202E
:101B900009E0794988420AD184150121204600F0E4
:101BA0000EFA00212046BDE8104000F008BA10BD32
:101BB00010B50121084600F002FA0021BDE81040EE
:101BC000012000F0FCB9F0B5CA78002502F00F033F
:101BD000D20601D58A7813430A784FF00F0E12F01F
:101BE000FF0F4FF001021DD0D0F800400F8802FA1D
:101BF00005F63740B74211D14FEA850C0EFA0CF7C3
:101C000024EA070703FA0CF43C43CF78282F02D0CC
:101C1000482F02D002E0466100E006616D1C082DED
:101C2000E4D304600C88FF2C1ED944685FF00006E2
:101C300006F1080702FA07F50F882F40AF420FD1CF
:101C40004FEA860C0EFA0CF7BC4303FA0CF73C4340
:101C5000CF78282F00D14561CF78482F00D105617A
:101C6000761C082EE4D34460F0BD4FF6FF7101806E
:101C7000022181700421C1707047024600209268E1
:101C80000A4200D001207047806880B27047024647
:101C90000020D2680A4200D001207047C06880B29C
:101CA000704701617047416170470AB10161704737
:101CB00041617047C160704741F480328261816147
:101CC00082618169806970472C4B10B51A684FF6A4
:101CD0008074224042EA00100843186010BD284971
:101CE000C8617047F0B5254C002801DAE36900E0CF
:101CF0006368420D120185B2C0F301579540C0F3ED
:101D00000346032F05D0C2020AD50322B2409343F3
:101D100007E023F07062636823F07063636002E0A1
:101D2000AB4343F0706201B12A43002801DAE2615B
:101D3000F0BD6260F0BD10B58A0721F003040F49C1
:101D4000130F21440F228C689A4094438C608A6858
:101D5000984002438A6010BD0949C1F8DC00704711
:101D600000080140000C0140001001400014014037
:101D700000180140001C014000200140000001400B
:101D800000002042A448016841F00101016041685F
:101D9000A24A114041600168A14A114001600168F6
:101DA00021F480210160416821F4FE0141604FF47B
:101DB0001F018160704798490A6822F480320A60E6
:101DC0000A6822F480220A60B0F5803F07D0B0F59F
:101DD000802F03D1086840F4A0200860704708688D
:101DE00040F48030F9E70246002053098A49012B6C
:101DF0000AD0022B0AD0496A02F01F020123934045
:101E00000B4200D0012070470968F5E7096AF3E743
:101E100018B500204FF4A06400903120FFF7E3FFD5
:101E20000099491C0091A14201D00028F5D0312031
:101E3000FFF7D9FF002800D0012018BD76490A68B5
:101E400022F0F80242EAC000086070477549086055
:101E50007047714A5368084323F47C131843506059
:101E600070477049086670476B4A516821F003015A
:101E70000143516070476848406800F00C007047AB
:101E8000654A516821F0F001014351607047624A90
:101E9000516821F4E0610143516070475E494A682E
:101EA00022F4605242EAC000486070475A4A002952
:101EB000517A01D0014300E0814351727047594982
:101EC000C1F8D8007047544A516821F44041014399
:101ED000516070475049002281F8202081F820206D
:101EE000012802D0042802D1052081F82000704783
:101EF0004D490860704748490A6A02430A627047C0
:101F0000494944390860704730B543494A6812F07E
:101F10000C03464A03D0042B01D0082B21D00260C9
:101F20004A680F23424C03EA1212A35C0268DA40AB
:101F300042604B68072505EA1323E35C22FA03F3AA
:101F400083604B6805EAD323E35CDA40C2604968EA
:101F5000032303EA9131231F595CB2FBF1F10161C4
:101F600030BD4A684B6802F470124FF0020413F45B
:101F7000803F04EB924202D04B689B0301D52D4B6E
:101F800000E02A4B5A43CAE7234A0029516901D08D
:101F9000014300E08143516170471F4A0029916964
:101FA00001D0014300E08143916170471A4A002942
:101FB000D16901D0014300E08143D1617047164AE5
:101FC0000029D16801D0014300E08143D16070470E
:101FD000114A0029116901D0014300E081431161D8
:101FE000704711494039086070470E49C86470470E
:101FF0000949C87170470848416A41F080714162DF
:102000007047054A0146002092680A4200D001202C
:102010007047014988727047001002400000FFF8C5
:10202000FFFFF6FE000042428004424200127A00A6
:102030004C00002000093D00F94910B5884202D14A
:102040000121C41486E0B0F1804F09D0F5498842DF
:102050000DD101210220FFF7BBFF0021022064E027
:1020600001210846FFF7B4FF002101205DE0EE49A1
:10207000884206D101210420FFF7AAFF0021042095
:1020800053E0EA49884206D101210820FFF7A0FF6A
:102090000021082049E0E649884206D101211020AC
:1020A000FFF796FF002110203FE0E249884206D169
:1020B00001212020FFF78CFF0021202035E0DE49A0
:1020C000884202D10121441444E0DC49884202D113
:1020D0000121CC043EE0DA49884202D101210C05FD
:1020E00038E0D849884202D101214C0532E0D64976
:1020F000884206D101214020FFF76AFF00214020DD
:1021000013E0D249884206D101218020FFF760FF09
:102110000021802009E0CE4988420AD1841501219E
:102120002046FFF755FF00212046BDE81040FFF78D
:102130004FBFC849884202D101210C040AE0C649B8
:10214000884202D101214C0404E0C44988420AD1EA
:1021500001218C042046FFF732FF2046BDE81040E5
:102160000021FFF72CBF10BD30B50288AC4BB24C3C
:1021700098420DD0A0420BD0B0F1804F08D0A94DAD
:10218000A84205D0A84DA84202D0A84DA84203D12C
:1021900022F070054A882A43A54DA84206D0A54DD5
:1021A000A84203D022F44075CA882A4302808A8854
:1021B00082850A88028598420AD0A04208D0A54AA2
:1021C000904205D0A44A904202D0A44A904201D144
:1021D000097A01860121818230BD30B5028C22F05E
:1021E00001020284028C8388048B22F0020224F014
:1021F00073050C882C430D8915434A882A43884D62
:10220000A8420BD08C4DA84208D0924DA84205D0D0
:10221000914DA84202D0914DA8420DD122F008055F
:102220004A8923F440732A4322F004058A882A430A
:102230008D891D43CB892B4383800483C988818684
:10224000028430BD70B5028C22F010020284028C30
:102250008488038B0D8823F4E6464FF6FF7303EA68
:10226000052535430E8922F0200203EA061616439F
:102270004A8803EA02123243694EB04202D06E4EDF
:10228000B04215D122F080064A8924F4406403EA62
:102290000212324322F040068A8803EA02123243D5
:1022A0008E8903EA86062643CC8903EA84043443F4
:1022B00084800583C9880187028470BD70B5028C53
:1022C00022F480720284028C8488838B0D8823F030
:1022D00073031D4322F400730E894FF6FF7202EA66
:1022E00006261E434B8802EA032333434C4EB0427A
:1022F00002D0514EB04215D123F400664B8924F42C
:10230000405402EA0323334323F480668B8802EAB5
:10231000032333438E8902EA06162643CC8902EA58
:102320000414344384808583C9888187038470BD05
:1023300070B5028C22F480520284048C8288838BD4
:102340000D8823F4E6464FF6FF7303EA052535436F
:1023500024F400560C8903EA043434434E8803EA1B
:10236000063626432E4CA04202D0334CA04205D163
:1023700022F480448A8903EA821222438280858380
:10238000C988A0F84010068470BD828B22F4406298
:102390008283828B4FF6FF7303EA01210A43828313
:1023A0007047828B22F00C028283828B0A438283E5
:1023B0007047028B22F440620283028B4FF6FF7358
:1023C00003EA01210A4302837047F0B5048C24F02C
:1023D00010040484078B048C4FF6FF7527F47347B1
:1023E00005EA03333B4305EA02221A430C4B05EA94
:1023F000011698420ED0104B98420BD0B0F1804F8E
:1024000008D0084B984205D0074B984202D0074BA2
:10241000984225D124F02001314341F0100124E0FD
:10242000002C01400004004000080040000C004067
:10243000001000400014004000340140004C0140F6
:10244000005001400054014000180040001C0040B2
:10245000002000400040014000440140004801408D
:1024600024F0A0030B4343F0100102830184F0BD6C
:10247000028B22F00C020283028B0A430283704714
:1024800070B5048C24F001040484058B048C4FF691
:10249000FF7606EA0313134325F0F305F94A2B43AD
:1024A00090420ED0F84A90420BD0B0F1804F08D045
:1024B000F64A904205D0F64A904202D0F54A904240
:1024C00002D124F0020201E024F00A020A4342F0A1
:1024D00001010383018470BD2DE9F05F0D460446C0
:1024E0000888E84FDFF8A0C3DFF8A0834988AA88EE
:1024F0002B894FF0804960B3042832D04FF6FF7E1D
:10250000082836D0208C9B4620F480502084A38B52
:10251000268C704600EA022223F473431A4300EA31
:102520000B3010430EEA013EBC420BD0644509D08B
:102530004C4507D0444505D0D54A944202D0D54BEE
:102540009C4245D126F4005141EA0E0141F48051EC
:1025500043E02046FFF794FFE9882046BDE8F05F9E
:1025600086E72046FFF731FFE9882046BDE8F05FA7
:102570001FE7208C20F480702084B4F81CA0208CED
:102580000EEA031313432AF0F30A0EEA012B43EA7F
:102590000A03BC420BD0644509D04C4507D04445E2
:1025A00005D0BB4A944202D0BA4A944204D120F4E6
:1025B000007040EA0B0002E020F42060084340F481
:1025C0008070A3832084E9882046BDE8F05FE8E6B8
:1025D00026F402420A4342F48051A083204621841B
:1025E000E988BDE8F05FD0E62DE9F0410C46002611
:1025F00049880746012501B90226A288012A00D18F
:102600000225208823890028384610D0FFF7DDFEF8
:10261000E1883846FFF7CDFE23892A463146384601
:10262000FFF72EFFE1883846BDE8F04120E7FFF7CD
:1026300027FFE1883846FFF71BFF23892A463146EA
:102640003846FFF7C2FEE1883846BDE8F041B0E603
:1026500010B50A884B88CC881A438B8823431A43C9
:102660000B891A434B8989891A430A43A0F84420ED
:1026700010BD4FF6FF71818000210180C180418033
:10268000017270470021018041808180C1800181F9
:1026900041818181C18170470021018041800122F7
:1026A0008280C1800181704700210180418081804A
:1026B000C18001814181818170470029018802D058
:1026C00041F0010101E021F0010101807047002982
:1026D00030F8441F02D041F4004101E0C1F30E0183
:1026E00001807047002A828901D00A4300E08A43B2
:1026F00082817047818270471143A0F8481070476B
:10270000002A828901D00A4300E08A43828170470F
:10271000018921F0070101817047028922F07002CE
:102720000A430281704700B50346FFF7F6FF188998
:1027300040F00700188100BD70B516460D466029AF
:1027400004464FF0010231460AD0FFF799FE2946B0
:102750002046FFF7E2FF208940F00700208170BD8E
:10276000FFF733FEF3E730B504894FF6FF7505EA4E
:1027700003231343E4B20B432343038130BD10B55D
:102780000446FFF7F0FF208940F07700208110BD5C
:1027900010B50446FFF7E7FF208940F48040208110
:1027A00010BD018582827047028822F070020A43C0
:1027B0000280704770B50589048B068C25F00705EB
:1027C0000D434FF6FC410C4040F201110C434FF613
:1027D000FF7101EA031126F02206114331430581FE
:1027E0000483018470BD028B22F070020A430283CD
:1027F0007047028B4FF6FF7322F4E04203EA012197
:10280000114301837047828B22F070020A43828356
:102810007047828B4FF6FF7322F4E04203EA0121F6
:102820001143818370470029018802D041F0800163
:1028300001E021F08001018070470029818802D0E9
:1028400041F0040101E021F004018180704700297A
:10285000818802D041F0080101E021F00801818067
:1028600070470029818802D041F0010101E021F088
:10287000010181807047028B22F008020A43028323
:1028800070470000002C014000340140000400406B
:1028900000080040000C0040028B4FF6FF7322F44A
:1028A000006203EA012111430183E9E7828B22F0F0
:1028B00008020A438283E3E7828B4FF6FF7322F418
:1028C000006203EA012111438183D9E7028B22F0E0
:1028D00004020A430283D3E7028B4FF6FF7322F40C
:1028E000806203EA012111430183C9E7828B22F050
:1028F00004020A438283C3E7828B4FF6FF7322F4FC
:10290000806203EA012111438183B9E7028B22F03F
:1029100080020A430283B3E7028B4FF6FF73C2F3D0
:102920000E0203EA012111430183A9E7828B22F001
:1029300080020A438283A3E7828B4FF6FF73C2F3C0
:102940000E0203EA01211143818399E7028C22F0F0
:1029500002020A43028493E7028C22F008020A432F
:1029600002848DE7028C4FF6FF7322F0200203EA07
:1029700001111143018483E7028C4FF6FF7322F0AB
:10298000800203EA01111143018479E7028C4FF6BA
:10299000FF7322F4007203EA0121114301846FE7FF
:1029A000028C4FF6FF7322F4006203EA0121114307
:1029B000018465E7028C4FF6FF7322F4005203EAAC
:1029C0000131114301845BE710B50123048C8B4076
:1029D0009C430484038C8A401343038410BD10B5C8
:1029E0000423048C8B409C430484038C8A4013434F
:1029F000038410BD30B50124058C00F118038C4010
:102A0000A543058489B108290FD0091FC1F34E00E1
:102A10001844016821F4E041016001684FF6FF733A
:102A200003EA02221143016030BD03EB510001684B
:102A300021F0700101600168F4E70029018802D0EB
:102A400041F0020101E021F00201018018E70029B4
:102A5000018802D041F0040101E021F0040101806D
:102A60000EE70029818802D041F0800101E021F0C9
:102A70008001818004E7028822F008020280028837
:102A80000A430280FCE6828822F0700282808288FB
:102A90000A438280F4E6028922F007020281028959
:102AA0000A430281ECE6028922F080020281028957
:102AB0000A430281E4E68184E2E68185E0E68186DC
:102AC000DEE60187DCE68187DAE6A0F84010D7E68B
:102AD000028822F44072028002880A430280CFE614
:102AE000808ECDE6008FCBE6808FC9E6B0F840003F
:102AF000C6E6808CC4E6008DC2E602460020128A3B
:102B00000A4200D00120BBE6C9430182B8E6024672
:102B10000020138A92890B4202EA010202D0002AA5
:102B200000D00120ACE6C9430182A9E6C44910B532
:102B300088420AD101218C032046FFF740FA204643
:102B4000BDE810400021FFF73ABABE49884202D1E1
:102B500001214C0410E0BC49884202D101218C04BF
:102B60000AE0BA49884202D10121CC0404E0B84904
:102B700088420AD101210C052046FFF729FA204698
:102B8000BDE810400021FFF723BA10BD30B5044660
:102B9000008A85B00D464CF6FF710840E988014374
:102BA0002182A1894EF6F3100140A8882A8910439A
:102BB0006A890A431043A081A08A4FF6FF4108406A
:102BC000A9890143A1826846FFF79EF99C48844287
:102BD00001D1039800E00298A189090400EBC0012B
:102BE00001EB0010296801D5490000E08900B0FB25
:102BF000F1F06422B0FBF2F109010B096FF0180546
:102C00006B4300EB8300A3891D044FF0320306D50C
:102C100003EBC000B0FBF2F000F0070005E003EBAF
:102C20000010B0FBF2F000F00F000843208105B067
:102C300030BD4FF41651016000218180C1800181B7
:102C40000C2242818181704710B5038A4FF2FF0246
:102C500013400A884C8822438C88C9880C4322433D
:102C60001A43028210BD0021018041808180C18011
:102C700070470029818902D041F4005101E021F41C
:102C800000518181704710B5C1F3421301F01F0458
:102C90000121A140012B07D0022B07D01430002ABC
:102CA000026805D00A4304E00C30F8E71030F6E77C
:102CB0008A43026010BD002A828A01D00A4300E0E4
:102CC0008A4382827047028A22F00F020282028ABD
:102CD0000A4302827047828922F4006282818289DB
:102CE0000A43828170470029818902D041F00201A4
:102CF00001E021F0020181817047028A22F0200266
:102D00000282028A0A43028270470029018A02D0A5
:102D100041F4804101E021F4804101827047C1F318
:102D20000801818070478088C0F30800704781895E
:102D300041F0010181817047028BD2B20283028B84
:102D400042EA012101837047028B02F47F42028331
:102D5000028B0A43028370470029818A02D041F026
:102D6000200101E021F02001818270470029818A41
:102D700002D041F0100101E021F010018182704782
:102D80000029818A02D041F0080101E021F0080108
:102D9000818270470029818902D041F4004101E01D
:102DA000C1F30E01818170470029818A02D041F46C
:102DB000006101E021F4006181827047828A22F083
:102DC00004028282828A0A43828270470029818AB1
:102DD00002D041F0020101E021F00201818270473E
:102DE0000246002012880A4200D001207047C943E1
:102DF0000180704730B501F01F0201240025C1F3A6
:102E0000421304FA02F2012B0FD0022B0FD0838A57
:102E10004FEA11210088134204FA01F400EA040089
:102E200001D000B10125284630BD8389F0E7038A2F
:102E3000EEE70A0A01219140C94301807047000072
:102E4000003801400044004000480040004C004071
:102E500000500040994910B588420AD184140121DC
:102E60002046FFF7ACF82046BDE810400021FFF7F0
:102E7000A6B89349884202D10121041404E0914983
:102E800088420AD10121C4132046FFF7A1F8204649
:102E9000BDE810400021FFF79BB810BD30B5028897
:102EA0004C8802F441530A88CD8822438C882C43F5
:102EB00022430C8922434C8922438C892243CC89AA
:102EC00022431A430280828B22F400628283098AA1
:102ED000018230BDF0B505460C4602200021AA8BC8
:102EE00085B001264FF240031A40AA832884AF8B95
:102EF000A268022A27D0A08800B102266846FFF700
:102F000003F8E1880098B1F5007F2DD07101B0FB86
:102F1000F1F000BF00EB8000A1684000B0FBF1F0D1
:102F2000401D80B20A21B0FBF1F000F00101401A0F
:102F30004FF6FF72C0F34F0002EA0121821EFE2A03
:102F400001D302200021E288084302432A8420881A
:102F50006188A2890843A18811430843384340F49B
:102F60000060A88305B0F0BD000AD3E7002101800E
:102F700041808180C180018141818181C18107219E
:102F8000018270470021018041808180C18002223E
:102F90008260818170470029018802D041F04001A0
:102FA00001E021F04001018070470029818B02D0AF
:102FB00041F4806101E021F4806181837047090957
:102FC00001238B40002A828899B201D00A4300E095
:102FD0008A4382807047002A828801D00A4300E039
:102FE0008A43828070478181704780897047A1F54C
:102FF0007E420188FF3A02D041F4807101E021F461
:103000008071018070470029818802D041F004015D
:1030100001E021F0040181807047028822F40062FF
:10302000028002880A4302807047018841F480517F
:10303000018070470029018802D041F4005101E06D
:1030400021F4005101807047012901D0008B7047A5
:10305000808A7047008A7047B1F5804F018803D09D
:1030600021F480410180704741F48041FAE7024633
:10307000002012890A4200D001207047C943018113
:10308000704710B501F00F040122034602FA04F460
:10309000002009098A4091B29A88A4B20A4019898D
:1030A000214202D0002A00D0012010BD01F00F0201
:1030B00001219140C9430181704700000030014067
:1030C00000380040003C0040374900200860091DDE
:1030D0000860091D0860091D086033493348143130
:1030E0000860704730B530498379026853B30B6884
:1030F00093430B600A1D13680468A34313600279AD
:103100000A441368046823431360274A083213688B
:103110000468A3431360131D1C680568AC431C605E
:103120004479102C05D021440A68006802430A60E3
:1031300030BD1168046821431160196800680143BB
:10314000196030BD0079084401689143016030BDC9
:103150000021016001710C22427181717047124996
:1031600010310A6802430A60704701460E4A002087
:10317000143212680A4200D0012070470A49143103
:1031800008607047084A014600201268064B0A4052
:1031900014331B680B4202D0002A00D00120704774
:1031A000014914310860704700040140FFFF0F001F
:1031B000C54910B5884202D1012144150AE0C3492E
:1031C000884202D10121041504E0C14988420AD194
:1031D0000121CC032046FEF7F2FE2046BDE8104058
:1031E0000021FEF7ECBE10BD10B54268B94B0C795A
:1031F0001A400B6842EA0422134343608368B64ACC
:103200001340D1E9024222434C7943EA44031A4372
:103210008260C26A097C22F47002491EC9B242EA85
:103220000151C16210BD00210160017141718160D5
:10323000C1600121017470470029816802D041F00A
:10324000010101E021F001018160704700298168DE
:1032500002D041F4807101E021F4807181607047F7
:10326000002A4268C9B201D00A4300E08A434260A2
:103270007047816841F00801816070470146002075
:103280008968090700D501207047816841F0040171
:1032900081607047014600208968490700D50120F8
:1032A00070470029816802D041F4A00101E021F4B7
:1032B000A00181607047014600208968490200D55D
:1032C000012070474268491E22F4604242EA4131BF
:1032D000416070470029416802D041F4006101E07B
:1032E00021F400614160704770B5072409290AD9AB
:1032F000C568A1F10A0606EB4606B440A543B340F3
:103300001D43C56007E0056901EB4106B440A543D4
:10331000B3401D4305611F23072A09D2446B521E87
:1033200002EB820293409C4391400C43446370BD86
:103330000D2A09D2046BD21F02EB820293409C43F8
:1033400091400C43046370BDC46A0D3A02EB8202E3
:1033500093409C4391400C43C46270BD0029816836
:1033600002D041F4801101E021F4801181607047A6
:10337000C06C80B2704754484C30006870470029D8
:10338000416802D041F4806101E021F48061416034
:1033900070470029416802D041F4805101E021F4D6
:1033A000805141607047826822F4E0420A438260A3
:1033B00070470029816802D041F4004101E021F406
:1033C0000041816070470029816802D041F40211F8
:1033D00001E021F4021181607047014600208968F4
:1033E000890200D50120704770B5072409290AD940
:1033F000C568A1F10A0606EB4606B440A543B340F2
:103400001D43C56007E0056901EB4106B440A543D3
:10341000B3401D430561836BC3F30154121B921C1F
:1034200002EB82041F22A2409343A1400B4383631B
:1034300070BD826B491E22F4401242EA0151816341
:10344000704708B508440090026008BD08B50844FC
:1034500028300090006880B208BD42681F4B1A40B7
:103460000A4342607047416282627047426822F0BC
:103470001F020A4342607047134908310028086858
:1034800002D040F4000001E020F400000860704722
:103490000246002012680A4200D001207047C9434A
:1034A0000160704710B50246002054680B0AC9B28B
:1034B0000C401168194202D0002C00D0012010BD30
:1034C0006FEA11210160704700240140002801408B
:1034D000003C0140FFFEF0FFFDF7F1FFFFFD3FFF65
:1034E000FC4A116801F03801014311607047F94945
:1034F0000A6822F008020A600A6802430A607047FC
:10350000F4490A6822F010020A600A6802430A605D
:103510007047F048F0494160F04941607047ED481C
:10352000ED494160ED4941607047EA48016941F069
:10353000800101617047E748016941F08001016144
:103540007047E4490420CA68D20701D001207047BF
:10355000CA68520701D502207047C968C906FBD561
:103560000320704700B50346FFF7EBFF03E000BF01
:10357000FFF7E7FF5B1E012803D0002B00D10520D9
:1035800000BD002BF4D1FAE770B505464FF43026A4
:103590003046FFF7E7FF042811D1CE4C206940F0F8
:1035A000020020616561206940F0400020613046E2
:1035B000FFF7D8FF216941F6FD721140216170BD0E
:1035C00030B54FF430252846FFF7CCFF042810D142
:1035D000C04C206940F004002061206940F04000A8
:1035E00020612846FFF7BEFF216941F6FB721140BA
:1035F000216130BD00B50346FFF7A3FF03E000BF24
:10360000FFF79FFF5B1E012803D0002B00D1052090
:1036100000BD002BF4D1FAE730B54FF43025284631
:10362000FFF7E8FF042810D1AA4C206940F00400FD
:103630002061206940F0400020612846FFF7DAFF52
:10364000216941F6FB721140216130BDA149002082
:10365000C969890700D50120704770B5A525FFF716
:10366000F5FF00B100254FF430263046FFF77AFF12
:10367000042827D1974C9848A0609848A0602069FA
:1036800040F020002061206940F040002061304679
:10369000FFF768FF41F6EF7604280ED1206941F666
:1036A000DF7108402061206940F0100020618C48E3
:1036B00005804FF40050FFF755FF052802D021691F
:1036C0003140216170BDF8B5064600204FF4005C22
:1036D00000900D466046FFF745FF042816D17D4C4B
:1036E000206940F00100206135806046FFF73AFF15
:1036F00041F6FE77042806D1B61C280C00963080CF
:103700006046FFF72FFF216939402161F8BDF0B510
:1037100006464FF400570D463846FFF723FF0428AE
:103720000CD16C4C206940F0010020613580384696
:10373000FFF718FF2169BA1E11402161F0BDF0B5F5
:1037400006464FF400570D463846FFF70BFF042896
:1037500013D1604C6048A0606048A060206940F0D0
:103760001000206135803846FFF7FCFE052804D0A4
:10377000216941F6EF7211402161F0BD2DE9F04160
:10378000C04300F0FF0CC0F30727C0F30746050E47
:103790004FF400584046FFF7E5FE042837D14D4C62
:1037A0004D49A1604D49A160216941F0100121619D
:1037B000BCF1FF0F08D04A480830A0F800C04046CE
:1037C000FFF7D0FE04281BD1FF2F07D044480A3052
:1037D00007804046FFF7C6FE042811D1FF2E07D010
:1037E0003F480C3006804046FFF7BCFE042807D156
:1037F000FF2D07D03A480E3005804046FFF7B2FE55
:10380000052804D0216941F6EF7211402161BDE81D
:10381000F08170B505464FF430263046FFF7A2FE22
:10382000042818D12B4C2C48A0602C48A06020699B
:1038300040F020002061206940F0400020613046C7
:10384000FFF790FE41F6DF71042805D0052802D06D
:1038500022690A40226170BD206908402061206908
:1038600040F0100020611E480DB1002100E0A521AC
:1038700001803046FFF776FE0528ECD0216941F63D
:10388000EF721140216170BDF0B5124C074612482D
:1038900016460D46A0601148A0604FF4005C6046DB
:1038A000FFF760FE042814D1206940F01000206169
:1038B00035430B493D43891C45F0F80008806046BC
:1038C000FFF750FE052804D0216941F6EF72114040
:1038D0002161F0BD0020024023016745AB89EFCD97
:1038E00000F8FF1F1C48C069800870471A48006A2A
:1038F0007047194900200968890600D501207047E2
:10390000154A0029116901D0014300E0814311618A
:10391000704701460020104A012903D0D2680A42AC
:1039200003D17047D169C907FBD0012070470A490C
:10393000C860704708490420CA68D20701D0012036
:103940007047CA68520701D502207047C968C90686
:10395000FBD5032070470000002002402DE9F0470E
:1039600014210320FDF7C7F802F0D6F9FC4F3946C1
:1039700002F0E6F96FF00B08414602F056FBF94DF4
:103980000446B5F9060002F0AFF9214602F0A4FAA8
:1039900002F08AF980B24FF47A767400E881B0427E
:1039A00001D2304602E0A04200D92046E88114212D
:1039B0000120FDF7A0F802F0AFF9B946394602F050
:1039C000BFF9414602F031FB0746B5F9080002F0A5
:1039D0008BF9394602F0E4F802F066F980B26882A9
:1039E000B04201D2304602E0A04200D920466882AF
:1039F00014210020FDF77FF802F08EF9494602F00D
:103A00009FF9414602F011FB0746B5F90A0002F0A2
:103A10006BF9394602F0C4F802F046F980B2288208
:103A2000B04201D2304602E0A04200D920462882AE
:103A300014210220FDF75FF802F06EF9494602F00A
:103A40007FF9414602F0F1FA0746B5F90C0002F0A1
:103A50004BF9394602F0A4F802F026F980B2A882A8
:103A6000B04201D2304602E0A04200D92046A882EE
:103A7000BDE8F0872DE9F0410025BB4F2E462A46D0
:103A800010213846FEF711F9002220213846FEF7B2
:103A90000CF9002240213846FEF707F90022802168
:103AA0003846FEF702F9AF4C4FF4FA60E080401060
:103AB00020816081A081E57031E000BFFFF74EFFFB
:103AC000E089618A284460F30F0501EB154060F33B
:103AD0001F45208AA18A304460F30F0601EB16408F
:103AE00060F31F466420FCF7AFFE2079401C40B213
:103AF0002071052854D0012854D002285AD0032818
:103B00004FF000025ED040213846FEF7CEF8012289
:103B100080213846FEF7C9F8E078401CE070E07874
:103B200094F905108842C9DBA9B2C0B2B1FBF0F12B
:103B3000E288511A01F2DC51E180290CB1FBF0F16D
:103B40002289511A01F2DC512181B1B2B1FBF0F1AD
:103B50006289511A01F2DC516181310CB1FBF0F044
:103B6000A189081A00F2DC50A081FFF7F7FEE28974
:103B700040F2DE50824211D2011F8A420ED9628A7F
:103B800082420BD28A4209D9228A824206D28A42D2
:103B900004D9A28A824201D28A4235D8012419E08E
:103BA00001202071002280213846FEF77EF8012294
:103BB0001021AEE7002210213846FEF776F80122E8
:103BC0002021A6E720213846FEF76FF80122402188
:103BD0009FE70024224610213846FEF766F8224669
:103BE00020213846FEF761F8224640213846FEF78C
:103BF0005CF8224680213846FEF757F8C820FCF7CB
:103C000023FE002CCAD0E4E7002210213846FEF73C
:103C10004CF8002220213846FEF747F800224021C8
:103C20003846FEF742F8002280213846FEF73DF87C
:103C3000BDE8F041FDF703BF70B54A4DA8780428F0
:103C40001BD34AA000F03EFA0024062000F066F9DB
:103C500018B1641CE4B2052CF7D3052C04D049A09C
:103C6000BDE8704000F02EBAB620287000228021F6
:103C70003D48FEF71AF84BA0F2E770BD70B5394D1C
:103C8000A87804281BD34DA000F01CFA00240520BE
:103C900000F044F918B1641CE4B2052CF7D3052CEC
:103CA00004D04BA0BDE8704000F00CBA6B20287027
:103CB000012280212C48FDF7F8FF4CA0F2E770BDEF
:103CC00070B52848002640F26C74807840F698055C
:103CD00004280AD070BD324680212348FDF7E5FF55
:103CE000EEB30026C820FCF7AFFD0F210320FCF740
:103CF00002FFA042EFD30F210320FCF7FCFEA842F5
:103D0000E9D80F210020FCF7F6FEA042E3D30F21F3
:103D10000020FCF7F0FEA842DDD80F210120FCF7BF
:103D2000EAFEA042D7D30F210120FCF7E4FEA8420F
:103D3000D1D80F210220FCF7DEFEA042CBD30F2109
:103D40000220FCF7D8FEA842C5D8C820FCF77CFDAD
:103D5000FFF790FE2A4800F037F92A4854E05DE06A
:103D600000007A445C000020000C0140446973614B
:103D7000726D696E67204D6F746F72732E2E2E0DEB
:103D80000A0000004D6F746F72732063616E6E6F76
:103D9000742062652064697361726D6564212121FC
:103DA0000D0A00004D6F746F727320646973617245
:103DB0006D65642121210D0A0000000041726D69CA
:103DC0006E67204D6F746F72732E2E2E0D0A0000D9
:103DD0004D6F746F72732063616E6E6F74206265D5
:103DE0002061726D65642121210D0A004D6F746F91
:103DF00072732061726D65642121210D0A0000003B
:103E0000B4040020C004002000F0DEF83A4800F0BE
:103E1000DBF8BDE87040394800F0D6B8012661E70C
:103E2000374810B58078042807D136A000F04AF949
:103E3000BDE81040CD2000F071B810BD2DE9F04173
:103E40002F4C40F21A41E089884252D22646A78A76
:103E5000B0787278401CC1B2308A40F24C450123E0
:103E6000768A40F26C7CAF4225D22778B62F19D1E2
:103E7000AE4217D2604509D9042A05D0A3700420A8
:103E80006070FFF71DFF2BE0A170F8E7A84227D272
:103E9000032A05D0A37003206070FFF7C1FF1FE065
:103EA000A170F8E7012A04D0A3706370FFF7C4FE85
:103EB00016E0A170F9E7674512D940F20E65A842F5
:103EC0000ED240F2AA57B8420AD9AE4208D2BE4238
:103ED00006D9022A0BD0A37002206070FFF7CEFE35
:103EE000A078C82801D36420A070BDE8F081A1703B
:103EF000F2E700206070F8E7CC040020D80400202E
:103F00005C000020494D552043616C696272617408
:103F1000696F6E2053656E740D0A000038B5244930
:103F2000044600200870242000F031F84D2000F0F5
:103F30002EF83C2000F02BF8082000F028F820464E
:103F400000F025F81B4C208800B200F027F82088EC
:103F500040F21A41884202D91748008801E040F235
:103F6000DC5000B200F01AF81448008800B200F0EB
:103F700015F81348008800B200F010F8082001235B
:103F800000901A4620210F48FDF74AFA38BD084A2A
:103F90000C4B11785854491C1170704710B50446E9
:103FA000C0B2FFF7F4FFC4F30720BDE81040EEE70E
:103FB000720000206A000020700000206E000020C7
:103FC0006C0000209404002040F2DC51018041800C
:103FD0002B494160816070472DE9F84F294D0E460D
:103FE00004468168286901F0ABFE0090D4F804A073
:103FF000E868514601F0A4FE8346608801F08CFE1B
:10400000A96801F09DFEB4F800808146404601F0A9
:1040100083FE696801F094FE0746308801F07CFE5B
:10402000296801F08DFE394601F0BAFD494601F0DC
:10403000B7FD594601F050FF009901F04DFFA4F87B
:10404000028031882180C4E9010A01F02DFE308010
:10405000BDE8F88F10B50C490C48FFF7BDFF0B48C1
:104060000B490C30FFF7B8FF08480A491830FFF732
:10407000B3FF0648BDE8104007492430ACE7000014
:104080000080BB44740000206A000020B4040020BB
:10409000700000206E0000206C0000207047B2F11C
:1040A00020030AD5C2F1200301FA02F120FA03F33A
:1040B00000FA02F041EA0301704700FA03F14FF001
:1040C000000070470FB4044910B503AA029800F02D
:1040D00083FB10BC5DF814FB180000202DE9F041B3
:1040E0000E460446002020622046E168884730B32F
:1040F000252805D0D4E901219047206A401CF2E729
:10410000E168204600278847050018D0A5F1410046
:10411000192802D820354FF4006732462946204638
:104120002760FCF71DF840B1012804D0F61D26F0E9
:1041300007060836D8E7361DD6E72846DAE7206AAC
:10414000BDE8F0812DE9F04106460024106875298C
:10415000314616A510D0AFF30080002802DA4042A5
:1041600013A507E031688A0701D512A502E04907C7
:1041700004D511A5012401E0AFF3008000210A223B
:1041800006F1240709E0B0FBF2FCB0FBF2F302FBFE
:104190001C00303078541846491C0028F3D12346BF
:1041A0002A463046BDE8F04100F0AFB800000000FC
:1041B0002D0000002B0000002000000070B5044618
:1041C0000D4621461068AFF300802188090502D50D
:1041D0000F4A7A4402E00E4A7A440E32002104F17A
:1041E000240305E000F00F060009965D5E54491CAB
:1041F0000028F7D120780023000704D5702D02D0C5
:1042000009B1022311322046BDE8704000F07DB8AC
:10421000D01E0000032A40F2308010F0030C00F0A2
:10422000158011F8013BBCF1020F624498BF11F8F0
:1042300001CB00F8013B38BF11F8013BA2F10402A9
:1042400098BF00F801CB38BF00F8013B11F0030321
:1042500000F02580083AC0F0088051F8043B083A85
:1042600051F804CBA0E80810F5E7121D5CBF51F827
:10427000043B40F8043BAFF30080D20724BF11F8A1
:10428000013B11F801CB48BF11F8012B24BF00F806
:10429000013B00F801CB48BF00F8012B704710B577
:1042A000203AC0F00B80B1E81850203AA0E818502E
:1042B000B1E81850A0E81850BFF4F5AF5FEA027CEF
:1042C00024BFB1E81850A0E8185044BF18C918C05E
:1042D000BDE810405FEA827C24BF51F8043B40F8FF
:1042E000043B08BF7047D20728BF31F8023B48BFE4
:1042F00011F8012B28BF20F8023B48BF00F8012B22
:10430000704770477047704770472DE9F0470D467A
:1043100099469246044600F124080168880604D5AF
:10432000E06921F01001216000E00120A84201DDD8
:10433000471B00E00027A1697A1902EB0900081A5F
:10434000A0612078C00602D42046AFF3008000268A
:1043500008E0D4E901211AF806009047206A401CC1
:10436000761C20624E45F4DB2078C0060AD5204634
:10437000AFF3008006E0D4E9012130209047206AA5
:10438000401C2062381EA7F10107F4DC07E0D4E9E5
:10439000012118F805009047206A401C2062281E61
:1043A000A5F10105F3DC2046AFF30080207800067C
:1043B00002D50220BDE8F0870120FBE770472DE918
:1043C000FF4F0C461E464FF0FF378BB0D2E900017D
:1043D000DDF860800A908A46C1F30A5505B93D466A
:1043E000002108464FF00000BAF1000F00F4400031
:1043F00005DA00EB80004FF4400101EA50004FEA7B
:104400009059B9F1010F00DDB9460A9850EA4A0007
:104410000ED044F61050A5F2FF3545432F14B8F1E5
:10442000000F1ED07542291E1EDDC9F100021CE0DE
:10443000B8F1010F4FF0000001D0302103E0F2434A
:1044400005E02154401CB042FBDB30460022002135
:1044500021540B99C1F80880C1E900200FB0BDE8D4
:10446000F08FBD1B6D1CDEE74A4600DA694206A8E4
:1044700000F066FA06AB93E8070003AB83E8070099
:1044800050460A9900F040FB8DE80700A0F5005067
:104490001F3800900398002D09DD42F21F014A46A3
:1044A000084403A90390684600F09FFD08E0A0F5CA
:1044B00000504A461F3803A90390684600F0A9FD42
:1044C0008DE807000004000C03D04FF0FF304108D6
:1044D00000E01046B8F1000F03D00022009215460C
:1044E0001EE0751E05D400F08DF9303262556D1E48
:1044F000F9D5B3460122084302D000227F1C04E014
:104500002078302801D100227F1E002A099786D00A
:104510001DE0112D07DA00F075F9303262556D1C7F
:1045200050EA0102F5D1084302D00098C8B10EE06C
:104530000021681E05E0235C625C63542254401E27
:10454000491C8142F7DBAB46A81B401E09900020A6
:1045500004F80B000B98099AC0F80880C0E9002BFA
:104560007CE711264FF0000859E72DE9F04F884607
:104570000446D21D22F0070191B0D1E90001CDE936
:104580000A0100F07CFE02460B98C00F01D02D20DE
:1045900007E02068810701D52B2002E0202101EAF5
:1045A000C000032A099001D0072A05DB03464146D3
:1045B000204600F085F90BE12078800601D5E069FE
:1045C00000E00620B8F1650F814606D0B8F1660F0D
:1045D00018D0B8F1670F70D131E00020B9F1110F98
:1045E000009001DB112301E009F101030AAA01A9EE
:1045F0000CA8FFF7E4FEDDE90C70002609F10105C7
:10460000834647E001204B4600904FF000470AAA3E
:1046100001A90CA8FFF7D3FEDDE90DB00C995D46AA
:10462000002610B909F101000D18B9EB050003D4FB
:10463000C0F1FF3609F10105A5EB09002BE0B9F146
:10464000010F01DA4FF001090020B9F1110F0090BC
:10465000484601DD112300E003460AAA01A90CA87F
:10466000FFF7ADFEDDE90C704D460026834620784D
:1046700000070AD4AB4500DA5D4601A8012D04DD30
:10468000411911F8011C302907D04F4502DA17F102
:10469000040F04DA012082460FE06D1EEEE7002FC2
:1046A00002DCED1B3E4403E0781CA84200DD7D1CCB
:1046B000B81B00F1010A4FF000472078000703D42F
:1046C000AA4501DB4FF0FF3A0021B7F1004F0DF191
:1046D00043088DF8431024D002202B23002F01DA49
:1046E0007F422D230A21021EA0F1010000DC5FB1F0
:1046F00097FBF1FC97FBF1F201FB1C7C17460CF1D8
:10470000300C08F801CDEEE7A8F101000370218814
:10471000090501D5452100E06521A0F1010800F857
:10472000011C09980FA9A1EB0807FF1D00B101208A
:10473000411901EBEA70A1693844081A401EA061D2
:104740002078C00602D42046AFF30080099828B133
:10475000D4E901219047206A401C20622078C006DD
:1047600022D52046AFF300801EE0002E04DBB345C7
:1047700002DD01A8805D00E03020D4E901219047EE
:10478000206A401C2062761CAAF101005FEA000A40
:104790000AD100F033F8C0680168405CD4E9012117
:1047A0009047206A401C2062281EA5F10105DCDC30
:1047B00007E0D4E9012118F8010B9047206A401C5A
:1047C0002062381EA7F10107F3DC2046AFF300801A
:1047D000032011B043E60000074B70B50D467B4443
:1047E00000F05BF80446284600F018F910B14FF0CD
:1047F000FF3070BD204670BDA3C2FFFF0048704768
:104800000405002030B5B0F10A024FEA900E71F1B4
:1048100000034EEA817EB0EB0E0061EB91014FEA9E
:10482000101E4EEA017E10EB0E0041EB11114FEA13
:10483000102E4EEA016E10EB0E0041EB11214FEAF3
:10484000104E4EEA014E10EB0E0041EB11414018A4
:1048500041F100014FEAD00040EA41704FEAD10136
:1048600010EB80054FEA810444EA907444EB0104A4
:104870006D1944EB0404521BA3414FF0000348BFE1
:104880000A3200D530BD401C41F1000130BD0000AE
:1048900001694A1C02610878704700B58FB0CDE904
:1048A00001310021059105497944CDE903101146F4
:1048B0006846FFF713FC0FB000BD0000E5FFFFFFE7
:1048C0002DE9F0411F46044603260168072A01F43A
:1048D000006004DB08B116A505E016A503E008B1E9
:1048E00015A500E015A521F010002060A069C01EEC
:1048F000A0610FB1401EA0612046AFF300804FB110
:10490000D4E9012138469047206A401C2062C01C2F
:10491000206206E0206AFAE7D4E9012115F8010BCC
:104920009047761EF8D22046AFF30080BDE8F081B4
:104930004E414E006E616E00494E4600696E660043
:104940002DE9F047814616468AB0334878440DC8B1
:104950008DE80D0030487844801C03AC0DC884E815
:104960000D0041F69B300844372190FBF1F290FB9B
:10497000F1F5A5F1800501FB12041B3C02D5644250
:10498000012000E00020DFF890A080460027FA44D4
:10499000AAF1BE0A0DE0E00709D03246684607EBEF
:1049A00047010AEB810100F034FB8DE80700641039
:1049B0007F1C002CEFD1184F7F44AC3F18E0E80774
:1049C00014D007EB04100DF1180A90E80E008AE8E5
:1049D0000E00C068F04201D198190890324606A92D
:1049E00003A800F016FB03AB83E807006D10641CFE
:1049F000002DE4D132466946B8F1000F03A802D079
:104A000000F0F3FA01E000F004FBC9E90001C9F885
:104A100008200AB0BDE8F087FC170000007B00F01A
:104A20008000704700487047E40400207546FFF797
:104A3000F9FFAE4605006946534620F0070085465B
:104A400018B020B5FBF768FCBDE820404FF0000629
:104A50004FF000074FF000084FF0000B21F0070166
:104A6000AC46ACE8C009ACE8C009ACE8C009ACE8A9
:104A7000C0098D46704710B50446AFF3008020464C
:104A8000BDE81040FBF78CBB4FF0013C50F8042B05
:104A900051F8043B9A4221D1A2EB0C03934313EA51
:104AA000CC1317D150F8042B51F8043B9A4215D17E
:104AB000A2EB0C03934313EACC130BD150F8042B55
:104AC00051F8043B9A4209D1A2EB0C03934313EA39
:104AD000CC13DBD04FF00000704700BFD01A01BAF2
:104AE000B1FA81F101F0180122FA01F0CB40C1F1D5
:104AF0002001DBB2C0B2C01A2CFA01F3D11A9143E3
:104B000011EAC311E6D170475FEA400C08BF91F08B
:104B1000000F4FEA8C234FEAC12243EA51514FEA7A
:104B20001C5018BF00F5F0404FEA300018BF41F0AC
:104B300000415FEA6C5C00F02980BCF1FF3F08BFD8
:104B400040F080407047130C06BF12044FF0100C69
:104B50004FF0000C130E04BF12020CF1080C130FDF
:104B600004BF12010CF1040C930F04BF92000CF16E
:104B7000020CD30F04BF52000CF1010C11464FF090
:104B80000002A0F11F00A0EB0C00704711F0004FD5
:104B900008BF704731F000413FF4D5AF0B0C06BFA2
:104BA00009044FF0100C4FF0000C0B0E04BF09026B
:104BB0000CF1080C0B0F04BF09010CF1040C8B0F56
:104BC00004BF89000CF1020CCB0F04BF49000CF1AB
:104BD000010CCCF12003A0EB0C0022FA03F302FA43
:104BE0000CF241EA030100F10100704720F07F4C14
:104BF00080EA030023F07F47ACEB070303F57C5307
:104C000000F0004003F1FF032DE980494FEA154B06
:104C100009B44FEA144325EA0B4E24EA03480FF285
:104C2000042606EB132749083E785FEA320203FBAD
:104C30000667C7F5000707FB06F64FEA54374FEA49
:104C4000D64606F1020607FB066CCCF1005C4FEA83
:104C50001C472CEA074C07FB06F40CFB06F504EB9B
:104C600015464FEA961634BF00204FF000404FEA39
:104C7000D13706FB07FC4FEA1C4C0CFB0BF7D21B91
:104C800003FB0CF761EB07010CFB0EF7B0EB0740E1
:104C900072EB17420CFB08F734BFA2EB0742B2EBF2
:104CA000074261EB17414FEA0C444FEA910706FBBC
:104CB00007FC4FEA1C4C0CFB0BF7B0EBC74072EB48
:104CC000573203FB0CF734BFA2EBC742B2EBC7422B
:104CD00061EB57310CFB0EF7B0EBC70072EB57726C
:104CE0000CFB08F734BFA2EBC702B2EBC70261EBC3
:104CF0005771039F4FEA816141EA921104EBCC04A2
:104D00004FEAD1374FEA826206FB07FC42EA901273
:104D10004FEA80604FEA1C4C0CFB0BF7D21B03FBE5
:104D20000CF761EB07010CFB0EF7B0EB074072EBE1
:104D300017420CFB08F734BFA2EB0742B2EB074265
:104D400061EB17414FEA8C554FEA910704EB9C2425
:104D500006FB07FC4FEA1C4C0CFB0BF7B0EBC74003
:104D600072EB573203FB0CF734BFA2EBC742B2EB36
:104D7000C74261EB57310CFB0EF7B0EBC70072EB8B
:104D800057720CFB08F734BFA2EBC702B2EBC702A5
:104D900061EB577115EB4C254FEA816141EA9211A5
:104DA0004FEA82624FEAD13742EA901206FB07FCD3
:104DB00044F100044FEA80604FEA1C4C0CFB0BF7F7
:104DC000D21B03FB0CF761EB07010CFB0EF7B0EBFA
:104DD000074072EB17420CFB08F734BFA2EB074207
:104DE000B2EB074261EB174115EB1C154FEA81311D
:104DF00041EA92414FEA823242EA90424FEA8030E1
:104E00004FEA0C7644F1000448EA03434EEA0B48AB
:104E10004FF0000EB2EB080C71EB030724BF6246A3
:104E200039464EEB0E0E4FF0000B0018524149412F
:104E30004BEB0B0BB2EB080C71EB03077BF1000B98
:104E400024BF624639464EEB0E0E4FF0000B0018A1
:104E5000524149414BEB0B0BB2EB080C71EB0307D2
:104E60007BF1000B24BF624639464EEB0E0E51EA31
:104E7000020718BF46F0010616EB0E7655F1000248
:104E800054F1000103D5BDE88901BDE80088BDE803
:104E90008901BDE80048B619524141EB0101A3F177
:104EA0000103704780807F7E7D7C7B7A797877767E
:104EB00076757473727171706F6E6E6D6C6C6B6AF7
:104EC0006A69686867666665646463636261616095
:104ED000605F5F5E5E5D5D5C5C5B5B5A5A59595812
:104EE000585757565655555554545353525252517C
:104EF000515050504F4F4F4E4E4D4D4D4C4C4C4BD2
:104F00004B4B4A4A4A494949484848474747474618
:104F10004646454545444444444343434342424254
:104F200042414141002B26D4770021D01CB54FEAE5
:104F3000370703B44FF010004FF010014FF000009E
:104F40000FBCBDE810400BF1010BBBF1010F08BF16
:104F50005FEA170722BF12F1010211F101014FF0C0
:104F6000004143F1000300F0004043EA00007047B5
:104F7000F9D35708DAE746EA064613F1400F4FEA3D
:104F800016461FDD13F1200FDFBF16430A4600212E
:104F900020335B42C8D0C3F1200746EA064602FA36
:104FA00007F74FEA164646EA0706C3F1200722FA3A
:104FB00003F201FA07F721FA03F14FF0000342EA86
:104FC0000702B1E746EA020646EA06464FEA1646F7
:104FD00046EA0106BCBF46EA0646360C4FF000031F
:104FE0004FF000024FF000019EE72DE9C0489346C4
:104FF00030B491E8380007C831EA400C48BF34EAC1
:10500000430C03D5FFF7F2FDFFF78CFFF0BCBDE8C2
:1050100000882DE9C048934630B491E8380007C8AD
:1050200010F0804F08BF13F0804F03D100F005F857
:10503000FFF778FFF0BCBDE8008820F07F4780EAEA
:10504000030023F07F4C07EB0C03A3F57C5300F027
:105050000040A3F1FE0392F0000F00F0B38095F042
:10506000000F00F077802DE901494FEA11404FEA27
:10507000144621EA004800FB06FC24EA064708FB28
:1050800006F607FB08F800FB07F718EB06484CEBA1
:10509000164C4FEA124B18EB07484FEA15464CEBFB
:1050A000174022EA0B4E0BFB06FC25EA06470EFBD7
:1050B00006F607FB0EFE0BFB07F71EEB064E4CEB4E
:1050C000164C4FF000061EEB074E4CEB174B18EB3F
:1050D0000B0840F1000018EB0E0B58EB000840F1F4
:1050E00000008F1A4FF000013CBFC943661B14BF7C
:1050F000B5EB040C00213CBFC943F61B4FEA174433
:105100004EEA8E0E27EA04454FEA1C4704FB07626D
:105110002CEA074C05FB07F70CFB05F604FB0CFC1F
:1051200016EB074642EB174216EB0C4642EB1C42CD
:105130001BEB060658EB0202414146EA9E0601D5EA
:10514000BDE80189B619524141EB0101A3F1010308
:10515000BDE801894FEA14454FEA114724EA0546A4
:1051600021EA074C05FB07F406FB07F70CFB06F1E9
:1051700005FB0CFC11EB074144EB17444FEA1247C7
:1051800011EB0C4144EB1C4422EA074C05FB07F2EF
:1051900006FB07F70CFB06F605FB0CFC16EB0746B7
:1051A00042EB174216EB0C4642EB1C456A1854F1D1
:1051B000000148BF7047B619524141EB0101A3F10C
:1051C0000103704795F0000F37D04FEA11424FEAC4
:1051D000144721EA024624EA074C02FB07F106FBCA
:1051E00007F70CFB06F402FB0CFC14EB074441EB45
:1051F00017414FEA154714EB0C4441EB1C4125EADB
:10520000074C02FB07F506FB07F70CFB06F602FB53
:105210000CFC16EB074645EB174516EB0C4645EB29
:105220001C42121951F1000148BF7047B619524192
:1052300041EB0101A3F1010370474FEA14454FEA26
:10524000114724EA054621EA074C05FB07F106FB56
:1052500007F70CFB06F24FF0000605FB0CFC12EB07
:10526000074241EB174112EB0C4251EB1C4148BF86
:105270007047921841EB0101A3F101037047490007
:1052800050EAC12018BF04204A0D18BF40F00100A9
:1052900040F2FF72B2EB515F08BF40F002000128FC
:1052A00008BF05207047000010B500290AD0087813
:1052B000002807D005487844FFF7E6FB002801D016
:1052C000002010BD0248784410BD0000CE0E000042
:1052D000C60E000021F00042A2F16052B2F5801F1C
:1052E00001F0004328BFD2F17F6C0BD95FEA001CAC
:1052F00043EAC20242EB507018BF704728BF20F04B
:1053000001007047B2F5801FBCBF184670474FEAD6
:10531000410C1CF5001F02D2084600F0D8BD70B544
:1053200000F0C8FA00000089FFF7F6BF4FF0004018
:10533000A0F580007047000010B591EA030F48BF48
:1053400083F0004300F11E83841A71EB030C05D235
:10535000121943EB0C03001B61EB0C01DFF824E195
:105360004FEA1154A4EB135C1EEA430F18BF9EEAE8
:10537000445F73D023EA0E03DCF1200E21EA0451CE
:1053800043F4801332D322FA0CFE10EB0E0023FA02
:105390000CFE41EB0E01CCF1200E03FA0EFE10EBD9
:1053A0000E0051F10001B1F5801FCCF1200E32D278
:1053B00001EB045112FA0EF2BDE8104058BF7047DD
:1053C000401C38BF5FEA420218BF7047002814BF74
:1053D00020F0010041F100014FEA410313F5001FE5
:1053E00038BF7047A1F1C04100F0B2BA012A43EBC7
:1053F0000302ACF1200CDCF11F0E32BF4FF0000EA7
:1054000023FA0CF310EB030041EB0451B4EB115FF2
:10541000D0D0A1EB045101F5801149085FEA3000BA
:1054200001EB04510ED350F1000038BF12FA0EFE0A
:1054300008D1BDE81040C9E7401C38BF5FEA42020E
:10544000CAD1C3E7BDE810404FEA410313F5001F7E
:1054500038BF7047A1F1C04100F07ABA9EEA445FBC
:1054600008D011EA5E0FBDE8104004BF01F0004112
:1054700000207047BDE8104070B500F01BFA00BF77
:1054800064FBBE3E0000E0FF2DE9C04130B4DFF810
:10549000A0C23CEA111418BF3CEA131400F0EC80DF
:1054A00081EA03051CEA111444EAD57418BF1CEA0A
:1054B000131500F0C780A4EB05044FF0004545EA42
:1054C000C12145EAC32341EA505143EA525304F152
:1054D0007F74994204F500344FEAC0204FEAC2229B
:1054E00008BF904200F09C804FEA13650FF240160F
:1054F000765D4FEA134506FB05F7C7F1807706FB9B
:1055000007F74FEAD737A7FB03687642C8F580381C
:10551000A7FB06CE38BFA8F1010807FB08E64FF04D
:10552000000EA6FB028CE6FB03CEDCF1000CCEF1F4
:10553000004E38BFAEF1010EA6FB0C584FF000072D
:105540004FF00005E6FB0E87A1FB08C6A0FB07CEC7
:1055500016EB0E0645F10005E1FB076515F1E04E7F
:105560007EBFA4F580345FEA46066D4116F18007E0
:1055700045F100054FEA17274FEA066647EA056737
:10558000A6F1DE46B6F1805F4FEA15251FD93846F1
:1055900024F0010C05EBC471BCF1FE6F01EB0C11A2
:1055A00002D8F0BCBDE8008124425CBF01F5801E3A
:1055B0009EEAC47F02D4F0BCBDE80081244238D406
:1055C000F0BCA1F1C041BDE8004100F0C1B94FEA13
:1055D000D22242EA43524FEAD323A7FB02864FEA84
:1055E000D02040EA415007FB03661EEA0E0F4FEA47
:1055F000D12105FB026658BFA6EB0056B6EB00565C
:105600004FEA520E4EEAC37E18EB0E0E56EB530EC7
:10561000BDD518EB02085E417F1C55F10005B6E7C9
:105620004FF480154FF000074FF000064FF00008D0
:10563000ADE7F0BC4FF0000001F1C04101F00041C6
:10564000BDE8008111EA0C1F0CEA131500D00CE034
:1056500013EA0C1F00F025804FF00000F0BC81EA37
:10566000030101F00041BDE80081F0BCBDE800414C
:1056700081EA030100F06CB9F0BCBDE8004170B5EF
:1056800000F018F9097EFC3E00F007B881EA03013A
:105690004FF0000001F00041704781EA030100F083
:1056A00057B9F0BCBDE800414FF0000021497047F8
:1056B000FFFDFBF9F7F5F4F2F0EEEDEBE9E8E6E4D7
:1056C000E3E1E0DEDDDBDAD8D7D5D4D3D1D0CFCD5E
:1056D000CCCBCAC8C7C6C5C4C2C1C0BFBEBDBCBB97
:1056E000BAB9B8B7B6B5B4B3B2B1B0AFAEADACAB92
:1056F000AAA9A8A8A7A6A5A4A3A3A2A1A09F9F9E6C
:105700009D9C9C9B9A99999897979695959493931D
:10571000929191908F8F8E8E8D8C8C8B8B8A8989B4
:105720008888878786858584848383828281818037
:105730000000FF070000F87FB0FA80F310FA03F1D1
:105740000AD0C3F11D0303F580634FEA41504FEACD
:10575000035202EBD12170474FF000007047000068
:10576000DFF848C170B51CEA111E1EBF1CEA1315F4
:105770009EEA0C0F95EA0C0F00F06F8081EA03049B
:1057800023EA4C134EEAD47E21EA4C1141F48011F5
:1057900043F48013AE44A1FB024CA0FB0365AEF1C1
:1057A0007F7E361955EB0C05A1FB034C4CF1000331
:1057B000A0FB021C16EB0C06654153F100030942E5
:1057C00018BF46F0010613F4007F0BD14FEA0331F6
:1057D0004FEA0530340341EA155140EA16506FF0A4
:1057E00003020AE04FEAC3214FEAC520F40241EA6E
:1057F000555140EA56506FF0020202EB2E4201EB87
:10580000025585EACE710AD05FEA440C18BF24F035
:10581000004450F1000041F1000120EAD47040F250
:10582000FE7C624500D270BDA84214BF4FF0804498
:105830004FF04044002E08BF0024BEF1806FA8BF87
:10584000A1F1C041BDE8704080F282804FF00000BD
:1058500001F1C04101F0004170479EEA0C0F0CEAD3
:10586000131518BF95EA0C0F06D04FF0000081EA1F
:10587000030E0EF0004170BD00F01CF88900013EDF
:1058800000F007B800F009B84FEA430C5FEA5C5C2F
:1058900008D081EA030100F05BB84FEA410C5FEAEF
:1058A0005C5CF6D14FF00000014970470000FF0733
:1058B0000000F87F0EF1020E2EF0030E5EF8046B6E
:1058C000364205D4012A43EB030515F5001F12D813
:1058D000012841EB010C1CF5001F0CD80ED14FEA3A
:1058E000D17C15F5001F0CEB4C0C0CF1020C08BF21
:1058F0004CEBD37C04E04FF0080C01E04FEAD37C82
:105900000CEB4C0526FA05F606F00706B6F1040C7A
:1059100006D20EEB860CBDE870404CF0010C6047DF
:10592000DFE80CF0090B02024FF000414FF00000DD
:10593000A1F5002170BD19461046012851EB010464
:1059400018BFD4F5001484BF002001F0004170BDE1
:105950000808A0F500114FEA3101704791EA030FE2
:1059600010B581F000413FF5EFAC83F0004300F04B
:1059700009B8000010B591EA030F48BF83F0004357
:105980003FF5E2AC841A71EB030C07D212198CF0CC
:10599000004C43EB0C03001B61EB0C01DFF8A4E1AE
:1059A0004FEA1154A4EB135C1EEA430F18BF9EEAA2
:1059B000445F00F0B08023EA6E03524221EA0451B2
:1059C000C3EB6E0338BF5B1EDCF1200E25D322FA39
:1059D0000CFE10EB0E0043FA0CFE41EB0E01CCF175
:1059E000200E03FA0EFE10EB0E0051F10001CCF177
:1059F000200E29D412FA0EF201EB0451BDE810403A
:105A000058BF7047401C1CBFB2F1004F70470028C0
:105A10000CBF491C20F00100704712EB020E43EB53
:105A2000030218BF4FF0010E4EEA4202ACF1200C07
:105A3000DCF11E0E54D943FA0CFE10EB0E0051F1AE
:105A4000FF31CCF11E0ED5D50EF1010E12FA0EFE6D
:105A5000404141EB010101EB445C5FEA5C5C10D921
:105A600010EBDE7001EB045138BFBEF1004FBDE812
:105A7000104018BF704700280CBF491C20F00100DF
:105A8000704730D24FEAD42C11F5001124F4006491
:105A90001BD0B1FA81F20B3AA41AA41ED2F1200352
:105AA000914030FA03F31943904001EBCC71002C84
:105AB00001EB0451BDE81040A8BF704701F1C0419F
:105AC0004FF0000001F000417047B0FA80F310FA87
:105AD00003F100D110BDE41A173C4805C90AE4E7F8
