:020000040800F2
:10000000780C002075030008511F0008531F0008DA
:10001000571F00085B1F00085F1F0008000000005A
:10002000000000000000000000000000631F000846
:10003000651F000800000000671F0008831F0008FC
:100040008F0300088F0300088F0300088F03000848
:100050008F0300088F0300088F0300088D1000082D
:100060008F030008AF1000088F0300088F030008FB
:100070008F0300088F0300088F0300088F03000818
:100080008F0300088F0300088F0300088F03000808
:100090008F0300088F0300088F030008CD100008AD
:1000A0008F0300088F0300088F0300088F030008E8
:1000B0008F030008B9050008390500088F03000800
:1000C0008F0300088F0300088F0300088F030008C8
:1000D0008F030008010C00088F0300088F0300083D
:1000E0008F0300088F0300088F03000800F002F858
:1000F00000F042F80AA090E8000C82448344AAF180
:100100000107DA4501D100F037F8AFF2090EBAE87D
:100110000F0013F0010F18BFFB1A43F0010318473B
:10012000AC5B0000CC5B0000103A24BF78C878C1FB
:10013000FAD8520724BF30C830C144BF04680C60ED
:10014000704700000023002400250026103A28BF35
:1001500078C1FBD8520728BF30C148BF0B60704739
:10016000642904F0B184782904F0E8840020704701
:100170001FB51FBD10B510BD04F00EFE1146FFF7F0
:10018000F7FF01F015FE04F02CFE03B4FFF7F2FFB9
:1001900003BC00F057FC00000CB50020019000905B
:1001A0006B48006840F480306949086000BF6848C7
:1001B000006800F4003000900198401C0190009805
:1001C00018B90198B0F5A06FF1D16148006800F44A
:1001D000003010B10120009001E000200090009854
:1001E000012841D15B48006840F01000594908607F
:1001F0000846006820F0030008600846006840F0E8
:10020000010008605248406851494860084640680B
:1002100048600846406848600846406820F47C1002
:1002200048600846406840F4F81048600846006896
:1002300040F08070086000BF4548006800F0007022
:100240000028F9D04248406820F003004049486047
:100250000846406840F00200486000BF3C484068E3
:1002600000F00C000828F9D10CBD10B5FFF794FF81
:1002700010BD10B53648006840F0010034490860F0
:1002800008464068344908403149486008460068DB
:10029000324908402E4908600846006820F4802052
:1002A00008600846406820F4FE0048604FF41F00D4
:1002B0008860FFF7DAFF4FF000602949086010BD41
:1002C00010B5002100200022214B5B6803F00C01D7
:1002D00021B1042906D0082928D107E0214B224C5E
:1002E000236027E01F4B204C236023E0184B5B6802
:1002F00003F47010164B5B6803F48032022303EBA7
:10030000904022B9194B4343174C23600DE0104B2A
:100310005B6803F4003323B1144B4343124C236056
:1003200003E0104B4343104C236003E00D4B0E4C95
:10033000236000BF00BF064B5B68C3F303130C4C84
:10034000E15C094B1B68CB40074C236010BD0000EB
:1003500000100240002002400000FFF8FFFFF6FE00
:1003600008ED00E000127A000000002000093D00C6
:10037000040000200948804709480047FEE7FEE7DF
:10038000FEE7FEE7FEE7FEE7FEE7FEE7FEE7FEE745
:1003900004480549054A064B7047000073020008EF
:1003A000ED00000878060020780C00207808002076
:1003B0007808002070B5044601F0E9FD054600BF4D
:1003C00001F0E5FD401B04EB4401C1EBC411B0EBAF
:1003D000C10FF5D370BD70B5044601F0D8FD0546D8
:1003E00000BF01F0D4FD401BA042FAD370BD000055
:1003F00070B505460C46012D0BD124B101034848C8
:1004000002F0BFF838E04FF48051454802F0BBF8E5
:1004100032E0022D0AD124B11021424802F0B1F895
:100420002AE010213F4802F0AEF825E0032D0AD162
:1004300024B120213B4802F0A4F81DE020213948D6
:1004400002F0A1F818E0042D0AD124B1402135486A
:1004500002F097F810E04021324802F094F80BE0E7
:10046000052D09D124B180212E4802F08AF803E03D
:1004700080212C4802F087F870BD10B52A488069A9
:1004800040F00400284988610846806940F008006F
:1004900088610846806940F0010088612048001D9D
:1004A000006820F470201E49091D08600846006895
:1004B00040F4403008601A480C30006840F4805026
:1004C00017490C3108601748006880B21549086068
:1004D00008460068154908431249086011480C3065
:1004E000006840F0F0000F490C3108601048406887
:1004F00040F000700E49486001200E49087009E084
:1005000000210C480078FFF773FF0A480078401C70
:1005100008490870074800780528F1DD10BD000083
:1005200000080140000C014000100240000033337D
:10053000000001401400002010B50121724803F0B2
:100540008CF9002837D071480088401C80B26F4970
:100550000880642804D10020088001206C490880AC
:100560006C480088401C80B26A490880142804D175
:100570000020088001206849088068480088401CE5
:1005800080B2664908800C2804D100200880012030
:100590006349088063480088401C80B26149088034
:1005A0000A2804D10020088001205F490880012129
:1005B000554803F063F910BD1CB501215B4803F0F9
:1005C0004CF9002827D05A4801885AA004F03CFA78
:1005D0005B4801885BA004F037FA5E4801885EA0A2
:1005E00004F032FA6048018860A004F02DFA6248F5
:1005F000007861494978CDE900105F488378C27876
:1006000001795EA004F020FA64A004F01DFA012133
:10061000464803F033F91CBD3EB505460C460121A2
:10062000042002F0CAF9384802F01EFAA0B2ADF870
:100630000400681E80B2ADF800000020ADF806008E
:10064000ADF802006946304802F0E2FA01212E4876
:1006500003F000F9012211462B4802F050FE01215F
:10066000294802F031FE51A004F0EEF93EBD3EB53E
:1006700005460C460121022002F09FF92B4802F0AA
:10068000F3F9A0B2ADF8040048F69F40ADF80000C1
:100690000020ADF80600ADF802006946234802F0DC
:1006A000B7FA0121214803F0D5F8012211461F486D
:1006B00002F025FE01211D4802F006FE42A004F0D2
:1006C000C3F93EBD08B54FF4A06001F0DFFD1D2069
:1006D0008DF8000002208DF8010000208DF8020046
:1006E00001208DF80300684601F0D5FD1E208DF82D
:1006F000000001208DF801008DF802008DF8030044
:10070000684601F0C8FD08BD000800401600002042
:100710001E00002018000020200000201A000020E9
:10072000220000201C0000202400002000040040C3
:1007300066000020746872202D2D3E25640D0A008D
:100740006A0000207069746368202D2D3E25640DB9
:100750000A00000068000020726F6C6C202D2D3E96
:1007600025640D0A000000006C00002079617720EC
:100770002D2D3E25640D0A003200002072656D6F3C
:1007800074652061646472202D2D3E3078257825B3
:10079000782578257825780D0A0000002D2D2D2D3F
:1007A0002D2D2D2D2D2D2D2D2D0D0A0054696D650E
:1007B00072203420696E6974207375636365737386
:1007C0002E2E2E0D0A00000054696D657220332014
:1007D000696E697420737563636573732E2E2E0DB5
:1007E0000A00000010B58B488B4948608B48486070
:1007F0008BA004F029F910BD8748006940F0800003
:100800008549086170478448C16801F0010008B15A
:100810000120704701F0040008B10220F9E701F05F
:10082000100008B10320F4E70020F2E770B5044699
:1008300000BFFFF7E8FF0546012D00D006E00120CC
:10084000FFF7C9FD601E84B2002CF2D100BF04B9CD
:10085000FF25284670BD70B50546002445F6FF709B
:10086000FFF7E4FF0446C4B96B48006940F002009A
:100870006949086108464561006940F04000086127
:1008800045F6FF70FFF7D2FF0446012C05D0624801
:10089000006920F0020060490861204670BD70B513
:1008A00005460E46FF20FFF7C1FF044694B95A489B
:1008B000006940F00100584908612E80FF20FFF7D1
:1008C000B5FF0446012C05D05348006920F0010013
:1008D00051490861204670BD0146088870472DE9DE
:1008E000F04105460E461746002407E036F814107E
:1008F0002846FFF7D4FFAD1C601C84B2BC42F5DB78
:10090000BDE8F08130B503460C461546002207E0ED
:100910001846FFF7E1FF24F812009B1C501C82B21E
:10092000AA42F5DB30BD2DE9F05F80468A461746C6
:10093000B8F1006F02D34148804501D3BDE8F09F74
:10094000FFF750FFA8F1006B4FEA9B25CBF3480956
:10095000C9F50074A74200DC3C464DE04FF0006151
:1009600001EB85208A143649FFF7CCFF00260BE007
:1009700009EB0600324931F810004FF6FF7188424A
:1009800000D003E0701C86B2A642F1DB00BFA64295
:100990001BDA4FF0006101EB8520FFF75CFF0026BA
:1009A00008E03AF8160006EB0901254A22F8110082
:1009B000701C86B2A642F4DB4FF0006101EB85208B
:1009C0008A141F49FFF78BFF04E022465146404638
:1009D000FFF785FFA74200D10FE06D1C4FF0000923
:1009E0000AEB440AA044381B87B2B7F5007F02DD4A
:1009F0004FF4007400E03C46B0E700BFFFF7FCFE98
:100A000000BF9BE713B50446012201A92046FFF76A
:100A10008AFF1CBD2301674500200240AB89EFCD52
:100A2000466C61736820756E6C6F636B20737563C1
:100A3000636573732E2E2E0D0A000000000001085E
:100A4000CC000020014600BF704700BF844A1288D6
:100A500002F04002002AF9D0C2B2814B1B1D1A805D
:100A6000704708B525208DF8000002208DF80100A0
:100A700000208DF8020001208DF80300684601F087
:100A80000AFC08BD2DE9F05F05460E46300104F072
:100A9000A9FF8146734905FB01F004F0A3FF8246DC
:100AA000494604F0A1FE0746384604F07BFF84B2B5
:100AB000204604F097FF8346394605F073F88246D6
:100AC0004FF0834104F0A2FF814604F06BFF8046A3
:100AD0004FF6FF7000EA041404EB080084B2624889
:100AE000806940F00400604988610846806940F4EC
:100AF000804088615D48006820F47F605B49086041
:100B00000846006840F40B6008605748C06840F42D
:100B100080405549C8600846C06820F48040C860DD
:100B20004F4808300480001D008842F20C01084341
:100B30004B490C3108800846008840F480700880DA
:100B40000846008840F020000880FFF78AFF002058
:100B50004749088048807F20888046488860002078
:100B60004549088048807F2088804448886029461D
:100B700043A003F069FF314649A003F065FFBDE8DB
:100B8000F09F028883881A40836899540288521C17
:100B90000280704710B5044621463548FFF7F1FF43
:100BA000012240F227712E4802F047FF10BD014696
:100BB0004A888B881A408B68985C4A88521C4A8005
:100BC0007047014608884A88801A8A881040704712
:100BD00001884180704770B504460D46002606E046
:100BE00021782348FFF7CDFF641C701CC6B2AE42CB
:100BF000F6DB012240F22771194802F01EFF70BD9A
:100C000010B540F22771164802F0FCFF90B1184869
:100C1000FFF7CDFF04462146114802F06FFF14484C
:100C2000FFF7CFFFD8B9002240F227710C4802F03D
:100C300004FF14E040F22551094802F0E3FF70B1CF
:100C400040F22551064803F007F8054802F05AFF24
:100C50001A490870084601780748FFF792FF10BD4F
:100C60000038014040420F000010024004080140DB
:100C7000CC04002064050020D8040020E4040020F7
:100C80004D435520636C6F636B20667265717565AB
:100C90006E63793A25644D487A200D0A0000000001
:100CA000554152542031206261756420667265712D
:100CB00075656E63793A2564200D0A002C000020CA
:100CC0009D48806940F004009B498861084680691E
:100CD00040F008008861994800686FF30B0097495D
:100CE00008609748006820F00F0095490860924816
:100CF000806940F40070904988610846C06840F4FB
:100D00000070C8600846C06820F40070C8600846DB
:100D1000406820F4404048600846406840F4004085
:100D20004860884800688849084086490860084645
:100D3000006808600846006820F480700860081D9C
:100D4000006820F00200091D08600846006820F4D1
:100D5000602008600846006840F46020086008468B
:100D6000006840F4801008600846006820F40060C5
:100D700008600846006840F40000086071482830A8
:100D8000006820F470006F49283108600846006848
:100D9000002008606B480C30006820F0380069497A
:100DA0000C3108600846006840F038000860081FF1
:100DB000006820F4E010091F08600846006840F44D
:100DC000E0100860081F006840F00100091F08607B
:100DD0000846006840F00800086000BF5948001D40
:100DE000006800F008000028F8D15648001D00688F
:100DF00040F004005349091D086000BF5148001D20
:100E0000006800F004000028F8D1704701464D4802
:100E10003030006820F01F004A4A3032106010461F
:100E20000068084310604748001D006840F48000D7
:100E3000444A121D106000BF4248001F006800F0C5
:100E400002000028F8D03F484830006880B2704760
:100E500070B506460B460024002505E03046FFF736
:100E6000D5FF0444681CC5B29D42F7DBB4FBF3F028
:100E700080B270BD2DE9FE4F0024A14608E010208D
:100E8000FFF7C4FF204484B209F1010000F0FF091C
:100E9000B9F1140FF3DB142094FBF0F084B2204678
:100EA00004F0A0FD824604F011FC07464FF06632C4
:100EB000264B04F017FA054603F09EFF02900298B5
:100EC00004F004FC0546224A224B04F009FB0746C5
:100ED000214A224B04F06AF80022214BCDE900019F
:100EE00003F0BCFF824603F087FF02901D49029881
:100EF00004F08CFD0290029804F038FDBDE8FE8FEE
:100F00002DE9F0470F210820FFF7A2FF814604F0EA
:100F100069FD044604F0DAFB07464FF066320B4BDE
:100F200004F0E0F9054603F067FFBDE8F08710B56F
:100F3000FFF7E6FF044610BD001002400008014024
:100F4000000C014004240140FFFFF00066664A3FA8
:100F5000E17A14AE47E1F63F22FDF675E09C713F61
:100F600000003940000020411FB501210D2001F093
:100F700017FD07208DF8080004208DF809000020D7
:100F80008DF80A0001208DF80B0002A801F083F90A
:100F900009208DF8080005208DF8090000208DF843
:100FA0000A0001208DF80B0002A801F074F9172047
:100FB0008DF8080006208DF8090000208DF80A0041
:100FC00001208DF80B0002A801F065F90220ADF8B0
:100FD0000C0048208DF80F0003208DF80E0003A9A7
:100FE000454801F021FA0820ADF80C0048208DF8A2
:100FF0000F0003208DF80E0003A93F4801F014FAFA
:101000004FF48070ADF80C0048208DF80F000320DD
:101010008DF80E0003A9394801F006FA01210846AF
:1010200001F018FB0220009000208DF804000C2035
:101030008DF8050001208DF80600684602F0BAFF21
:101040000321012001F006FB0820009000208DF80C
:1010500004000C208DF8050001208DF8060068467C
:1010600002F0A8FF0821002001F0F4FA4FF480708C
:10107000009000208DF804000C208DF80500012060
:101080008DF80600684602F095FF1FBD10B50220DE
:1010900002F0F6FF50B15A201949087019A003F068
:1010A000D3FC00F0D3F9022002F0FBFF10BD10B515
:1010B000082002F0E5FF40B101201749087017A091
:1010C00003F0C2FC082002F0ECFF10BD10B54FF495
:1010D000807002F0D5FF70B11548007808B9012082
:1010E00000E000201249087012A003F0ADFC4FF49C
:1010F000807002F0D6FF10BD000C014000080140D6
:10110000780000206B6579206D6F646520707265D2
:1011100073732E2E2E0D0A00760000206B65792049
:101120006164642070726573732E2E2E0D0A0000A8
:10113000770000206B65792073756220707265738B
:10114000732E2E2E0D0A000000B587B00121042059
:1011500001F026FC0121082001F022FC01210803F6
:1011600001F01EFCE020ADF8040001208DF806001F
:1011700018208DF8070001A9314801F055F94FF406
:101180000040ADF8040001208DF8060010208DF815
:10119000070001A92A4801F047F91020ADF8040022
:1011A00001208DF8060010208DF8070001A92448C1
:1011B00001F03AF91021224801F0E3F90020ADF8DE
:1011C00008004FF48270ADF80A000020ADF80C0062
:1011D000ADF80E00ADF810004FF40070ADF812003D
:1011E0001020ADF814000020ADF816000720ADF86F
:1011F000180002A9134802F06FFD0121114802F006
:1012000010FE11A003F020FC07B000BD10B504468D
:1012100000BF02210B4802F088FE0028F9D02146C9
:10122000084802F02FFE00BF0121064802F07DFEB3
:101230000028F9D0034802F027FEC0B210BD00001C
:10124000000801400030014053504920627573206E
:10125000696E697420737563636573732E2E2E0D2A
:101260000A00000070B50446002504F01F04102198
:10127000FE4801F088F92046FFF7C8FF0020FFF77D
:10128000C5FF05461021F94801F07BF9284670BDDD
:1012900070B504460D46164605F01F051021F348AB
:1012A00001F071F92846FFF7B1FF04E00020FFF7D5
:1012B000ADFF04F8010B3000A6F10101CEB2F5D16B
:1012C0001021EA4801F05DF970BD70B504460D4685
:1012D00004F01F0444F020041021E44801F053F905
:1012E0002046FFF793FF2846FFF790FF1021DF48C5
:1012F00001F047F970BD2DE9F04104460D46164650
:101300002F4604F01F0444F020041021D74801F0B8
:101310003AF92046FFF77AFF03E017F8010BFFF7D1
:1013200075FF3000A6F10101CEB2F6D11021CF48F1
:1013300001F027F9BDE8F08170B504461021CB48D3
:1013400001F021F92046FFF761FF05461021C7484B
:1013500001F017F9284670BD2DE9F04705460C4607
:101360001646A846C248007808B1002002E0C148ED
:101370000078001B00F0FF09BE480078844201DAC3
:10138000204601E0BB48007804461021B74801F030
:10139000FAF83046FFF73AFF074603E018F8010B6A
:1013A000FFF734FF2000A4F10101CCB2F6D102E036
:1013B0000020FFF72BFF5FEA0900A9F1010101F00E
:1013C000FF09F5D11021A94801F0DBF83846BDE846
:1013D000F0872DE9F04105460C462F46A4480078D9
:1013E00008B1002002E0A3480078001B00F0FF08CD
:1013F000A0480078844201DA204601E09D48007848
:1014000004461021994801F0BEF86120FFF7FEFE66
:10141000064604E00020FFF7F9FE07F8010B200064
:10142000A4F10101CCB2F5D102E00020FFF7EEFEFD
:101430005FEA0800A8F1010101F0FF08F5D11021D1
:101440008A4801F09EF83046BDE8F08110B500F002
:101450009EFD044688490C7100F002FF10BD1CB5CA
:10146000002100910191FFF76FFE4FF400417F488A
:1014700001F089F88148009901609DF8041001711C
:101480007D48007908B9FFF7E1FF1CBD10B50020C9
:10149000FFF7E8FE044604F0020038B944F0020108
:1014A0000020FFF712FF0520FEF784FF10BD10B5E6
:1014B000E120FFF741FF10BD10B5E220FFF73CFF30
:1014C00010BD10B50620FFF7CDFE00F02804202C3B
:1014D00001D1002010BD082C01D10220FAE7012023
:1014E000F8E710B50520FFF7BDFE10BD70B5054645
:1014F00000260620FFF7B6FE0446022D01DA284634
:1015000000E00220054624F0280455205C490860CC
:1015100025B944F020049B20086006E0022D04D188
:1015200044F0080441205649086021460620FFF790
:10153000CCFE0620FFF796FEA04200D101263046E1
:1015400070BD70B504460620FFF78CFE00F0F8056C
:10155000032C01DA204600E00320044645EA44005B
:10156000C0B2054601460620FFF7AFFE70BD70B55C
:1015700004460020FFF776FE20F00C0534B1012C64
:1015800002D145F0080501E045F00C052946002090
:10159000FFF79BFE70BD2DE9F05F04460F46154630
:1015A0001E46DDF834A0DDE90A98FFF758FF7F2CCE
:1015B00001DA204600E07F2001460520FFF785FE86
:1015C000012E01DA012004E0202E01DD202000E0C0
:1015D000304628490870B8F1030F01DA032005E00E
:1015E000B8F1050F01DD052000E0404625490870EF
:1015F00008460078801EC1B20320FFF766FEBAF1EC
:10160000000F04D03F210120FFF75FFE03E000211F
:101610000120FFF75AFEB9F1000F14D01D20FFF78B
:1016200021FE40F0040B59461D20FFF74EFE1C2002
:10163000FFF718FE40F03F0B59461C20FFF745FE10
:1016400001200B4908700C98FFF791FF0E9800F0ED
:101650000F020F9862F31F1001460420FFF735FEBA
:101660003846FFF76EFF28460EE0000000080140F4
:101670003100002030000020320000203700002020
:10168000400000203C000020FFF730FF70210720C1
:10169000FFF71BFEFFF725FFA04203D1FFF711FF65
:1016A000A84202D00020BDE8F09FFFF705FFFFF73A
:1016B000FEFEFFF7EBFE6420FEF77CFE0020FFF746
:1016C000D1FD20F0010B59460020FFF7FEFD01205F
:1016D000E9E770B504460E46062C11DC0120FFF741
:1016E000C1FD054626B10120A0402843C5B202E055
:1016F0000120A040854329460120FFF7E6FD00BFF9
:1017000070BD10B51720FFF7ADFD00F0010080F0AF
:10171000010010BD10B5FF20FFF70EFE10BD10B583
:10172000FFF7F8FFC0F3420010BD10B54FF40041C1
:10173000F74800F028FF0020FFF794FD20F0020496
:1017400021460020FFF7C1FD10BD2DE9F041044600
:101750000D4616460020FFF785FD40EA051040EAD9
:10176000441040EA8610C7B239460020FFF7ADFDAD
:10177000BDE8F08110B500246020FFF7DDFD0446D0
:10178000202C06DDFFF798FE0220FEF713FE002056
:1017900010BD2046FCE770B500250020FFF762FD74
:1017A00000F00C040120FFF75DFD064604F0080080
:1017B00000B92EB104F0040008B1022500E00125B3
:1017C000284670BD10B50920FFF74CFD00F0010060
:1017D00010BD10B54FF40041CD4800F0D4FE1021EB
:1017E0000720FFF772FDE320FFF7A6FD4FF400414D
:1017F000C74800F0C6FE10BD10B50620FFF732FD49
:10180000C0F3410010BD10B51D20FFF72BFD40F0C7
:10181000060421461D20FFF758FD1C20FFF722FD7E
:1018200040F03F0421461C20FFF74FFD0120B9493D
:10183000087010BD10B51D20FFF714FD40F0010425
:1018400021461D20FFF741FD10BD10B5FFF762FFD7
:10185000044670210720FFF738FD04F0200000281F
:1018600001DD012000E0002000EB800004F0100109
:10187000002901DD012100E0002101EB4101484385
:1018800004F04001002901DD012100E000214900B0
:101890004843C0B210BD10B54FF400419C4800F061
:1018A00072FE9D480068FEF796FD1D20FFF7DAFCEA
:1018B00000F0020028B198480068FEF78CFDFFF7A1
:1018C000F6FD9648027896490A20FFF714FD9548E0
:1018D00001781120FFF7F9FC0220FFF7C3FC40F06C
:1018E000010421460220FFF7F0FC0020FFF7BAFCBC
:1018F00020F0010421460020FFF7E7FC10BD70B581
:1019000004460220FFF7AEFC0121A14020EA0105B8
:1019100029460220FFF7D9FC70BD10B50020FFF763
:10192000A1FC40F0010421460020FFF7CEFC70210D
:101930000720FFF7CAFC4FF40041754800F021FE74
:101940007948007878494978084377498978084385
:101950007549C9780843744909790843A0B16F48AB
:10196000027871490A20FFF7C6FC6E480178112001
:10197000FFF7ABFC0220FFF775FC40F001042146A5
:101980000220FFF7A2FC02E00020FFF7B8FF1D20B5
:10199000FFF768FC00F0020008B1FFF788FD10BDFA
:1019A00013B55E48027869465D4803F0F3F85B487A
:1019B000027869461020FFF79EFC1CBD10B5574801
:1019C000027857491020FFF796FC10BD7FB50446FA
:1019D0008CB95248027802A90A20FFF78CFC5148C2
:1019E00001781120FFF771FC4C48027802A94E489B
:1019F00003F0D0F81FE0012C0BD14848027802A96F
:101A00000B20FFF778FC474801781220FFF75DFCB8
:101A100011E0012C0FDD062C0DDA04F10A01C8B229
:101A2000012202A9FFF767FC04F11101C8B23D4988
:101A30000978FFF74AFC0220FFF714FC0121A140BE
:101A40000843C5B229460220FFF73FFC7FBD70B5B1
:101A500004460D4629462046FFF7BBFC70210720AF
:101A6000FFF733FC70BD2DE9F04105460E461446E4
:101A70003746202C01DA204600E0202004461021C1
:101A8000234800F080FD05F0070141F0A800FFF7B2
:101A9000BDFB03E017F8010BFFF7B8FB2000A4F132
:101AA0000101CCB2F6D11021194800F06AFDBDE861
:101AB000F0812DE9F04106460F4614461D460CB153
:101AC000A02000E0B020024639463046FFF744FC33
:101AD00025B14FF400410E4800F053FDBDE8F08100
:101AE0002DE9F04705460E4617461C46DDF82080D6
:101AF00000F07BFA00EB080970210720FFF7E5FBF7
:101B00004FF40041024800F03CFD94B32AE000008D
:101B10000008014031000020400000203C0000206F
:101B2000320000203000002037000020FFF7F2FDD7
:101B300000F0100040B110210720FFF7C6FB4FF462
:101B400000419A4800F01DFD00F04FFA484509D9C0
:101B50004FF40041954800F016FDFFF7A8FC002067
:101B6000BDE8F087FFF7D6FD00F001000028DDD1C9
:101B700007E0FFE74FF400418C4800F004FDFFF759
:101B800096FC01233A4631462846FFF792FF012092
:101B9000E6E72DE9F04706460F4690461C46DDF87D
:101BA000209000F022FA00EB090570210720FFF7D2
:101BB0008CFB4FF400417D4800F0E3FC1CB31BE0BC
:101BC000FFF7A8FD00F0100040B110210720FFF73B
:101BD0007CFB4FF40041754800F0D3FC00F005FA9F
:101BE000A84209D94FF40041704800F0CCFCFFF73F
:101BF0005EFC0020BDE8F087FFF78CFD00F00100DF
:101C00000028DDD106E04FF40041684800F0BBFC3D
:101C1000FFF74DFC0123424639463046FFF749FFA6
:101C20001AE0FFF777FD00F0100040B11021072007
:101C3000FFF74BFB4FF400415C4800F0A2FC00F0C2
:101C4000D4F9A84208D94FF40041584800F09BFC51
:101C5000FFF72DFC0020CDE71720FFF703FB00F076
:101C600010000028DDD04FF40041504800F08BFCFC
:101C700070210720FFF729FB0120BBE770B5044660
:101C80000D4600F0B2F946194FF40041474800F004
:101C900078FC1CB31AE0FFF73DFD00F0100040B1E6
:101CA00010210720FFF711FB4FF400413F4800F0DF
:101CB00068FC00F09AF9B04208D94FF400413B4863
:101CC00000F061FCFFF7F3FB002070BD1720FFF769
:101CD000C9FA00F010000028DDD001E0FFF7E7FBB3
:101CE0004FF40041314800F04EFC70210720FFF70F
:101CF000ECFA0120E9E72DE9FF4F87B00446089888
:101D0000401EC006000E04904FF0FF094FF0000A7D
:101D100048465146049A02F084FE05460E46E943C1
:101D2000F043CDE9021000F060F90A9908440190EF
:101D30003BE0D4E900733A460120FFF747FEFFF786
:101D4000ECFD099988B2FEF735FBFFF7DAFC28B104
:101D5000FFF7B2FB01200BB0BDE8F08F00F045F9B2
:101D60000199884201D90020F5E7D4E90010294003
:101D7000304069407040014308D1D4E90012DDE9E8
:101D8000020301401A40C4E900120EE0D4E90078D1
:101D900001204FF0000B049A5946059002F041FED5
:101DA000381848EB0108C4E90008C2E70008014000
:101DB00086B0092000F04FF900F0D6F85A480068C4
:101DC0004FF47A72B0FBF2F1B1F1807F00D31DE0E5
:101DD00021F07F40401E4FF0E022506150170F224B
:101DE000002807DA13071D0E504B00F00F04241FC4
:101DF0001D5503E013071C0E4D4B1C5400BF002063
:101E00004FF0E02290610720106100BF4FF4E131F4
:101E100048480078FEF736FE00F0F0F8FEF7E2FCE6
:101E200000F00BFAFEF729FBFEF74AFFFFF79CF8DC
:101E3000092001210223CDE90231CDE9041005205A
:101E4000002120230222CDE9001003212820FFF7E2
:101E5000A2FBFFF7B3FDFFF71EFD02F000FA4FF4FF
:101E6000FA6134480078FEF702FC4FF47A71314889
:101E70000078FEF7D1FB01210220FEF7B9FA01211B
:101E80000320FEF7B5FA00202B490870002102203C
:101E9000FEF7AEFA00210320FEF7AAFA43E0274836
:101EA0000088012823D10020244908802448007894
:101EB00078B1FFF787FC18B10120224908700BE0C8
:101EC0002048007808B9012000E000201D49087072
:101ED00002E000201B4908701A4801780120FEF733
:101EE00087FA02F02FFB02F0A7FB02F0B5FB1648C1
:101EF0000088012802D10020134908801348008877
:101F000088B100201149088002F0D4F802F05CFD8D
:101F1000072002F0ADFC18B101200949087002E069
:101F2000002007490870BAE70000002018ED00E023
:101F300000E400E050000020760000201E00002099
:101F40004500002044000020200000202200002046
:101F5000704700BFFEE700BFFEE700BFFEE700BF1F
:101F6000FEE770477047704700B585B0684600F0DF
:101F7000AAFC1F490098B0FBF1F01E49086005B0AB
:101F800000BD1D480068401C1B490860704700BF29
:101F9000194801684FF0E0208269174800688142C3
:101FA000F6D11448006800EB4003C3EBC010C2EB4D
:101FB000C000104B1B68B0FBF3F001EB4103C3EB17
:101FC000C11300EBC300704730B50446FFF7DFFFD5
:101FD000054600BFFFF7DBFF401B04EB4401C1EBEC
:101FE000C411B0EBC10FF5D330BD03480068704792
:101FF00040420F00480000204C00002010B5FEF7C2
:1020000061FBFEF72EFD10BD002054490861C86039
:102010001420486100208861C8610846006840F0CB
:1020200001000860084640684D4908404B49486037
:10203000084600684B49084048490860084600685F
:1020400020F4802008600846406820F4FE004860C4
:1020500000208860704701464048006840F0010059
:102060003E4A10601046006810601046006840F458
:102070008020106000BF3948006800F0020000288E
:10208000F9D036484268881E42EA8040334A5060A0
:102090001046406850601046006840F08070106044
:1020A00000BF2E48006800F000700028F9D02B48CF
:1020B000406840F00200294A50608806000E2A4A13
:1020C000107010460078704700B502460023FFF7F5
:1020D0009BFF2248006840F480302049086000BF20
:1020E0001E480068400C0028FAD04FF480601B495D
:1020F0004860901EC2B20846406840EA824048608C
:102100000846406840F4803048601848006840F055
:102110003200164908601148006840F080700F498D
:10212000086000BF0D480068400E0028FAD00B4838
:10213000406840F002000949486005E007484068EF
:10214000C0F3870303F00303022BF7D1901CC006F2
:10215000000E054908700846007800BD00100240D6
:102160000000FFF8FFFFF6FE5000002000200240B4
:1021700010B502223D493E48FEF7C4FB3B480088AB
:10218000012800D110BD0020FCE710B5022237491C
:102190003748FEF7C8FB10BD10B50724620033496D
:1021A0003348FEF7AFFB10BD10B5072462002F497E
:1021B0002F48FEF7B8FB10BD2C4840882D490880F9
:1021C0002A4880882C4908802848C0882B490880E4
:1021D000264800892A4908802448807A40B2294943
:1021E00008702248007B28490871704701201F4968
:1021F00008802048008848801F48008888801F4841
:102200000088C8801E48008808811E4890F9000098
:1022100048811D4800798881704700201549088051
:102220001549088015490880154908805A20154924
:102230000870002014490871704710B5FFF798FF27
:1022400020B1FFF7A9FFFFF7B7FF08E0FFF7E5FFB1
:10225000FFF7CCFF012005490880FFF7A5FF10BD5F
:1022600010B5FFF7C3FFFFF79FFF10BDE405002087
:1022700000F000086E0000207000002072000020B6
:102280007400002078000020320000203149014312
:10229000314A1160704770B5002100230F22C478C5
:1022A00004B32D4C246804F4E064C4F5E064210A0E
:1022B000C1F10403CA40447804FA03F1847814405D
:1022C00021430901254C0678A155047804F01F0527
:1022D0000124AC4005786D11AD0005F1E025C5F88D
:1022E000004109E0047804F01F050124AC401C4DB6
:1022F0000678761145F8264070BD1A4A0A40024316
:10230000154B1B1F1A60704739B1134A121D126812
:102310000243114B1B1D1A6006E00F4A121D126882
:1023200082430D4B1B1D1A607047042808D14FF0E3
:10233000E021096941F004014FF0E022116107E05A
:102340004FF0E021096921F004014FF0E022116112
:10235000704700000000FA050CED00E000E400E02A
:1023600080E100E080FFFF1F10B50446CC488442A6
:1023700008D10121042000F02DFB0021042000F0F1
:1023800029FB46E0C748844208D10121082000F01B
:1023900021FB0021082000F01DFB3AE0C2488442E6
:1023A00008D10121102000F015FB0021102000F0C1
:1023B00011FB2EE0BD48844208D10121202000F00D
:1023C00009FB0021202000F005FB22E0B8488442F0
:1023D00008D10121402000F0FDFA0021402000F04A
:1023E000F9FA16E0B348844208D10121802000F0B8
:1023F000F1FA0021802000F0EDFA0AE0AE488442B4
:1024000007D10121801500F0E5FA0021A01500F0A8
:10241000E1FA10BD10B50121084600F0DBFA0021F9
:10242000012000F0D7FA10BD2DE9F0410246002549
:102430000026002000230024002791F803C00CF0A0
:102440000F0591F803C00CF0100CBCF1000F03D085
:1024500091F802C04CEA050591F800C0BCF1000FEC
:1024600031D0146800202BE04FF0010C0CFA00F37F
:10247000B1F800C00CEA03069E4220D183004FF061
:102480000F0C0CFA03F7BC4305FA03FC4CEA0404F6
:1024900091F803C0BCF1280F06D14FF0010C0CFAE3
:1024A00000FCC2F814C00AE091F803C0BCF1480F68
:1024B00005D14FF0010C0CFA00FCC2F810C0401C12
:1024C0000828D1D31460B1F800C0BCF1FF0F34DD8F
:1024D000546800202EE000F1080C4FF0010808FAC3
:1024E0000CF3B1F800C00CEA03069E4221D1830030
:1024F0004FF00F0C0CFA03F7BC4305FA03FC4CEA4F
:10250000040491F803C0BCF1280F05D100F1080CB8
:1025100008FA0CF8C2F8148091F803C0BCF1480F17
:1025200007D100F1080C4FF0010808FA0CF8C2F8C6
:102530001080401C0828CED35460BDE8F0814FF6CF
:10254000FF710180022181700421C1707047024631
:10255000002093680B400BB1012000E00020704781
:102560000146886880B2704702460020D3680B405D
:102570000BB1012000E0002070470146C86880B21E
:10258000704701617047416170470AB1016100E025
:1025900041617047C16070474FF480320A438261E5
:1025A0008161826182698269704702460020434BE3
:1025B00018684FF68073184040EA021008433F4BFA
:1025C000186070473E49C8617047F0B50A4600235D
:1025D00000240021002500F00046B6F1004F02D192
:1025E000364EF16901E0354E7168C0F3034583B2A0
:1025F00000F44016B6F5401F08D121F070612F4E4F
:10260000766826F070662D4F7E6012E000F480162A
:10261000B6F5801F06D1032606FA05F4A14341F062
:10262000706106E0460D360103FA06F6B14341F04B
:10263000706122B1460D360103FA06F6314300F00F
:102640000046B6F1004F02D11C4EF16101E01B4E75
:102650007160F0BD30B500228B071C0F0F2303FA09
:1026600004F2164B08338C1053F824309343134C68
:1026700008348D1044F8253023468C1053F824304C
:102680008C07240F00FA04F423430C4C08348D10FB
:1026900044F8253030BD0A49DC310860704700003D
:1026A00000080140000C01400010014000140140EE
:1026B00000180140001C01400020014000000140C2
:1026C00000002042DF48006840F00100DD4908605A
:1026D00008464068DC490840DA4948600846006816
:1026E000DA490840D74908600846006820F480208D
:1026F00008600846406820F4FE0048604FF41F0060
:1027000088607047CF49096821F48031CD4A116053
:102710001146096821F480211160B0F5803F03D093
:10272000B0F5802F0ED106E0C649096841F480312A
:10273000C44A116007E0C349096841F4A021C14AB5
:10274000116000E000BF00BF704710B501460022D5
:10275000002300204A11012A02D1BA4C236806E066
:10276000022A02D1B74C236A01E0B64C636A01F039
:102770001F02012494401C400CB1012000E0002005
:1027800010BD38B5002000900024002500BF312086
:10279000FFF7DBFF05460098401C00900098B0F55D
:1027A000A06F01D0002DF2D03120FFF7CEFF08B18D
:1027B000012400E00024204638BD01460020A14A43
:1027C000106820F0F80040EAC10010607047A0498E
:1027D00008607047024600209A4B586820F47C102D
:1027E00042EA01031843974B5860704798490866BE
:1027F000704701460020934A506820F003000843C8
:10280000506070478F48406800F00C0070470146E8
:1028100000208C4A506820F0F00008435060704758
:1028200001460020874A506820F4E0600843506069
:10283000704701460020834A506820F4605040EA07
:10284000C1005060704729B17E4A527A02437D4BE5
:102850005A7204E07B4A527A82437A4B5A7270472A
:102860007B49D8310860704701460020754A50689E
:1028700020F440400843506070470021714A2032E4
:102880001170704A82F82010012802D004280AD161
:1028900004E001216B4A2032117005E00521694AEC
:1028A0002032117000E000BF00BF70476949086026
:1028B00070476449096A0143624A11627047654979
:1028C00044390860704730B50021002200240023FD
:1028D0005C4D6D6805F00C0121B1042905D0082973
:1028E00023D105E05C4D056022E05B4D05601FE0F3
:1028F000544D6D6805F47012524D6D6805F48034C6
:10290000022505EB92421CB9544D554305600BE07E
:102910004C4D6D6805F400351DB1504D55430560B3
:1029200002E04D4D5543056002E04B4D056000BF90
:1029300000BF444D6D6805F0F0010909484D6B5C1E
:102940000568DD4045603F4D6D6805F4E061090AAA
:10295000434D6B5C4568DD4085603A4D6D6805F41C
:102960006051C90A3E4D6B5C4568DD40C560354D20
:102970006D6805F44041890B3A4D6B5CC568B5FB49
:10298000F3F5056130BD29B12E4A526902432D4B42
:102990005A6104E02B4A526982432A4B5A617047BC
:1029A00029B1284A92690243264B9A6104E0254ADC
:1029B00092698243234B9A61704729B1214AD269B7
:1029C0000243204BDA6104E01E4AD26982431D4B68
:1029D000DA61704729B11B4AD2680243194BDA60A9
:1029E00004E0184AD2688243164BDA60704729B176
:1029F000144A12690243134B1A6104E0114A126926
:102A00008243104B1A617047124940390860704781
:102A10000F49C86470470B49C87170470948406A3C
:102A200040F0807007494862704701460020054A1F
:102A300092680A400AB1012000E000207047014975
:102A400088727047001002400000FFF8FFFFF6FE9A
:102A5000000042428004424200127A0000093D0018
:102A6000510000206100002010B50446FE48844259
:102A700008D10121C014FFF7ADFF0021E014FFF7DA
:102A8000A9FFC4E0B4F1804F08D101210846FFF747
:102A9000AEFF00210120FFF7AAFFB8E0F34884420F
:102AA00008D101210220FFF7A2FF00210220FFF739
:102AB0009EFFACE0EE48844208D101210420FFF7DC
:102AC00096FF00210420FFF792FFA0E0E94884422E
:102AD00008D101210820FFF78AFF00210820FFF715
:102AE00086FF94E0E448844208D101211020FFF7DA
:102AF0007EFF00211020FFF77AFF88E0DF48844244
:102B000008D101212020FFF772FF00212020FFF7CC
:102B10006EFF7CE0DA48844208D101214014FFF7BF
:102B200059FF00216014FFF755FF70E0D54884423B
:102B300009D10121C804FFF74DFF00214FF4002007
:102B4000FFF748FF63E0D048844209D1012108051E
:102B5000FFF740FF00214FF48010FFF73BFF56E0E6
:102B6000CA48844209D101214805FFF733FF0021FB
:102B70004FF40010FFF72EFF49E0C548844208D10A
:102B800001214020FFF733FF00214020FFF72FFFF6
:102B90003DE0C048844208D101218020FFF727FF93
:102BA00000218020FFF723FF31E0BB48844208D199
:102BB00001218015FFF71BFF0021A015FFF717FF6C
:102BC00025E0B648844209D101210804FFF702FF3D
:102BD00000214FF48030FFF7FDFE18E0B04884423A
:102BE00009D101214804FFF7F5FE00214FF4003020
:102BF000FFF7F0FE0BE0AB48844208D101218804C6
:102C0000FFF7E8FE00214FF48020FFF7E3FE10BD40
:102C100000220288944B98420ED0994B98420BD0D8
:102C2000B0F1804F08D0914B984205D0904B98421C
:102C300002D0904B984204D14FF68F731A404B88C4
:102C40001A438D4B984207D08C4B984204D04FF6D4
:102C5000FF431A40CB881A4302808B8883850B88F8
:102C60000385814B98420BD0854B984208D08B4B03
:102C7000984205D08A4B984202D08A4B984201D1A3
:102C80000B7A038601238382704770B500240022EB
:102C90000023058C4FF6FE7635400584028C838830
:102CA000048B4FF68F752C40B51E2C400D882C439D
:102CB000751E2A400D892A434D882A436A4DA84231
:102CC0000BD06F4DA84208D0744DA84205D0744D6A
:102CD000A84202D0734DA84213D14FF6F7752A408F
:102CE0004D892A434FF6FB752A408D882A434FF6BB
:102CF000FF652B404FF6FF552B408D892B43CD8927
:102D00002B4383800483CD888586028470BD70B593
:102D1000002400220023058C4FF6EF763540058411
:102D2000028C8388048B48F6FF752C404FF6FF45D4
:102D30002C400D884FF6FF7606EA05252C434FF60A
:102D4000DF752A400D8906EA05152A434D8806EAF3
:102D500005152A43444DA84202D0494DA8421DD131
:102D60004FF67F752A404D894FF6FF7606EA051526
:102D70002A434FF6BF752A408D8806EA05152A4377
:102D80004FF6FF352B404FF2FF752B408D8906EA39
:102D900085052B43CD8906EA85052B438380048373
:102DA000CD880587028470BD70B500240022002301
:102DB000058C4FF6FF6635400584028C8388848B32
:102DC0004FF68F752C404FF6FC752C400D882C4328
:102DD0004FF6FF552A400D894FF6FF7606EA052586
:102DE0002A434D8806EA05252A431F4DA84202D0F2
:102DF000234DA8421DD14FF2FF752A404D894FF651
:102E0000FF7606EA05252A434FF6FF352A408D88CE
:102E100006EA05252A434EF6FF752B404DF6FF7551
:102E20002B408D8906EA05152B43CD8906EA051549
:102E30002B4383808483CD888587028470BD70B5E1
:102E4000002200230024058C4EF6FF7635400584D1
:102E5000038C8488828B48F6FF752A404FF6FF4525
:102E60002A400D8820E00000002C014000040040B2
:102E700000080040000C004000100040001400401A
:102E800000340140004C014000500140005401401A
:102E900000180040001C004000200040004001409D
:102EA00000440140004801404FF6FF7606EA052540
:102EB0002A434DF6FF752B400D8906EA05352B4355
:102EC0004D8806EA05352B43FA4DA84202D0FA4D4B
:102ED000A84208D14BF6FF752C408D894FF6FF763E
:102EE00006EA85152C4384808283CD88A0F8405063
:102EF000038470BD828B4FF2FF331A408283828B32
:102F00004FF6FF7303EA01231A4382837047F0B53B
:102F10000C461546002200210026078C4EF6FF7C49
:102F200007EA0C070784828B018C4FF6FF7707EACC
:102F3000043640F6FF473A404FF6FF7707EA052789
:102F40003A434FF6FF7707EA03373A43D94FB8427F
:102F50000ED0D94FB8420BD0B0F1804F08D0D74F28
:102F6000B84205D0D64FB84202D0D64FB84206D1AB
:102F70004DF6FF77394046F48057394305E047F670
:102F8000FF57394044F48057394382830184F0BDB0
:102F9000828B4FF6F3731A408283828B0A438283BB
:102FA0007047F0B50C461546002200210026078C1C
:102FB0004FF6FF6C07EA0C070784828B018C4FF6F3
:102FC000FF7707EA04264FF60C773A404FF6FF7773
:102FD00007EA03172F433A43B64FB8420ED0B64F15
:102FE000B8420BD0B0F1804F08D0B44FB84205D0F2
:102FF000B34FB84202D0B34FB84206D14FF6FF5795
:10300000394046F48077394305E04FF2FF573940A5
:1030100044F48077394382830184F0BD028B4FF200
:10302000FF331A400283028B4FF6FF7303EA01233A
:103030001A4302837047F0B50C4615460022002162
:103040000026078C4FF6EF7C07EA0C070784028BFB
:10305000018C4FF6FF7707EA041640F6FF473A4027
:103060004FF6FF7707EA03373A434FF6FF7707EA51
:1030700005273A438F4FB8420ED08F4FB8420BD03E
:10308000B0F1804F08D08D4FB84205D08C4FB84278
:1030900002D08C4FB84206D14FF6DF77394046F068
:1030A0001007394305E04FF65F77394044F01007C9
:1030B000394302830184F0BD028B4FF6F3731A404B
:1030C0000283028B0A4302837047F0B50C46154613
:1030D00000220021068C4FF6FE773E400684028BCC
:1030E000018C4FF60C7632407E1C06EA03162E4306
:1030F0003243704EB0420ED06F4EB0420BD0B0F1A2
:10310000804F08D06D4EB04205D06D4EB04202D017
:103110006C4EB04206D14FF6FD76314044F00106C8
:10312000314305E04FF6F576314044F00106314376
:1031300002830184F0BD70B505460C465D488542AA
:103140000ED05D4885420BD0B5F1804F08D05B486A
:10315000854205D05A48854202D05A48854200D15E
:1031600000E000BF208850B92389A28861882846E2
:10317000FFF7ABFFE1882846FFF79EFF25E0208898
:1031800004280AD12389A28861882846FFF753FFC3
:10319000E1882846FFF742FF17E0208808280AD177
:1031A0002389A28861882846FFF7FBFEE18828462C
:1031B000FFF7EEFE09E02389A28861882846FFF721
:1031C000A6FEE1882846FFF795FE70BD2DE9F04187
:1031D00005460C4600260127608808B9022600E053
:1031E0000026A088012801D1022700E001272088BD
:1031F000A0B92389A28861882846FFF766FFE18885
:103200002846FFF759FF23893A4631462846FFF7FB
:1032100012FFE1882846FFF701FF13E02389A28807
:1032200061882846FFF707FFE1882846FFF7F6FE8A
:1032300023893A4631462846FFF747FFE18828466A
:10324000FFF73AFFBDE8F0810A884B881A438B8864
:103250001A43CB881A430B891A434B891A438B892B
:103260001A43A0F8442070474FF6FF718180002177
:103270000180C1804180017270470021018041803E
:103280008180C180018141818181C181704700219C
:1032900001804180012181800021C180018170472E
:1032A0000021018041808180C18001814181818133
:1032B00070470000002C0140003401400004004031
:1032C00000080040000C004021B1028842F00102D9
:1032D000028004E002884FF6FE731A4002807047B5
:1032E00031B1B0F8442042F40042A0F8442005E097
:1032F000B0F84420C2F30E02A0F8442070471AB17F
:1033000083890B43838102E083898B4383817047E8
:103310008182704741EA0203A0F8483070471AB131
:1033200083890B43838102E083898B4383817047C8
:1033300001894FF6F8721140018170470A46002159
:1033400001894FF68F73194011430181704730B5E1
:1033500004460D4629462046FFF7F0FF208940F03D
:103360000700208130BD2DE9F04104460D46164688
:103370001F46602D06D13B46012231462046FFF70D
:103380005AFE05E03B46012231462046FFF79DFEEE
:1033900029462046FFF7D2FF208940F00700208110
:1033A000BDE8F08130B50C4600210189C9B24FF665
:1033B000FF7505EA0325154325432943018130BDE7
:1033C0002DE9F04105460E4617469846002443462F
:1033D0003A4631462846FFF7E5FF2C894FF6F8704C
:1033E000044044F007044FF68F70044044F070042A
:1033F0002C81BDE8F081F0B504460D4616461F4607
:103400003B46324629462046FFF7CCFF208940F450
:1034100080402081F0BD0185828270470A460021EC
:1034200001884FF68F731940114301807047F0B542
:103430000C4615461E460021002200230189028BFE
:10344000038C4FF6F877394021434FF6FC473A405A
:1034500040F201173A434FF6DD773B404FF6FF77D6
:1034600007EA06172F433B43018102830384F0BD23
:103470000A460021018B4FF68F73194011430183D7
:1034800070470A460021018B48F6FF7319404FF63A
:10349000FF7303EA02231943018370470A460021A0
:1034A000818B4FF68F7319401143818370470A4611
:1034B0000021818B48F6FF7319404FF6FF7303EA32
:1034C000022319438183704721B1028842F08002B0
:1034D000028004E002884FF67F731A400280704732
:1034E00021B1828842F00402828004E082884FF693
:1034F000FB731A408280704721B1828842F0080233
:10350000828004E082884FF6F7731A408280704709
:1035100021B1828842F00102828004E082884FF665
:10352000FE731A40828070470A460021018B4FF6D5
:10353000F77319401143018370470A460021018B3C
:103540004FF2FF7319404FF6FF7303EA022319434A
:10355000018370470A460021818B4FF6F7731940AB
:103560001143818370470A460021818B4FF2FF731C
:1035700019404FF6FF7303EA022319438183704712
:103580000A460021018B4FF6FB731940114301835A
:1035900070470A460021018B4FF6FF3319404FF662
:1035A000FF7303EA02231943018370470A4600218F
:1035B000818B4FF6FB7319401143818370470A4694
:1035C0000021818B4FF6FF3319404FF6FF7303EA5A
:1035D00002231943818370470A460021018B4FF66D
:1035E0007F7319401143018370470A460021018B04
:1035F000C1F30E014FF6FF7303EA0223194301835F
:1036000070470A460021818B4FF67F7319401143A2
:10361000818370470A460021818BC1F30E014FF66A
:10362000FF7303EA02231943818370470A4600218E
:10363000018C4FF6FD7319401143018470470A460F
:103640000021018C4FF6F773194011430184704734
:103650000A460021018C4FF6DF7319404FF6FF73C5
:1036600003EA02131943018470470A460021018CC2
:103670004FF67F7319404FF6FF7303EA02131943A5
:10368000018470470A460021018C4FF6FF53194010
:103690004FF6FF7303EA02231943018470470A4679
:1036A0000021018C4FF2FF7319404FF6FF7303EABC
:1036B00002231943018470470A460021018C4DF60C
:1036C000FF7319404FF6FF7303EA02331943018475
:1036D000704730B5002301248C40A3B2048C9C4376
:1036E0000484048C02FA01F5ADB22C43048430BD8D
:1036F00030B5002304248C40A3B2048C9C43048482
:10370000048C02FA01F5ADB22C43048430BD70B5CF
:103710000346002000241846183001258D40ACB225
:103720001D8CA5431D8409B1082909D100EB610056
:10373000056825F0700505600568154305600EE015
:103740000D1FC5F34E052844056825F4E0450560C6
:1037500005684FF6FF7606EA02263543056070BD20
:1037600021B1028842F00202028004E002884FF692
:10377000FD731A400280704721B1028842F00402B2
:10378000028004E002884FF6FB731A400280704703
:1037900021B1828842F08002828004E082884FF664
:1037A0007F731A408280704702884FF6F7731A4081
:1037B000028002880A430280704782884FF68F7326
:1037C0001A40828082880A438280704702894FF6BD
:1037D000F8731A40028102890A4302817047028904
:1037E0004FF67F731A40028102890A4302817047B3
:1037F0008184704781857047818670470187704753
:1038000081877047A0F84010704702884FF6FF4349
:103810001A40028002880A43028070470146888E5F
:1038200070470146088F70470146888F70470146F0
:10383000B1F8400070470146888C70470146088DFA
:10384000704702460020138A0B400BB1012000E0B4
:1038500000207047CA430282704730B502460020FC
:1038600000230024158A05EA0103958905EA01046D
:1038700013B10CB1012000E0002030BDCA43028228
:103880007047000010B50446FB48844209D101216D
:103890008803FFF79FF800214FF48040FFF79AF864
:1038A00032E0F648844209D101214804FFF79FF82D
:1038B00000214FF40030FFF79AF825E0F0488442E9
:1038C00009D101218804FFF792F800214FF48020EC
:1038D000FFF78DF818E0EB48844209D10121C804B4
:1038E000FFF785F800214FF40020FFF780F80BE088
:1038F000E548844208D101210805FFF778F8002146
:103900004FF48010FFF773F810BD2DE9F04786B033
:1039100005460E460024A24600BFA1460027B089F6
:1039200000B100BF2F462C8A4CF6FF700440F0888F
:1039300004432C82AC894EF6F3100440B0883189E0
:103940000843718908430443AC81AC8A4FF6FF40B9
:103950000440B0890443AC8201A8FEF7B4FFC64816
:10396000874202D1DDF810A001E0DDF80CA0A889A3
:1039700000F4004040B10AEBCA0000EB0A103168C5
:103980004900B0FBF1F807E00AEBCA0000EB0A10AF
:1039900031688900B0FBF1F86420B8FBF0F0040155
:1039A0002009642101FB1089A88900F4004040B17E
:1039B000322000EBC900B0FBF1F000F00700044337
:1039C00008E0322000EB09106421B0FBF1F000F0B8
:1039D0000F0004432C8106B0BDE8F0874FF4165168
:1039E000016000218180C18001810C214181002181
:1039F0008181704710B502460020108A4FF2FF0304
:103A000018400B884C8823438C882343CC8823435D
:103A10001843108210BD0021018041808180C18047
:103A2000704721B1828942F40052828104E0828988
:103A30004DF6FF731A4082817047F0B503460024AB
:103A400000260025002040F66A17B94200D100BFC9
:103A50001846C1F3421401F01F06012707FA06F5C4
:103A6000012C01D10C3004E0022C01D1103000E017
:103A700014301AB107682F43076002E00768AF43AC
:103A80000760F0BD1AB1838A0B43838202E0838A08
:103A90008B4383827047028A4FF6F0731A4002828A
:103AA000028A0A430282704782894FF2FF731A40EA
:103AB000828182890A438281704721B1828942F0E2
:103AC0000202828104E082894FF6FD731A408281EE
:103AD0007047028A4FF6DF731A400282028A0A4355
:103AE0000282704721B1028A42F48042028204E0DD
:103AF000028A4BF6FF731A4002827047C1F3080234
:103B00008280704701468888C0F308007047818929
:103B100041F0010181817047028BD2B20283028B96
:103B200042EA012202837047028B02F47F42028341
:103B3000028B0A430283704721B1828A42F020023D
:103B4000828204E0828A4FF6DF731A4082827047D5
:103B500021B1828A42F01002828204E0828A4FF60A
:103B6000EF731A408282704721B1828A42F00802C4
:103B7000828204E0828A4FF6F7731A40828270478D
:103B800021B1828942F40042828103E08289C2F33A
:103B90000E028281704721B1828A42F400628282E1
:103BA00004E0828A4FF2FF731A4082827047828A51
:103BB0004FF6FB731A408282828A0A4382827047E0
:103BC00021B1828A42F00202828204E0828A4FF6A8
:103BD000FD731A408282704702460020B1F5007FD3
:103BE00000D100BF13880B400BB1012000E0002082
:103BF000704701F40072B2F5007F00D100BFCA43E4
:103C00000280704770B50246002400230025002082
:103C100040F66A16B14200D100BFC1F3421501F06F
:103C20001F03012606FA03F3012D02D196893340C2
:103C300006E0022D02D1168A334001E0968A334015
:103C40000C12012606FA04F41688344013B10CB1A4
:103C5000012000E0002070BD10B50022002340F6D6
:103C60006A14A14200D100BF0A1201249440A3B2F9
:103C7000DC43048010BD00000038014000440040D7
:103C800000480040004C00400050004010B5044681
:103C9000BE48844208D101218014FEF79BFE00211A
:103CA000A014FEF797FE16E0B948844208D101211E
:103CB0000014FEF79CFE00212014FEF798FE0AE097
:103CC000B448844207D10121C013FEF790FE0021C1
:103CD000E013FEF78CFE10BD10B50022028802F43E
:103CE00041520B884C8823438C882343CC88234340
:103CF0000C8923434C8923438C892343CC89234358
:103D00001A430280838B4FF2FF74234083830B8A14
:103D1000038210BD2DE9F04F85B005460C464FF0EB
:103D2000000902274FF000084FF0010B0026B246B1
:103D3000A88B4FF240010840A88302202884B5F8E0
:103D40001C90A068022801D100BF38E0A08810B9FB
:103D50004FF0010B01E04FF0020B8D48854200D17E
:103D600000E000BF6846FEF7AEFDDDF800A0E08889
:103D7000B0F5007F0AD14FEA1A2000EB8000400026
:103D8000A168B0FBF1F0401D86B20BE04FEA4B108A
:103D9000BAFBF0F000EB80004000A168B0FBF1F04E
:103DA000401D86B20A20B6FBF0F606F00108A6EB2D
:103DB0000800C0F34F074FF6FF7000EA0828022FF3
:103DC00001DBFF2F02DD02274FF00008E08840EA08
:103DD000080038432884A088A189084361880843E3
:103DE0002188084340F4006040EA0909A5F81C90C6
:103DF00005B0BDE8F08F0021018041808180C18045
:103E0000018141818181C1810721018270470021A7
:103E1000018041808180C1800221816000218181F7
:103E2000704721B1028842F04002028004E002881B
:103E30004FF6BF731A400280704721B1828B42F463
:103E40008062828304E0828B4FF6FF331A408283C4
:103E5000704730B5002400230C110125A540ABB2FA
:103E60001AB185881D43858002E085889D43858041
:103E700030BD1AB183880B43838002E083888B4373
:103E800083807047818170470146888970474FF66B
:103E9000FF62914204D0028842F48072028004E002
:103EA00002884FF6FF631A400280704721B1828872
:103EB00042F00402828004E082884FF6FB731A40CD
:103EC0008280704702884FF2FF731A400280028896
:103ED0000A4302807047018841F480510180704795
:103EE00021B1028842F40052028004E002884DF6BB
:103EF000FF731A400280704702460020012901D05A
:103F0000108B00E0908A70470146088A7047B1F52F
:103F1000804F04D1028842F48042028004E002888B
:103F20004BF6FF731A400280704702460020138947
:103F30000B400BB1012000E000207047CA43028112
:103F40007047F0B50246002000240023002501F050
:103F50000F070126BE40B4B20B1101269E40B3B23A
:103F6000968806EA03051689264016B10DB1012090
:103F700000E00020F0BD10B5002201F00F04012385
:103F8000A3409AB2D343038110BD0000003001402A
:103F900000380040003C0040002044490860091DF2
:103FA0000860091D0860091D086041483F49143137
:103FB0000860704700213D498279002A3AD00A46BC
:103FC000126803689A430B461A600A1D1268036858
:103FD0009A430B1D1A60027911440A6803681A4358
:103FE0000A60324A0832126803689A432F4B08333A
:103FF0001A601A1D126803689A432C4B0C331A601E
:104000004279102A0ED11A1F126803681A43274BEF
:1040100008331A601A1D126803681A43234B0C33C5
:104020001A600DE02149427911440A6803681A4375
:104030000A6005E0027911440A6803689A430A603D
:1040400070470021016001710C21417100218171D3
:1040500070471649103109680143144A1032116043
:10406000704701460020114A143212680A400AB112
:10407000012000E0002070470C49143108607047AF
:10408000014600200022094B1B6803EA0102074B8E
:1040900014331B680B4013B10AB1012000E000206B
:1040A0007047024914310860704700000004014065
:1040B000FFFF0F002DE9FC5F0F210320FCF7C8FE76
:1040C000009001F08FFC019001F000FB804600227F
:1040D000FC4B01F007F982468B46FB48B0F9000023
:1040E00001F0E9F8064652465B4601F005FA04463F
:1040F00001F0B4F8F549088008460088B0F57A7FE9
:1041000002DA4FF47A7009E0F0480088B0F5FA6FEF
:1041100002DD4FF4FA6001E0EC480088EB490880CA
:104120000F210120FCF794FE009001F05BFC019050
:1041300001F0CCFA80460022E24B01F0D3F80446AD
:104140000D46E348B0F9000001F0B5F806462246F6
:104150002B4600F083FE824601F080F8DD4908809E
:1041600008460088B0F57A7F02DA4FF47A7009E0E9
:10417000D8480088B0F5FA6F02DD4FF4FA6001E02C
:10418000D4480088D34908800F210020FCF760FE46
:10419000834601F027FC824601F098FA804600220F
:1041A000C84B01F09FF804460D46CB48B0F900001B
:1041B00001F081F8064622462B4600F04FFECDE97D
:1041C000000101F04BF8C549088008460088B0F5A9
:1041D0007A7F02DA4FF47A7009E0C0480088B0F5BF
:1041E000FA6F02DD4FF4FA6001E0BC480088BB4979
:1041F00008800F210220FCF72BFE009001F0F2FB5B
:10420000019001F063FA06460022AE4B01F06AF815
:1042100004460D46B248B0F9000001F04CF8804663
:1042200022462B4600F01AFE824601F017F8AD49EF
:10423000088008460088B0F57A7F02DA4FF47A7079
:1042400009E0A8480088B0F5FA6F02DD4FF4FA6083
:1042500001E0A4480088A3490880BDE8FC9F1CB584
:10426000002000900190A04800785A287ED14FF499
:10427000FA60954908804010954908809649088061
:10428000974908800020994908703FE0FFF712FF26
:10429000BDF800008D490988084480B2ADF80000DF
:1042A000BDF802008B490988084480B2ADF80200CD
:1042B000BDF8040089490988084480B2ADF80400BB
:1042C000BDF8060087490988084480B2ADF80600A9
:1042D0006420FCF76FF886480078401C40B284499F
:1042E0000870072801D10220087081490978491E09
:1042F000C8B20021FCF77CF87D4908780121FCF761
:1043000077F87A480078401C784908707748007838
:10431000784991F900108842B8DBBDF80000734974
:10432000097890FBF1F040F2DC51081A66490988DF
:10433000084400B264490880BDF802006B4909785E
:1043400090FBF1F040F2DC51081A614909880844F9
:1043500000B25F490880BDF804006449097890FB09
:10436000F1F040F2DC51081A5B4900E05EE0098898
:10437000084400B258490880BDF806005B49097836
:1043800090FBF1F040F2DC51081A554909880844C5
:1043900000B253490880FFF78DFE4C48008840F278
:1043A000E651884229DA4948008840F2D2518842D1
:1043B00023DD4848008840F2E65188421DDA45482E
:1043C000008840F2D251884217DD4448008840F20C
:1043D000E651884211DA4148008840F2D2518842C1
:1043E0000BDD4048008840F2E651884205DA3D483E
:1043F000008840F2D251884203DC5A203A490870C2
:1044000004E0A52038490870FDF72AFF00210220AA
:10441000FBF7EEFF00210320FBF7EAFF0021042059
:10442000FBF7E6FF00210520FBF7E2FF1CBD10B5FE
:1044300031480078401CC0B22F49087008B90320E9
:1044400008702E480078002868D0012878D12A48C2
:10445000007803280ADA2848017829A000F0F4FA45
:104460000020254908702549087069E0002022498C
:10447000087029480078B6280FD1002404E00520F0
:1044800000F0F6F9601CC4B2052CF8DB6B20224961
:10449000087000201949087012E01F4800786B2846
:1044A0000ED1002404E0062000F0E2F9601CC4B242
:1044B000052CF8DBB6201849087000200F49087059
:1044C0003EE02BE00040CF3F6E0000206600002061
:1044D000700000206A0000207200002068000020A8
:1044E000740000206C000020780000207E00002076
:1044F0007F000020800000207A000020760000204D
:10450000696E76616C6964206B6579207072657381
:10451000733A25640A00000079000020954800786D
:104520006B2804D101210520FBF762FF07E09148C9
:104530000078B62803D100210520FBF759FF00BF02
:1045400000BF10BD10B58C48008840F21A41884267
:1045500032DA8A48008840F24C4188422CDA002046
:104560008749087087480078401C864908700846CB
:10457000007804285FDB0420087083A000F064FA50
:10458000002404E0062000F073F9601CC4B2042C7F
:10459000F8DB062000F06CF950B1B62075490870C0
:1045A00000210520FBF724FF7DA000F04DFA42E03A
:1045B00081A000F049FA3EE06F48008840F21A41BD
:1045C000884233DA6D48008840F26C7188422DDDF4
:1045D0006B480078401C6A490870002069490870DF
:1045E00067480078042826DB0420654908707AA013
:1045F00000F02AFA002404E0052000F039F9601CDC
:10460000C4B2042CF8DB052000F032F950B16B2065
:104610005849087001210520FBF7EAFE73A000F05D
:1046200013FA08E076A000F00FFA04E000205449E5
:1046300008705449087010BD10B5784801780420FE
:10464000FBF7D6FE7548007828B1CD2000F010F9B0
:1046500000207249087010BD10B50024454800784C
:10466000B6287DD14448008840F21A4188427CDA5D
:104670004248008840F24C41884276DA6848008817
:10468000884272DA6748008840F26C7188426CDDBB
:1046900065480078401C6449087008460078042882
:1046A00066D15A20614908700BE021460520FBF7CE
:1046B0009FFE0CB9012000E000200446C820FBF753
:1046C00079FE0F210320FCF7C3FB40F26C71884296
:1046D000EBDB0F210320FCF7BBFB40F6980188427F
:1046E000E3DC0F210020FCF7B3FB40F26C71884241
:1046F000DBDB0F210020FCF7ABFB40F69801884282
:10470000D3DC0F210120FCF7A3FB40F26C7188423F
:10471000CBDB0F210120FCF79BFB40F69801884280
:10472000C3DC0F210220FCF793FB40F26C7188423E
:10473000BBDB0F210220FCF78BFB40F6980188427F
:10474000B3DCC820FBF736FEFFF789FD384800F0E0
:10475000DFF8384800F0DCF8374800F0D9F800E01E
:1047600003E0364800F0D4F802E000202E4908703B
:1047700010BD000079000020660000206C000020C1
:104780007B0000207C00002044697361726D696EBB
:1047900067204D6F746F72732E2E2E0D0A0000006D
:1047A0004D6F746F72732064697361726D656421FB
:1047B00021210D0A000000004D6F746F7273206399
:1047C000616E6E6F742062652064697361726D65DD
:1047D000642121210D0A000041726D696E67204D30
:1047E0006F746F72732E2E2E0D0A00004D6F746F52
:1047F00072732061726D65642121210D0A00000031
:104800004D6F746F72732063616E6E6F742062659A
:104810002061726D65642121210D0A00770000205E
:104820006A000020680000207D0000207800002041
:10483000AC000020B4000020BC000020C400002018
:104840002C490A780978491C2A4B19702A4988543E
:104850002A4909784140294A1170704710B5044629
:10486000E0B2FFF7EDFFC4F30720FFF7E9FF10BD4B
:1048700038B5044600201F4908702420FFF7E0FFE8
:104880004D20FFF7DDFF3C20FFF7DAFF00201B493A
:104890000870072C1AD10820FFF7D2FF2046FFF737
:1048A000CFFF1748008800B2FFF7D8FF15480088EF
:1048B00000B2FFF7D3FF1448008800B2FFF7CEFF25
:1048C0001248008800B2FFF7C9FF05E00020FFF79B
:1048D000B7FF2046FFF7B4FF08480078FFF7B0FFA6
:1048E000082001231A46202100900348FDF751F9C2
:1048F00038BD000082000020F20500208300002067
:10490000660000206C0000206A0000206800002083
:1049100040F2DC51018041808180C18070472DE9E7
:10492000F04F85B004460D46E08801F05BF8824602
:104930002E480168504601F069F88046A08801F0D1
:1049400051F882462A480168504601F05FF8049009
:10495000608801F047F8834626480168584601F010
:1049600055F88246208801F03DF800902248016801
:10497000009801F04BF88346288801F033F8009046
:104980001E480168009801F041F85946019000F076
:10499000C9FE5146029000F0C5FE0390049901F053
:1049A0000BF98146414601F007F9074600F0FAFF8E
:1049B00086B22088608028882080A088E080A68039
:1049C0002E8005B0BDE8F08F10B50D490D48FFF7FA
:1049D000A6FF0D490D48FFF7A2FF0D490D48FFF74F
:1049E0009EFF0D490D48FFF79AFF10BDA80000205B
:1049F000A4000020A00000209C00002098000020BF
:104A000066000020AC0000206C000020B4000020F4
:104A10006A000020BC00002068000020C4000020C4
:104A20007047B2F120030AD5C2F1200301FA02F166
:104A300020FA03F300FA02F041EA0301704700FA9A
:104A400003F14FF0000070470FB4044910B503AAFA
:104A5000029800F041F910BC5DF814FB280000201A
:104A60002DE9F0410E460446002020622046E16810
:104A7000884730B3252805D0D4E901219047206A22
:104A8000401CF2E7E168204600278847050018D05F
:104A9000A5F14100192802D820354FF400673246AD
:104AA000294620462760FBF75BFB40B1012804D074
:104AB000F61D26F007060836D8E7361DD6E7284645
:104AC000DAE7206ABDE8F0812DE9F04106460024CE
:104AD00010687529314615A510D0AFF30080002865
:104AE00002DA404212A507E031688A0701D511A514
:104AF00002E0490704D510A5012401E0AFF30080CE
:104B000000210A2306F1240707E0B0FBF3F203FBC0
:104B10001200303078541046491C0028F5D1234645
:104B20002A463046BDE8F04100F07DB800000000A4
:104B30002D0000002B0000002000000070B504468E
:104B40000D4621461068AFF300802188090502D583
:104B50000F4A7A4402E00E4A7A440E32002104F1F0
:104B6000240305E000F00F060009965D5E54491C21
:104B70000028F7D120780023000704D5702D02D03B
:104B800009B1022311322046BDE8704000F04BB855
:104B90004C110000032A40F2308010F0030C00F0AA
:104BA000158011F8013BBCF1020F624498BF11F867
:104BB00001CB00F8013B38BF11F8013BA2F1040220
:104BC00098BF00F801CB38BF00F8013B11F0030398
:104BD00000F09480083AC0F0088051F8043B083A8D
:104BE00051F804CBA0E80810F5E7121D5CBF51F89E
:104BF000043B40F8043BAFF30080D20724BF11F818
:104C0000013B11F801CB48BF11F8012B24BF00F87C
:104C1000013B00F801CB48BF00F8012B70477047FB
:104C20007047704770472DE9F0470D469946924608
:104C3000044600F124080168880604D5E06921F0E3
:104C40001001216000E00120A84201DD471B00E0C7
:104C50000027A1697A1902EB0900081AA0612078DF
:104C6000C00602D42046AFF30080002608E0D4E955
:104C700001211AF806009047206A401C761C206229
:104C80004E45F4DB2078C0060AD52046AFF30080FD
:104C900006E0D4E9012130209047206A401C2062C0
:104CA000381EA7F10107F4DC07E0D4E9012118F868
:104CB00005009047206A401C2062281EA5F10105CE
:104CC000F3DC2046AFF300802078000602D50220F6
:104CD000BDE8F0870120FBE7074B70B50D467B442C
:104CE00000F043F80446284600F052F810B14FF0A7
:104CF000FF3070BD204670BD69BDFFFF10B5203A82
:104D0000C0F00B80B1E81850203AA0E81850B1E884
:104D10001850A0E81850BFF4F5AF5FEA027C24BF3A
:104D2000B1E81850A0E8185044BF18C918C0BDE831
:104D300010405FEA827C24BF51F8043B40F8043BFA
:104D400008BF7047D20728BF31F8023B48BF11F8AF
:104D5000012B28BF20F8023B48BF00F8012B704709
:104D600001694A1C02610878704700B58FB0CDE92F
:104D700001310021059105497944CDE9031011461F
:104D80006846FFF76DFE0FB000BD0000E5FFFFFFB6
:104D9000007B00F080007047754600F029F8AE46B1
:104DA00005006946534620F00700854618B020B537
:104DB000FBF7EEFABDE820404FF000064FF0000789
:104DC0004FF000084FF0000B21F00701AC46ACE8B3
:104DD000C009ACE8C009ACE8C009ACE8C0098D4620
:104DE00070470446AFF300802046FBF7CEF9000081
:104DF000004870471406002021F00042A2F16052E2
:104E0000B2F5801F01F0004328BFD2F17F6C0BD9AF
:104E10005FEA001C43EAC20242EB507018BF7047C1
:104E200028BF20F001007047B2F5801FBCBF1846B4
:104E300070474FEA410C1CF5001F02D2084600F0F3
:104E4000ACBE70B500F0F8FA00000089FFF7F6BFBD
:104E50004FF00040A0F580007047000010B591EAC7
:104E6000030F48BF83F0004300F14E83841A71EBB7
:104E7000030C05D2121943EB0C03001B61EB0C0170
:104E8000DFF824E14FEA1154A4EB135C1EEA430F50
:104E900018BF9EEA445F73D023EA0E03DCF1200EB4
:104EA00021EA045143F4801332D322FA0CFE10EBB2
:104EB0000E0023FA0CFE41EB0E01CCF1200E03FA9A
:104EC0000EFE10EB0E0051F10001B1F5801FCCF188
:104ED000200E32D201EB045112FA0EF2BDE810405E
:104EE00058BF7047401C38BF5FEA420218BF704786
:104EF000002814BF20F0010041F100014FEA4103F6
:104F000013F5001F38BF7047A1F1C04100F0E2BAAD
:104F1000012A43EB0302ACF1200CDCF11F0E32BF7F
:104F20004FF0000E23FA0CF310EB030041EB045199
:104F3000B4EB115FD0D0A1EB045101F58011490809
:104F40005FEA300001EB04510ED350F1000038BF8E
:104F500012FA0EFE08D1BDE81040C9E7401C38BF68
:104F60005FEA4202CAD1C3E7BDE810404FEA4103FD
:104F700013F5001F38BF7047A1F1C04100F0AABA75
:104F80009EEA445F08D011EA5E0FBDE8104004BFFE
:104F900001F0004100207047BDE8104070B500F0FE
:104FA0004BFA00BF64FBBE3E0000E0FF2DE9C041AC
:104FB00030B4DFF8A0C23CEA111418BF3CEA131465
:104FC00000F0EC8081EA03051CEA111444EAD57470
:104FD00018BF1CEA131500F0C780A4EB05044FF0BE
:104FE000004545EAC12145EAC32341EA505143EA5D
:104FF000525304F17F74994204F500344FEAC02003
:105000004FEAC22208BF904200F09C804FEA13652D
:105010000FF24016765D4FEA134506FB05F7C7F120
:10502000807706FB07F74FEAD737A7FB036876427E
:10503000C8F58038A7FB06CE38BFA8F1010807FBEA
:1050400008E64FF0000EA6FB028CE6FB03CEDCF177
:10505000000CCEF1004E38BFAEF1010EA6FB0C588D
:105060004FF000074FF00005E6FB0E87A1FB08C6D6
:10507000A0FB07CE16EB0E0645F10005E1FB076528
:1050800015F1E04E7EBFA4F580345FEA46066D411F
:1050900016F1800745F100054FEA17274FEA06662B
:1050A00047EA0567A6F1DE46B6F1805F4FEA1525AF
:1050B0001FD9384624F0010C05EBC471BCF1FE6F1A
:1050C00001EB0C1102D8F0BCBDE8008124425CBFAA
:1050D00001F5801E9EEAC47F02D4F0BCBDE80081C9
:1050E000244238D4F0BCA1F1C041BDE8004100F039
:1050F000F1B94FEAD22242EA43524FEAD323A7FB47
:1051000002864FEAD02040EA415007FB03661EEAC0
:105110000E0F4FEAD12105FB026658BFA6EB0056E1
:10512000B6EB00564FEA520E4EEAC37E18EB0E0E57
:1051300056EB530EBDD518EB02085E417F1C55F1AE
:105140000005B6E74FF480154FF000074FF000065A
:105150004FF00008ADE7F0BC4FF0000001F1C04196
:1051600001F00041BDE8008111EA0C1F0CEA1315A3
:1051700000D00CE013EA0C1F00F025804FF0000077
:10518000F0BC81EA030101F00041BDE80081F0BC00
:1051900081EA0301BDE8004100F09CB9F0BCBDE824
:1051A000004170B500F048F9097EFC3E00F007B8F8
:1051B00081EA03014FF0000001F00041704781EAED
:1051C000030100F087B9F0BC4FF000002249BDE8B0
:1051D00000417047FFFDFBF9F7F5F4F2F0EEEDEB5F
:1051E000E9E8E6E4E3E1E0DEDDDBDAD8D7D5D4D3E5
:1051F000D1D0CFCDCCCBCAC8C7C6C5C4C2C1C0BF31
:10520000BEBDBCBBBAB9B8B7B6B5B4B3B2B1B0AF36
:10521000AEADACABAAA9A8A8A7A6A5A4A3A3A2A11A
:10522000A09F9F9E9D9C9C9B9A99999897979695D5
:1052300095949393929191908F8F8E8E8D8C8C8B71
:105240008B8A8989888887878685858484838382F9
:10525000828181800000FF070000F87F4FEA115330
:10526000A3F58063D3F11E03A8BFD3F1200C08DBA4
:105270004FF0004242EAC12252EA505232FA03F0A1
:10528000704709420BD4102BC4BF0020704703F5B0
:10529000787CBCF1FF3F05D04FF0FF3070474FF0F6
:1052A0000000704770B500F0C7F800BF4992248035
:1052B00000207047F0E710F0004248BF4042B0FACB
:1052C00080F310FA03F10AD0C3F11D0303F58063E4
:1052D0004FEA415002EB035202EBD12170474FF0ED
:1052E00000007047DFF848C170B51CEA111E1EBFF0
:1052F0001CEA13159EEA0C0F95EA0C0F00F06F8064
:1053000081EA030423EA4C134EEAD47E21EA4C11CD
:1053100041F4801143F48013AE44A1FB024CA0FB86
:105320000365AEF17F7E361955EB0C05A1FB034CEE
:105330004CF10003A0FB021C16EB0C06654153F177
:105340000003094218BF46F0010613F4007F0BD199
:105350004FEA03314FEA0530340341EA155140EA80
:1053600016506FF003020AE04FEAC3214FEAC5204E
:10537000F40241EA555140EA56506FF0020202EB46
:105380002E4201EB025585EACE710AD05FEA440C49
:1053900018BF24F0004450F1000041F1000120EA60
:1053A000D47040F2FE7C624500D270BDA84214BFAA
:1053B0004FF080444FF04044002E08BF0024BEF15F
:1053C000806FA8BFA1F1C041BDE8704080F282802B
:1053D0004FF0000001F1C04101F0004170479EEA2A
:1053E0000C0F0CEA131518BF95EA0C0F06D04FF0FE
:1053F000000081EA030E0EF0004170BD00F01CF8C1
:105400008900013E00F007B800F009B84FEA430CEC
:105410005FEA5C5C08D081EA030100F05BB84FEA08
:10542000410C5FEA5C5CF6D14FF000000149704727
:105430000000FF070000F87F0EF1020E2EF0030EB1
:105440005EF8046B364205D4012A43EB030515F5DB
:10545000001F12D8012841EB010C1CF5001F0CD8CD
:105460000ED14FEAD17C15F5001F0CEB4C0C0CF162
:10547000020C08BF4CEBD37C04E04FF0080C01E0B9
:105480004FEAD37C0CEB4C0526FA05F606F007062E
:10549000B6F1040C06D20EEB860CBDE870404CF061
:1054A000010C6047DFE80CF0090B02024FF00041ED
:1054B0004FF00000A1F5002170BD194610460128EB
:1054C00051EB010418BFD4F5001484BF002001F093
:1054D000004170BD0808A0F500114FEA3101704786
:1054E00091EA030F10B581F000413FF5BFAC83F0A6
:1054F000004300F009B8000010B591EA030F48BF5F
:1055000083F000433FF5B2AC841A71EB030C07D271
:1055100012198CF0004C43EB0C03001B61EB0C01E7
:10552000DFF8A4E14FEA1154A4EB135C1EEA430F29
:1055300018BF9EEA445F00F0B08023EA6E03524237
:1055400021EA0451C3EB6E0338BF5B1EDCF1200E71
:1055500025D322FA0CFE10EB0E0043FA0CFE41EBB1
:105560000E01CCF1200E03FA0EFE10EB0E0051F1ED
:105570000001CCF1200E29D412FA0EF201EB0451F5
:10558000BDE8104058BF7047401C1CBFB2F1004F2F
:10559000704700280CBF491C20F00100704712EB37
:1055A000020E43EB030218BF4FF0010E4EEA420217
:1055B000ACF1200CDCF11E0E54D943FA0CFE10EBBA
:1055C0000E0051F1FF31CCF11E0ED5D50EF1010EBA
:1055D00012FA0EFE404141EB010101EB445C5FEA2F
:1055E0005C5C10D910EBDE7001EB045138BFBEF1EA
:1055F000004FBDE8104018BF704700280CBF491C81
:1056000020F00100704730D24FEAD42C11F5001180
:1056100024F400641BD0B1FA81F20B3AA41AA41E40
:10562000D2F12003914030FA03F31943904001EB8B
:10563000CC71002C01EB0451BDE81040A8BF7047AD
:1056400001F1C0414FF0000001F000417047B0FA95
:1056500080F310FA03F100D110BDE41A173C48059D
:10566000C90AE4E701EB045110BD491001EB0451F4
:10567000BDE810404FEA300002E04FF000017047F3
:105680004A0008BF0042F8D0B2F5001F28BF70479B
:1056900001F000414FF0000070479EEA445F07D0E0
:1056A00011EA5E0FBDE8104004BF002100207047E2
:1056B000BDE8104070B5FFF7BFFE00BF40DFF63E0B
:1056C00083F00041104670470000E0FF43004FEABE
:1056D000D30C4FEA3C0C43401FBF40070CF1605114
:1056E00013F0FE4F70471CF0006F03D100200CF048
:1056F000004170470CF0004343EA507010B540EA97
:10570000CC0000F004FA00BF000000924FEA000154
:10571000FFF7E0BE4FF000414FF00000A1F500217F
:105720007047000090EA010F48BF81F0004100F18E
:105730004A82421A3CBF801A89184FEAD0524FF071
:105740007F4C1CEA410FA2EBD15318BF9CEA026FB9
:1057500000F03B804FF0004C4CEA00204CEA012165
:1057600021FA03FC10EB0C0C1ED202F1FF325FEAAF
:105770001C2040EBC25038BF70471CF07F0F4FEA2F
:10578000400C18BFBCF17F4F38BF7047C3F12003F6
:10579000994008BF20F00100BCF17F4F38BF70472F
:1057A000A0F1C04000F0F9B94FEA3C00000A40EB1C
:1057B000C25028BF1CF0FF0F4FEA400CE6D018BFC4
:1057C000BCF17F4F38BF7047EAE79CEA026F05D013
:1057D00010EA5C0F08BF00F00040704710B500F001
:1057E00096F900BF64FBBE3E4FF47F0C1CEAD0125A
:1057F0001EBF1CEAD11392EA0C0F93EA0C0F00F0C3
:10580000858090EA010F48BF42F4807240F4000C9A
:1058100041F400002CF07F4120F07F4000B5814230
:10582000A2EB03020FF2081CACEB504EC0F10000DB
:105830009EF800E04FEA4E0E00FB0EFC38BF490018
:105840004FEA2C1C02F5FA020CFB0EF34FEACE1EB7
:105850004FEA112C4FEAC1210EEB635E42EB22426C
:105860000EFB0CFC4FEA1C5300FB03114FEA112CFA
:105870004FEA01310EFB0CFC4FEADC4C00FB0C1133
:10588000C14228BF09184CEB03335DF804EB10EB61
:10589000410143EBC250B2F57C0F38BF704729D5A8
:1058A00012F0F00F1CBF00F1C04000F00040704744
:1058B000008182838485868788898B8C8D8E8F91E9
:1058C0009293959697999A9C9D9FA0A2A3A5A7A80D
:1058D000AAACAEB0B2B3B5B7B9BCBEC0C2C5C7C939
:1058E000CCCED1D4D7D9DCDFE2E6E9ECF0F3F7FA9D
:1058F000FE0000004FEA400C0CF1807CBCF17E4FB2
:1059000028BF7047B0F1C04000F047B990EA010FDE
:105910000CEAD11348BF42F48072624538BF634538
:1059200007D213F47F0F16D080EA010000F0004088
:10593000704710B500F0EBF8097EFC3E00F005B8AA
:1059400080EA010000F00040704780EA010000F0AA
:10595000004000F022B912F47F0F04BF02487047E4
:1059600080EA010000F019B90000C07F41000B0E71
:10597000D3F19E0208D950F400034FEA032323FA1F
:1059800002F048BF4042704710B500F0C0F800BFB9
:1059900049922480002070476FF0004282EA200084
:1059A00070470000C10DD1F19E0206DB4FEA0023D3
:1059B00043F0004323FA02F07047004207D54FEA54
:1059C0004001B1F1FE4F02D24FF00000704710B518
:1059D00000F09DF849922480002070476FEA200073
:1059E00070470000B0FA80F310FA03F2C3F19D0390
:1059F0000AD0D90501EB1220530638BF704700F1D9
:105A0000010008BF20F00100704700004FF47F0C38
:105A10001CEAD0121EBF1CEAD11392EA0C0F93EAC3
:105A20000C0F00F0478090EA010F48BF42F48072EB
:105A30004FF0004C4CEA00204CEA012102EB03023B
:105A4000A0FB0113A2F50002002918BF43F00103D7
:105A50005B0028BF4FEA330342EB22425FEA132C7C
:105A60004CEBC2502EBFBCEB436FB2F57C0F7047BE
:105A70004FEA036CBCF1004F08BF20F00100B2F503
:105A80007C0F38BF70470BD582F0FF0212F5803FC4
:105A9000C8BF704700F1C040D8BF00F00040704759
:105AA00000F5000C5FEA4C0C48BF7047B0F1C040F5
:105AB00000F073B890EA010F0CEAD11348BF42F42A
:105AC0008072624538BF634504D280EA010000F06D
:105AD0000040704710B500F01AF800BF8900013E81
