:020000040800F2
:10000000700C0020E90200081D1B00081F1B0008DF
:10001000211B0008231B0008251B0008000000000E
:10002000000000000000000000000000271B000886
:10003000291B0008000000002B1B0008471B0008BC
:100040000303000803030008030300080303000878
:100050000303000803030008030300081B0E000845
:1000600003030008430E000803030008030300080D
:100070000303000803030008030300080303000848
:100080000303000803030008030300080303000838
:10009000030300080303000803030008670E0008B9
:1000A0000303000803030008030300080303000818
:1000B00003030008B10400084D040008030300080E
:1000C00003030008030300080303000803030008F8
:1000D000030300084B0A0008030300080303000899
:1000E00003030008030300080303000800F002F8FC
:1000F00000F042F80AA090E8000C82448344AAF180
:100100000107DA4501D100F037F8AFF2090EBAE87D
:100110000F0013F0010F18BFFB1A43F0010318473B
:100120009C4D0000BC4D0000103A24BF78C878C137
:10013000FAD8520724BF30C830C144BF04680C60ED
:10014000704700000023002400250026103A28BF35
:1001500078C1FBD8520728BF30C148BF0B60704739
:10016000642903F04B85782903F0828500207047CD
:100170001FB51FBD10B510BD03F0A8FE1146FFF757
:10018000F7FF01F01FFC03F0C6FE03B4FFF7F2FF18
:1001900003BC00F095FB00000CB500214A4801911A
:1001A0000091026842F4803202604FF4A06302685A
:1001B00002F400320092019A521C0192009A12B984
:1001C000019A9A42F3D10268920331D5012100913C
:1001D0003E490A6842F010020A600A6822F00302EF
:1001E0000A600A6842F001020A60416841604168A1
:1001F000416041684160416821F47C11416041687F
:1002000041F4F8114160016841F0807101600168BA
:100210008901FCD5416821F003014160416841F04A
:10022000020141604168C1F381010229FAD10CBD8C
:1002300000910CBD244810B5016841F00101016036
:100240004168234A114041600168224A114001601F
:10025000016821F480210160416821F4FE014160C0
:100260004FF41F018160FFF797FF1B494FF00060BB
:10027000086010BD144910B54868184A10F00C0306
:10028000174803D0042B01D0082B0AD0026049681C
:10029000134AC1F30311121D515C0268CA40026087
:1002A00010BD4A684B6802F470124FF0020413F458
:1002B000803F04EB924202D04B689B0301D5094B6F
:1002C00000E0064B5A43E1E70010024000200240E4
:1002D0000000FFF8FFFFF6FE08ED00E000127A00D4
:1002E0000000002000093D000948804709480047F8
:1002F000FEE7FEE7FEE7FEE7FEE7FEE7FEE7FEE7D6
:10030000FEE7FEE704480549054A064B7047000032
:1003100035020008ED00000870060020700C002077
:10032000700800207008002070B5054601F010FC30
:10033000044605EB4500C0EBC51500BF01F008FC05
:10034000001BB0EBC50FF9D370BD70B5054601F0C9
:10035000FFFB044601F0FCFB001BA842FAD370BD72
:1003600001280ED0334A022814D0032818D00428BC
:100370001BD005281ED100294FF080010ED0104659
:1003800004E00A002C484FF4805101D001F033BE44
:1003900001F033BE00294FF01001F0D11046F7E70D
:1003A00000294FF02001EAD1F8E700294FF0400181
:1003B000E5D1F3E77047214810B5816941F00401A8
:1003C0008161816941F008018161816941F0010128
:1003D00081611948001D016821F4702101600168E4
:1003E00041F44031016014480C30016841F48051FF
:1003F00001601048016889B201600168104A114328
:1004000001600C480C30016841F0F00101600D48BA
:10041000416841F0007141600B4C012020700021C7
:10042000C0B2FFF79DFF2078401CC0B220700528A5
:10043000F5D910BD000C0140000801400010024039
:1004400000003333000001401400002010B56B4C55
:100450000121204602F005FD002828D0684901222C
:100460000888401C83B200200B80642B01D10880D7
:100470000A814B885B1C9BB24B80142B01D14880B6
:100480004A818B885B1C9BB28B800C2B01D18880AE
:100490008A81CB885B1C9BB2CB800A2B01D1C880A0
:1004A000CA812046BDE81040012102F0E6BC10BD23
:1004B0001CB5544C0121204602F0D3FC002827D063
:1004C0005148018851A003F059FB5348018853A0BB
:1004D00003F054FB5548018855A003F04FFB5848E2
:1004E000018858A003F04AFB59490A784878CDE9B9
:1004F00000028B78CA78097956A003F03FFB5DA013
:1005000003F03CFB2046BDE81C40012102F0B5BCD5
:100510001CBDFEB50D4604460121042001F0F0FE8D
:10052000364E304601F032FF641E0020ADF8045014
:10053000ADF80040ADF80600ADF80200694630465F
:1005400001F0BCFF0121304602F088FC0122114677
:10055000304602F071FA0121304602F058FA49A003
:1005600003F00CFBFEBD3EB50C460121022001F05C
:10057000C7FE244D284601F009FF48F69F40ADF81C
:1005800000000020ADF80440ADF80600ADF8020010
:100590006946284601F092FF0121284602F05EFCE0
:1005A00001221146284602F047FA0121284602F0AE
:1005B0002EFA3BA003F0E2FA3EBD38B54FF4A0603E
:1005C00001F0FCFB1D208DF8000002208DF80100D9
:1005D00000208DF8020001248DF80340684601F0E8
:1005E000F2FB1E208DF800008DF801408DF80240CE
:1005F0008DF80340684601F0E6FB38BD0008004076
:10060000160000200004004074000020746872206E
:100610002D2D3E25640D0A0078000020706974635A
:1006200068202D2D3E25640D0A0000007600002074
:10063000726F6C6C202D2D3E25640D0A00000000A9
:100640007A000020796177202D2D3E25640D0A0067
:100650003800002072656D6F7465206164647220DB
:100660002D2D3E3078257825782578257825780D2C
:100670000A0000002D2D2D2D2D2D2D2D2D2D2D2D54
:100680002D0D0A0054696D6572203420696E6974FD
:1006900020737563636573732E2E2E0D0A000000A0
:1006A00054696D6572203320696E697420737563B7
:1006B000636573732E2E2E0D0A000000764875496F
:1006C00041607649416076A003F058BA72480169EA
:1006D00041F08001016170476F48C068C10701D0D7
:1006E00001207047410701D502207047C00601D59F
:1006F000032070470020704710B50446FFF7ECFF59
:10070000012803D0002C00D1FF2010BD0120FFF7ED
:100710001CFE641E2404240CF0D1F5E770B50546D8
:1007200045F6FF763046FFF7E7FF002812D15A4C16
:10073000206940F0020020616561206940F04000BE
:1007400020613046FFF7D8FF012803D0216921F04E
:100750000201216170BD70B506460D46FF20FFF70E
:10076000CBFF00280ED14C4C206940F001002061E5
:100770003580FF20FFF7C0FF012803D0216921F059
:100780000101216170BD008870472DE9F0411646D6
:100790000F460546002407E037F814102846FFF7F7
:1007A000DAFF641CA4B2AD1CB442F5D3BDE8F081FD
:1007B00010B5002306E000BF30F8024B21F81340CB
:1007C0005B1C9BB29342F7D310BD2DE9F05FA0F103
:1007D000006415468A468346B4F5803F52D2FFF73F
:1007E0006DFFA70AC4F34806C6F50074A54200D8F9
:1007F0002C46DFF8C89000BF4FF0006000EB872068
:1008000080464FF400722D49FFF7D2FF00204FF6CB
:10081000FF7106E0331839F813208A4203D1401CD7
:1008200080B2A042F6D3A04225D24046FFF776FF21
:100830000020494607E000BF3AF810208319401C09
:1008400021F8132080B2A042F6D31C4940464FF451
:10085000007200BFFFF799FFA54210D0281B0AEBDA
:10086000440AA344002685B24FF400747F1CA542BD
:10087000C2D82C46C0E7224651465846EAE7BDE8B2
:10088000F05F23E7BDE8F09F13B5012201A9FFF750
:100890009CFF1CBD2301674500200240AB89EFCDC2
:1008A000466C61736820756E6C6F636B2073756343
:1008B000636573732E2E2E0D0A0000009400002035
:1008C00070477C490A885206FCD57A4AC1B2121D8B
:1008D0001180704708B525208DF8000002208DF8A2
:1008E000010000208DF8020001208DF80300684609
:1008F00001F069FA08BD2DE9F04104460D460801F2
:1009000004F0F8F86C49064604FB01F004F0F2F834
:10091000314603F0D9FF074604F0B4F886B23046FA
:1009200004F0E8F8394604F0C5F9042104F073FA3C
:1009300004F0A8F84FF6FF7101EA06110A185F48A3
:10094000816941F004018161816941F480418161E3
:100950005B490B6823F47F630B600B6843F40B6304
:100960000B60C16841F48041C160C16821F48041DD
:10097000C160504808300280001D018842F20C021C
:1009800011430180018841F480710180018841F0A8
:1009900020010180FFF79EFF4A490020088048801F
:1009A0007F228A8001F198038B600C310880488097
:1009B0008A8001F10C008860214643A003F0DEF834
:1009C0002946BDE8F04148A003F0D8B802888388E2
:1009D0001A40836899540188491C0180704710B5FA
:1009E00001463848FFF7F2FFBDE81040012240F20F
:1009F0002771304802F0F1BA41888288114082683C
:100A0000515C4288521C42800846704701884288E7
:100A10008088891A0840704701884180704770B506
:100A20000E460546002406E029782648FFF7CEFF4B
:100A3000641CE4B26D1CB442F6D3BDE870400122E0
:100A400040F227711B4802F0C8BA70B5194C40F249
:100A500027752946204602F077FB90B11948FFF729
:100A6000CBFF0146204602F004FB1648FFF7CEFFFD
:100A700000281DD129462046BDE87040002202F022
:100A8000ACBA40F225552946204602F05DFB00280D
:100A90000ED02946204602F076FB204602F0EDFA01
:100AA000184908700978BDE8704006480C308DE799
:100AB00070BD00000038014040420F0000100240AD
:100AC00004080140940400204D435520636C6F637B
:100AD0006B206672657175656E63793A25644D4861
:100AE0007A200D0A00000000554152542031206246
:100AF000617564206672657175656E63793A256407
:100B0000200D0A002C0000207448816941F0040186
:100B10008161816941F00801816171490A686FF35F
:100B20000B020A606F490A6822F00F020A608169AD
:100B300041F400718161C16841F40071C160C16814
:100B400021F40071C160416821F440414160416875
:100B500041F40041416064480168644A1140016009
:100B600001680160016821F480710160001D016865
:100B700021F002010160016821F460210160016837
:100B800041F460210160016841F480110160016855
:100B900021F400610160016841F4000101605249E3
:100BA00028310A6822F470020A600A6800220A608A
:100BB0004D490C310A6822F038020A600A6842F096
:100BC00038020A60011D0A6822F4E0120A600A680D
:100BD00042F4E0120A60016841F00101016001681D
:100BE00041F00801016001680907FCD4016841F087
:100BF0000401016001684907FCD470473A4930316B
:100C00000A6822F01F020A600A6802430A60364836
:100C1000001D016841F4800101603348001F016834
:100C20008907FCD530484830006880B2704770B5FD
:100C300000240D460646234605E03046FFF7DEFF5A
:100C40005B1C0444DBB2AB42F7D3B4FBF5F080B2DB
:100C500070BD10B5002423461020FFF7CFFF5B1CAA
:100C60002044DBB284B2142BF6D31420B4FBF0F092
:100C700003F08EFB4FF066321D4B03F09DFB03F03B
:100C800055F903F08DFD1B4A1B4B03F093FC1B4AE7
:100C90001B4B03F025FA00221A4B03F079F903F0FD
:100CA00045F9194903F03AFFBDE8104003F0CEBE04
:100CB00010B50F210820FFF7BAFF03F069FB4FF0D2
:100CC00066320B4B03F078FBBDE8104003F02EB901
:100CD00010B5FFF7EDFF012010BD0000001002402D
:100CE00000080140000C014004240140FFFFF00017
:100CF00066664A3FE17A14AE47E1F63F22FDF6759B
:100D0000E09C713F00003940000020412DE9FF4781
:100D100001210D2001F0EBFA07208DF808000420D6
:100D20008DF8090000248DF80A4001258DF80B503C
:100D300002A801F048F809208DF8080005208DF878
:100D400009008DF80A408DF80B5002A801F03BF81D
:100D500017208DF8080006208DF809008DF80A404C
:100D60008DF80B5002A801F02EF84FF00208ADF8F4
:100D70000C804826DFF820918DF80F6003278DF84E
:100D80000E7003A9484601F0C8F84FF0080AADF804
:100D90000CA08DF80F608DF80E7003A9484601F085
:100DA000BCF84FF48079ADF80C908DF80F608DF899
:100DB0000E7003A9394801F0B0F80121084601F08E
:100DC00064F98DF804400C268DF80560CDF800809C
:100DD0008DF80650684602F02FFB0321012001F038
:100DE00054F98DF804408DF80560CDF800A08DF819
:100DF0000650684602F020FB0821002001F045F96A
:100E00008DF804408DF80560CDF800908DF80650FF
:100E1000684602F011FBBDE8FF8710B5022002F022
:100E20005BFB00280CD01E495A2008701DA002F060
:100E3000A5FE00F0B5F9BDE81040022002F05ABB53
:100E400010BD10B5082002F047FB00280AD01A494F
:100E50000120087019A002F091FEBDE810400820A2
:100E600002F048BB10BD10B54FF48074204602F06C
:100E700033FB00280ED01649087848B100200870CE
:100E800014A002F07BFE2046BDE8104002F032BB09
:100E90000120F4E710BD0000000C014000080140F3
:100EA0006B0000206B6579206D6F64652070726542
:100EB00073732E2E2E0D0A00620000206B657920C0
:100EC0006164642070726573732E2E2E0D0A00000B
:100ED000630000206B657920737562207072657302
:100EE000732E2E2E0D0A000070B586B0012104204D
:100EF00001F0FDF90121082001F0F9F901210803B1
:100F000001F0F5F9E020ADF8140001258DF8165038
:100F100018202F4E8DF8170005A9304600F0FDFF70
:100F2000E803ADF814008DF8165010248DF8174022
:100F300005A9304600F0F1FFADF814408DF81650C9
:100F40008DF8174005A9304600F0E7FF1021304624
:100F500001F051F80020ADF800004FF48271ADF8B7
:100F60000210ADF80800ADF80C40ADF804006101C6
:100F7000ADF80600ADF80E000720164CADF80A10CB
:100F8000ADF810006946204602F032F901212046F2
:100F900002F0ABF910A002F0F1FD06B070BD70B523
:100FA0000C4C05460221204602F00BFA0028F9D02D
:100FB0002946204602F0C1F90121204602F001FA3B
:100FC0000028F9D0204602F0BAF9C0B270BD000086
:100FD00000080140003001405350492062757320E1
:100FE000696E697420737563636573732E2E2E0D9D
:100FF0000A00000070B5FB4D00F01F0410212846C8
:1010000000F0FBFF2046FFF7CAFF0020FFF7C7FFF5
:1010100004461021284600F0EEFF204670BD2DE961
:10102000F041F04E044601F01F07154610213046EE
:1010300000F0E3FF3846FFF7B2FF04E00020FFF7BF
:10104000AEFF04F8010B6D1EEDB2F7D23046BDE8DD
:10105000F041102100F0CFBF70B500F01F00E14E4D
:101060000D4640F020041021304600F0C6FF204617
:10107000FFF795FF2846FFF792FF3046BDE8704026
:10108000102100F0B8BF2DE9F04100F01F00D54E4F
:101090000C4640F0200715461021304600F0ADFF09
:1010A000384601E014F8010BFFF779FF6D1EEDB231
:1010B000F8D23046BDE8F041102100F09CBF70B579
:1010C000C84D04461021284600F097FF2046FFF740
:1010D00066FF04461021284600F08DFF204670BDB3
:1010E0002DE9F04117460546BF48BF4A00785478BD
:1010F00008B1002000E0601AC6B2A14200D20C463E
:10110000DFF8E0821021404600F077FF3846FFF715
:1011100046FF074604E000BF15F8010BFFF73FFF4D
:10112000641EE4B2F8D202E00020FFF738FF761E1A
:10113000F6B2F9D21021404600F05DFF3846BDE816
:10114000F0812DE9F0410546A748A74A0078547878
:1011500008B1002000E0601AC6B2A14200D20C46DD
:10116000DFF880821021404600F047FF6120FFF742
:1011700016FF074604E00020FFF711FF05F8010BFA
:10118000641EE4B2F7D202E00020FFF708FF761EEB
:10119000F6B2F9D21021404600F02DFF3846CEE7D6
:1011A00010B500F0D5FC904908310871BDE8104039
:1011B00000F0EDBD70B500252C46FFF795FE4FF40D
:1011C0000041884800F019FF8748C0F80D5044746A
:1011D00008300079002802D1BDE87040E0E770BD1A
:1011E00010B50020FFF706FF810709D440F0020187
:1011F0000020FFF731FFBDE810400520FFF794B84D
:1012000010BDE1205BE7E22059E710B50620FFF7AB
:10121000F1FE00F02800202803D0082803D0012088
:1012200010BD002010BD022010BD0520E2E670B503
:10123000054600260620FFF7DDFE022D00D302251D
:1012400020F0280468485521416015B1022D04D0D2
:1012500007E044F020049B2102E044F0080441210F
:10126000416021460620FFF7F7FE0620FFF7C2FE89
:10127000A04200D10126304670BD10B504460620BC
:10128000FFF7B8FE00F0F800032C00D3032440EA77
:101290004400C1B2BDE810400620DDE610B50446AA
:1012A0000020FFF7A7FE20F00C011CB1012C05D097
:1012B00041F00C01BDE810400020CDE641F00801EE
:1012C000F8E72DE9FF5F1E46DDE912B5DDE90EA85E
:1012D00091460746FFF76EFF7F2F01D2394600E0A7
:1012E0007F210520FFF7B8FE56B1202E00D9202619
:1012F0003D4CB8F1030F667004D24FF0030806E0CE
:101300000126F5E7B8F1050F01D94FF0050884F87B
:101310000280A8F1020808F0FF010320FFF79CFEFD
:10132000119808B13F2100E000210120FFF794FE51
:10133000BAF1000F11D01D20FFF75CFE40F0040150
:101340001D20FFF789FE1C20FFF754FE40F03F01EF
:101350001C20FFF781FE012020701098FFF79EFFF0
:101360000BF00F00294660F31F110420FFF774FEF5
:101370000198FFF782FF4846FFF759FF70210720C9
:10138000FFF76AFEFFF751FFB84203D1FFF73DFFB9
:10139000484503D0002004B0BDE8F09FE220FFF7ED
:1013A0008EFEE120FFF78BFEFFF71AFF6420FEF7A9
:1013B000BBFF0020FFF71EFE20F001010020FFF719
:1013C0004BFE0120E7E770B50D460446062813D80A
:1013D0000120FFF70FFE0122A2403DB10243D1B22E
:1013E00006E00000000801403000002020EA020171
:1013F000BDE8704001202FE670BD10B51720FFF743
:10140000F9FD40F30000401C10BD10B5FF20FFF7B0
:1014100056FEC0F3420010BD10B54FF40041FC4829
:1014200000F0EBFD0020FFF7E5FD20F00201BDE834
:101430001040002010E6FF2041E670B50646144635
:101440000D460020FFF7D6FD40EA051040EA4610A1
:1014500040EA8410BDE87040C1B20020FCE510B540
:101460006020FFF72CFE202806D9E220FFF727FE98
:101470000220FEF759FF002010BD70B50024204661
:10148000FFF7B8FD00F00C050120FFF7B3FD05F0F4
:101490000801014304D0680701D5022400E00124BB
:1014A000204670BD10B50920FFF7A4FD00F0010033
:1014B00010BD70B5D64D4FF400442146284600F0CB
:1014C0009CFD10210720FFF7C7FDE320FFF7F7FD84
:1014D00021462846BDE8704000F08DBD10B50620BD
:1014E000FFF788FDC0F3410010BD10B51D20FFF7C8
:1014F00081FD40F006011D20FFF7AEFD1C20FFF727
:1015000079FD40F03F011C20FFF7A6FDC1490120F5
:10151000087010BD10B51D20FFF76CFD40F00101F3
:10152000BDE810401D2097E510B5FFF784FF044685
:1015300070210720FFF790FDC4F34011C4F30010A1
:101540004143C4F380104143C1EB0110400010BD82
:1015500010B54FF40041AE4800F04FFDAD4C60684F
:10156000FEF7F3FE1D20FFF745FD800705D56068F7
:10157000FEF7EBFEE120FFF7A2FDA649A2780831B5
:101580000A20FFF780FD61781120FFF765FD02203A
:10159000FFF730FD40F001010220FFF75DFD002064
:1015A000FFF728FD20F00101BDE81040002053E5C1
:1015B00010B504460220FFF71DFD0121A14020EADD
:1015C0000101BDE81040022046E510B50020FFF7FC
:1015D00011FD40F001010020FFF73EFD70210720C2
:1015E000FFF73AFD4FF40041894800F004FD8948B7
:1015F0000D3001784278C3781143827800791A431C
:101600001143014313D0834C0A2004F10D01A27849
:10161000FFF739FD61781120FFF71EFD0220FFF76B
:10162000E9FC40F001010220FFF716FD02E0002076
:10163000FFF7BEFF1D20FFF7DDFC800703D5BDE8E7
:101640001040E1203BE510BD13B5724C694604F132
:101650000800A27802F07DFBA27869461020FFF70F
:1016600012FD1CBD6B4800F10801827810200AE5CC
:101670007FB5684D04001CD0012C2AD0A01E042880
:101680000CD20C30C0B2012202A9FFF7FCFC04F11D
:101690001100C0B295F80110FFF7DEFC0220FFF741
:1016A000A9FC0121A1400843C1B20220FFF7D4FCEC
:1016B0007FBDAA7802A90A20FFF7E5FC697811200E
:1016C000FFF7CAFC5348AA7802A90D3002F0FCFAD1
:1016D000E4E7AA7802A90B20FFF7D5FC697812206D
:1016E000DAE710B5FFF72DFD7021BDE810400720A7
:1016F000B2E42DE9F04106460C46202A00D3202210
:10170000434F15461021384600F077FC06F00700DD
:1017100040F0A80002E000BF14F8010BFFF73FFC07
:101720006D1EEDB2F8D23846BDE8F041102100F050
:1017300062BC10B51C460AB1A02200E0B022FFF73F
:10174000CFFC002C06D0BDE810404FF400413048DB
:1017500000F051BC10BD2DE9F0471F469046894668
:101760008246089C00F01FFA044470210720FFF70E
:1017700073FC274E4FF400452946304600F03BFCF1
:10178000D7B91EE0FFF757FEC00607D51021072086
:10179000FFF762FC2946304600F02DFC00F003FA0A
:1017A000A04209D92946304600F027FCE120FFF786
:1017B00086FC0020BDE8F087FFF73DFEC007E1D1C1
:1017C00006E02946304600F018FCE120FFF777FCE0
:1017D0000123424649465046FFF7ABFF0120E9E7A7
:1017E0002DE9F0471F46904689468246089C00F046
:1017F000DAF9044470210720FFF72EFC044E4FF461
:1018000000452946304600F0F6FBAFB919E000006C
:101810000008014030000020FFF70DFEC00607D58C
:1018200010210720FFF718FC2946304600F0E3FBA3
:1018300000F0B9F9A04223D8FFF7FDFDC007EBD1B6
:1018400006E02946304600F0D8FBE120FFF737FCE0
:101850000123424649465046FFF76BFF19E000BF9F
:10186000FFF7E9FDC00607D510210720FFF7F4FBBD
:101870002946304600F0BFFB00F095F9A04208D998
:101880002946304600F0B9FBE120FFF718FC0020A4
:1018900090E71720FFF7AEFBC006E1D5294630469A
:1018A00000F0ABFB70210720FFF7D6FB012081E79A
:1018B0002DE9F0410C46074600F075F9404E04440E
:1018C0004FF400452946304600F095FBCFB91EE0A5
:1018D000FFF7B1FDC00607D510210720FFF7BCFBBD
:1018E0002946304600F087FB00F05DF9A04208D998
:1018F0002946304600F081FBE120FFF7E0FB0020A5
:101900001DE41720FFF776FBC006E1D502E0E120D9
:10191000FFF7D5FB2946304600F06FFB702107200A
:10192000FFF79AFB01200AE42DE9FC5F0646C80098
:1019300093460838C2B21C469146FF20002102F0AF
:101940000AF905468846E8436FEA0802CDE9000235
:1019500000F029F900EB040AD6E900230120FFF783
:1019600087FEFFF732FE1FFA8BF0FEF7DDFCFFF774
:1019700044FD28B1E220FFF7A2FB0120BDE8FC9F57
:1019800000F011F9504501D90020F7E7D6E90074BD
:1019900025EA070028EA0401084309D04A46012045
:1019A000002102F0D8F838184C41C6E90004D3E70A
:1019B000DDE9000107400C40C6E90074CCE70000F7
:1019C0000008014086B0092000F019F900F0AEF8D7
:1019D0004A484FF47A7700240068B0FBF7F0B0F182
:1019E000807F0CD220F07F414FF0E020491E416102
:1019F000434AF02182F8141D846107210161414DA1
:101A00004FF4E1312878FEF776FF00F0D3F8FEF7C7
:101A100055FE00F0A4F9FEF7CEFCFFF775F8FFF7CE
:101A200075F901260920CDE9046002210520CDE9E0
:101A30000216CDE900400A46202303212820FFF7A3
:101A400040FCFFF70FFEFFF783FD01F0E7FD4FF4C9
:101A5000FA612878FEF787FD39462878FEF759FDA8
:101A600001210220FEF77CFC01210320FEF778FC17
:101A70002548002104700220FEF772FC002103209B
:101A8000FEF76EFC214FDFF88880DFF88890224D4A
:101A90003888012819D13C80687858B1FFF702FDD9
:101AA00008B12E7007E0287810B10020287002E0FD
:101AB0000120FBE72C7029780120FEF751FC01F092
:101AC00046FE01F0A1FE01F0AEFEB8F800100129BB
:101AD00001D1A8F80040B9F800100029D8D0A9F821
:101AE000004001F00FFD02F011F8072001F06AFF3D
:101AF00008B16E70CCE76C70CAE7000000000020EF
:101B00000FE000E04C000020620000201E000020DA
:101B10002000002022000020420000207047FEE745
:101B2000FEE7FEE7FEE770477047704700B585B0F7
:101B3000684600F093FB1D490098B0FBF1F01C498A
:101B4000086005B000BD1A484168491C41607047F3
:101B500010B517484FF0E02341689A694468A142E4
:101B6000FAD10368006803EB4304C4EBC313C2EB70
:101B7000C302B2FBF0F001EB4102C2EBC11100EB7A
:101B8000C10010BD30B50546FFF7E2FF044605EB86
:101B90004500C0EBC51500BFFFF7DAFF001BB0EB37
:101BA000C50FF9D330BD02484068704740420F006E
:101BB0004400002010B5FEF700FDBDE81040FEF720
:101BC00089BE3C4800210161C160142242618161EB
:101BD000C161026842F0010202604268364B1A405D
:101BE00042600268354B1A400260026822F480228B
:101BF0000260426822F4FE024260816070472D4913
:101C00000A6842F001020A600A680A600A6842F43F
:101C100080220A600A689207FCD54A68284B03EBC9
:101C200080431A434A604A684A600A6842F08072F8
:101C30000A600A689201FCD54A6842F002024A60D2
:101C400020498006000E0870704710B50446FFF763
:101C5000B8FF1849086840F4803008600868400CF4
:101C6000FCD04FF480604860A41E4A68E0B242EAAB
:101C700080424A604A6842F480324A60124A1368DD
:101C800043F0320313600A6842F080720A600A6807
:101C9000520EFCD04A6842F002024A604A68C2F31F
:101CA0008102022AFAD1C00006491030C0B2087081
:101CB00010BD0000001002400000FFF8FFFFF6FE1C
:101CC0000000F8FF4C0000200020024002223349AF
:101CD0003348FEF77ABD0E2230493148FEF768BD21
:101CE0000E222E492E48FEF770BD2C482D4A418801
:101CF00011802D4A818811802C4AC18811802C4A7C
:101D0000018911802B4A817A11702B49007B08715F
:101D100070472248012101802249098841802249D7
:101D20000988818021490988C18021490988018168
:101D3000204991F9001041811F490979818170473B
:101D4000184900201B4A0880174908801749088055
:101D5000174908805A21117017490871704710B54A
:101D600002220E490E48FEF723FD0C4B0124188871
:101D7000012807D0FFF7E4FFFFF7CBFF1C80BDE889
:101D80001040ADE7FFF7A7FFBDE81040ADE710B585
:101D9000FFF7BFFFBDE81040A2E70000AC05002040
:101DA00000F000086C0000206E0000207000002091
:101DB000720000206B0000203800002028490843F2
:101DC00028490860704770B50F23C4780178012254
:101DD000F4B1244C2468457804F4E064C4F5E0646C
:101DE000240AC4F10406E3408478B5401C402C4327
:101DF00001F1E021230181F80034007800F01F0197
:101E00008A404009800000F1E020C0F8002170BD48
:101E100001F01F0082404809800000F1E020C0F876
:101E2000802170BD104A114001430E48001F01601F
:101E300070470C4A121D0029116801D0014300E0CF
:101E40008143116070474FF0E0210428086903D0F6
:101E500020F004000861704740F00400FAE7000039
:101E60000000FA050CED00E080FFFF1F914910B55E
:101E7000884206D10121042000F04BFA0021042001
:101E80003BE08D49884206D10121082000F041FA4B
:101E90000021082031E08949884206D10121102023
:101EA00000F037FA0021102027E08549884206D14A
:101EB0000121202000F02DFA002120201DE0814981
:101EC000884206D10121402000F023FA0021402061
:101ED00013E07D49884206D10121802000F019FAE3
:101EE0000021802009E0794988420AD18415012126
:101EF000204600F00EFA00212046BDE8104000F018
:101F000008BA10BD10B50121084600F002FA002100
:101F1000BDE81040012000F0FCB9F0B5CA780025FA
:101F200002F00F03D20601D58A7813430A784FF0E6
:101F30000F0E12F0FF0F4FF001021DD0D0F800403D
:101F40000F8802FA05F63740B74211D14FEA850CE7
:101F50000EFA0CF724EA070703FA0CF43C43CF7897
:101F6000282F02D0482F02D002E0466100E006612F
:101F70006D1C082DE4D304600C88FF2C1ED9446826
:101F80005FF0000606F1080702FA07F50F882F40F8
:101F9000AF420FD14FEA860C0EFA0CF7BC4303FA9E
:101FA0000CF73C43CF78282F00D14561CF78482FDC
:101FB00000D10561761C082EE4D34460F0BD4FF6D5
:101FC000FF710180022181700421C17070470246B7
:101FD000002092680A4200D001207047806880B2D9
:101FE000704702460020D2680A4200D001207047A4
:101FF000C06880B2704701617047416170470AB1A3
:102000000161704741617047C160704741F480329F
:102010008261816182618169806970472C4B10B552
:102020001A684FF68074224042EA00100843186094
:1020300010BD2849C8617047F0B5254C002801DA69
:10204000E36900E06368420D120185B2C0F30157F5
:102050009540C0F30346032F05D0C2020AD50322E0
:10206000B240934307E023F07062636823F070632B
:10207000636002E0AB4343F0706201B12A43002881
:1020800001DAE261F0BD6260F0BD10B58A0721F0AF
:1020900003040F49130F21440F228C689A40944384
:1020A0008C608A68984002438A6010BD0949C1F873
:1020B000DC00704700080140000C014000100140A6
:1020C0000014014000180140001C014000200140A4
:1020D0000000014000002042A448016841F00101D5
:1020E00001604168A24A114041600168A14A114063
:1020F0000160016821F480210160416821F4FE0142
:1021000041604FF41F018160704798490A6822F4CA
:1021100080320A600A6822F480220A60B0F5803FAB
:1021200007D0B0F5802F03D1086840F4A0200860E4
:102130007047086840F48030F9E7024600205309F0
:102140008A49012B0AD0022B0AD0496A02F01F02E9
:10215000012393400B4200D0012070470968F5E746
:10216000096AF3E718B500204FF4A064009031200D
:10217000FFF7E3FF0099491C0091A14201D000281C
:10218000F5D03120FFF7D9FF002800D0012018BD7D
:1021900076490A6822F0F80242EAC00008607047F7
:1021A000754908607047714A5368084323F47C13EB
:1021B0001843506070477049086670476B4A516811
:1021C00021F003010143516070476848406800F006
:1021D0000C007047654A516821F0F00101435160DD
:1021E0007047624A516821F4E061014351607047D1
:1021F0005E494A6822F4605242EAC0004860704773
:102200005A4A0029517A01D0014300E081435172BA
:1022100070475949C1F8D8007047544A516821F4B1
:1022200040410143516070475049002281F820200D
:1022300081F82020012802D0042802D1052081F84D
:10224000200070474D490860704748490A6A0243B8
:102250000A627047494944390860704730B54349BC
:102260004A6812F00C03464A03D0042B01D0082B15
:1022700021D002604A680F23424C03EA1212A35C89
:102280000268DA4042604B68072505EA1323E35CE5
:1022900022FA03F383604B6805EAD323E35CDA4058
:1022A000C2604968032303EA9131231F595CB2FBE2
:1022B000F1F1016130BD4A684B6802F470124FF0D1
:1022C000020413F4803F04EB924202D04B689B035C
:1022D00001D52D4B00E02A4B5A43CAE7234A002977
:1022E000516901D0014300E08143516170471F4AA9
:1022F0000029916901D0014300E081439161704759
:102300001A4A0029D16901D0014300E08143D1611B
:102310007047164A0029D16801D0014300E081438B
:10232000D1607047114A0029116901D0014300E0D2
:1023300081431161704711494039086070470E4967
:10234000C86470470949C87170470848416A41F03C
:10235000807141627047054A0146002092680A4236
:1023600000D0012070470149887270470010024078
:102370000000FFF8FFFFF6FE0000424280044242E8
:1023800000127A005100002000093D00F94910B503
:10239000884202D10121C41486E0B0F1804F09D0F7
:1023A000F54988420DD101210220FFF7BBFF002132
:1023B000022064E001210846FFF7B4FF002101205C
:1023C0005DE0EE49884206D101210420FFF7AAFF13
:1023D0000021042053E0EA49884206D10121082067
:1023E000FFF7A0FF0021082049E0E649884206D116
:1023F00001211020FFF796FF002110203FE0E24965
:10240000884206D101212020FFF78CFF00212020E7
:1024100035E0DE49884202D10121441444E0DC4920
:10242000884202D10121CC043EE0DA49884202D13F
:1024300001210C0538E0D849884202D101214C0520
:1024400032E0D649884206D101214020FFF76AFFD9
:102450000021402013E0D249884206D1012180208A
:10246000FFF760FF0021802009E0CE4988420AD1B1
:10247000841501212046FFF755FF00212046BDE8C5
:102480001040FFF74FBFC849884202D101210C0418
:102490000AE0C649884202D101214C0404E0C44943
:1024A00088420AD101218C042046FFF732FF2046E2
:1024B000BDE810400021FFF72CBF10BD30B50288E9
:1024C000AC4BB24C98420DD0A0420BD0B0F1804F33
:1024D00008D0A94DA84205D0A84DA84202D0A84DC9
:1024E000A84203D122F070054A882A43A54DA8428C
:1024F00006D0A54DA84203D022F44075CA882A43CD
:1025000002808A8882850A88028598420AD0A04281
:1025100008D0A54A904205D0A44A904202D0A44ACD
:10252000904201D1097A01860121818230BD30B506
:10253000028C22F001020284028C8388048B22F038
:10254000020224F073050C882C430D8915434A8838
:102550002A43884DA8420BD08C4DA84208D0924DFA
:10256000A84205D0914DA84202D0914DA8420DD16C
:1025700022F008054A8923F440732A4322F0040517
:102580008A882A438D891D43CB892B43838004830A
:10259000C9888186028430BD70B5028C22F0100299
:1025A0000284028C8488038B0D8823F4E6464FF660
:1025B000FF7303EA052535430E8922F0200203EA62
:1025C000061616434A8803EA02123243694EB042A5
:1025D00002D06E4EB04215D122F080064A8924F412
:1025E000406403EA0212324322F040068A8803EA7A
:1025F000021232438E8903EA86062643CC8903EA17
:102600008404344384800583C9880187028470BDB3
:1026100070B5028C22F480720284028C8488838BD1
:102620000D8823F073031D4322F400730E894FF6C7
:10263000FF7202EA06261E434B8802EA0323334355
:102640004C4EB04202D0514EB04215D123F4006638
:102650004B8924F4405402EA0323334323F4806675
:102660008B8802EA032333438E8902EA0616264347
:10267000CC8902EA0414344384808583C988818725
:10268000038470BD70B5028C22F480520284048CE5
:102690008288838B0D8823F4E6464FF6FF7303EAA6
:1026A0000525354324F400560C8903EA04343443E9
:1026B0004E8803EA063626432E4CA04202D0334C05
:1026C000A04205D122F480448A8903EA821222437F
:1026D00082808583C988A0F84010068470BD828BF3
:1026E00022F440628283828B4FF6FF7303EA01215A
:1026F0000A4382837047828B22F00C028283828B92
:102700000A4382837047028B22F440620283028B69
:102710004FF6FF7303EA01210A4302837047F0B5C5
:10272000048C24F010040484078B048C4FF6FF758E
:1027300027F4734705EA03333B4305EA02221A43B1
:102740000C4B05EA011698420ED0104B98420BD064
:10275000B0F1804F08D0084B984205D0074B984203
:1027600002D0074B984225D124F02001314341F09B
:10277000100124E0002C014000040040000800404B
:10278000000C0040001000400014004000340140E4
:10279000004C01400050014000540140001800402E
:1027A000001C004000200040004001400044014067
:1027B0000048014024F0A0030B4343F010010283C2
:1027C0000184F0BD028B22F00C020283028B0A43CB
:1027D0000283704770B5048C24F001040484058BD7
:1027E000048C4FF6FF7606EA0313134325F0F30536
:1027F000F94A2B4390420ED0F84A90420BD0B0F1E8
:10280000804F08D0F64A904205D0F64A904202D056
:10281000F54A904202D124F0020201E024F00A02BB
:102820000A4342F001010383018470BD2DE9F05F8A
:102830000D4604460888E84FDFF8A0C3DFF8A08300
:102840004988AA882B894FF0804960B3042832D088
:102850004FF6FF7E082836D0208C9B4620F480500F
:102860002084A38B268C704600EA022223F4734353
:102870001A4300EA0B3010430EEA013EBC420BD073
:10288000644509D04C4507D0444505D0D54A94420B
:1028900002D0D54B9C4245D126F4005141EA0E01AD
:1028A00041F4805143E02046FFF794FFE988204639
:1028B000BDE8F05F86E72046FFF731FFE988204654
:1028C000BDE8F05F1FE7208C20F480702084B4F80E
:1028D0001CA0208C0EEA031313432AF0F30A0EEA1D
:1028E000012B43EA0A03BC420BD0644509D04C4596
:1028F00007D0444505D0BB4A944202D0BA4A94421C
:1029000004D120F4007040EA0B0002E020F42060C3
:10291000084340F48070A3832084E9882046BDE802
:10292000F05FE8E626F402420A4342F48051A083B5
:1029300020462184E988BDE8F05FD0E62DE9F0412A
:102940000C46002649880746012501B90226A288BF
:10295000012A00D10225208823890028384610D07A
:10296000FFF7DDFEE1883846FFF7CDFE23892A46D2
:1029700031463846FFF72EFFE1883846BDE8F04182
:1029800020E7FFF727FFE1883846FFF71BFF238981
:102990002A4631463846FFF7C2FEE1883846BDE890
:1029A000F041B0E610B50A884B88CC881A438B8872
:1029B00023431A430B891A434B8989891A430A43D3
:1029C000A0F8442010BD4FF6FF71818000210180E6
:1029D000C180418001727047002101804180818067
:1029E000C180018141818181C181704700210180C5
:1029F000418001228280C1800181704700210180D5
:102A000041808180C180018141818181704700299D
:102A1000018802D041F0010101E021F001010180B3
:102A20007047002930F8441F02D041F4004101E012
:102A3000C1F30E0101807047002A828901D00A4348
:102A400000E08A4382817047818270471143A0F879
:102A500048107047002A828901D00A4300E08A4367
:102A600082817047018921F0070101817047028945
:102A700022F070020A430281704700B50346FFF757
:102A8000F6FF188940F00700188100BD70B51646A2
:102A90000D46602904464FF0010231460AD0FFF787
:102AA00099FE29462046FFF7E2FF208940F0070003
:102AB000208170BDFFF733FEF3E730B504894FF690
:102AC000FF7505EA03231343E4B20B432343038159
:102AD00030BD10B50446FFF7F0FF208940F07700C5
:102AE000208110BD10B50446FFF7E7FF208940F4B0
:102AF0008040208110BD018582827047028822F0CB
:102B000070020A430280704770B50589048B068CF9
:102B100025F007050D434FF6FC410C4040F2011132
:102B20000C434FF6FF7101EA031126F02206114310
:102B3000314305810483018470BD028B22F0700251
:102B40000A4302837047028B4FF6FF7322F4E04280
:102B500003EA0121114301837047828B22F0700246
:102B60000A4382837047828B4FF6FF7322F4E04260
:102B700003EA01211143818370470029018802D0B3
:102B800041F0800101E021F08001018070470029BF
:102B9000818802D041F0040101E021F0040181802C
:102BA00070470029818802D041F0080101E021F03E
:102BB0000801818070470029818802D041F001011D
:102BC00001E021F0010181807047028B22F00802B0
:102BD0000A43028370470000002C0140003401408A
:102BE0000004004000080040000C0040028B4FF63B
:102BF000FF7322F4006203EA012111430183E9E734
:102C0000828B22F008020A438283E3E7828B4FF62D
:102C1000FF7322F4006203EA012111438183D9E7A3
:102C2000028B22F004020A430283D3E7028B4FF6A1
:102C3000FF7322F4806203EA012111430183C9E793
:102C4000828B22F004020A438283C3E7828B4FF611
:102C5000FF7322F4806203EA012111438183B9E703
:102C6000028B22F080020A430283B3E7028B4FF605
:102C7000FF73C2F30E0203EA012111430183A9E7A6
:102C8000828B22F080020A438283A3E7828B4FF675
:102C9000FF73C2F30E0203EA01211143818399E716
:102CA000028C22F002020A43028493E7028C22F093
:102CB00008020A4302848DE7028C4FF6FF7322F06C
:102CC000200203EA01111143018483E7028C4FF6CD
:102CD000FF7322F0800203EA01111143018479E7B6
:102CE000028C4FF6FF7322F4007203EA01211143B4
:102CF00001846FE7028C4FF6FF7322F4006203EA4F
:102D000001211143018465E7028C4FF6FF7322F421
:102D1000005203EA0131114301845BE710B501233E
:102D2000048C8B409C430484038C8A4013430384AB
:102D300010BD10B50423048C8B409C430484038C89
:102D40008A401343038410BD30B50124058C00F183
:102D500018038C40A543058489B108290FD0091FA9
:102D6000C1F34E001844016821F4E041016001689C
:102D70004FF6FF7303EA02221143016030BD03EBFB
:102D80005100016821F0700101600168F4E7002939
:102D9000018802D041F0020101E021F0020101802E
:102DA00018E70029018802D041F0040101E021F078
:102DB000040101800EE70029818802D041F08001E2
:102DC00001E021F08001818004E7028822F00802FE
:102DD000028002880A430280FCE6828822F07002A8
:102DE000828082880A438280F4E6028922F0070208
:102DF000028102890A430281ECE6028922F0800204
:102E0000028102890A430281E4E68184E2E6818547
:102E1000E0E68186DEE60187DCE68187DAE6A0F877
:102E20004010D7E6028822F44072028002880A43EA
:102E30000280CFE6808ECDE6008FCBE6808FC9E69C
:102E4000B0F84000C6E6808CC4E6008DC2E60246BB
:102E50000020128A0A4200D00120BBE6C943018249
:102E6000B8E602460020138A92890B4202EA010268
:102E700002D0002A00D00120ACE6C9430182A9E6B5
:102E8000C44910B588420AD101218C032046FFF7BE
:102E900040FA2046BDE810400021FFF73ABABE498B
:102EA000884202D101214C0410E0BC49884202D181
:102EB00001218C040AE0BA49884202D10121CC04E4
:102EC00004E0B84988420AD101210C052046FFF7E9
:102ED00029FA2046BDE810400021FFF723BA10BDB3
:102EE00030B50446008A85B00D464CF6FF710840A7
:102EF000E98801432182A1894EF6F3100140A88898
:102F00002A8910436A890A431043A081A08A4FF698
:102F1000FF410840A9890143A1826846FFF79EF955
:102F20009C48844201D1039800E00298A1890904D9
:102F300000EBC00101EB0010296801D5490000E059
:102F40008900B0FBF1F06422B0FBF2F109010B093A
:102F50006FF018056B4300EB8300A3891D044FF04D
:102F6000320306D503EBC000B0FBF2F000F007001F
:102F700005E003EB0010B0FBF2F000F00F00084397
:102F8000208105B030BD4FF41651016000218180D1
:102F9000C18001810C2242818181704710B5038A72
:102FA0004FF2FF0213400A884C8822438C88C9885C
:102FB0000C4322431A43028210BD0021018041804C
:102FC0008180C18070470029818902D041F400517D
:102FD00001E021F400518181704710B5C1F3421323
:102FE00001F01F040121A140012B07D0022B07D0C3
:102FF0001430002A026805D00A4304E00C30F8E7D8
:103000001030F6E78A43026010BD002A828A01D0A0
:103010000A4300E08A4382827047028A22F00F024C
:103020000282028A0A4302827047828922F4006285
:10303000828182890A43828170470029818902D076
:1030400041F0020101E021F0020181817047028A12
:1030500022F020020282028A0A430282704700297B
:10306000018A02D041F4804101E021F480410182D3
:103070007047C1F30801818070478088C0F3080061
:103080007047818941F0010181817047028BD2B282
:103090000283028B42EA012101837047028B02F412
:1030A0007F420283028B0A43028370470029818A90
:1030B00002D041F0200101E021F02001818270471F
:1030C0000029818A02D041F0100101E021F01001B5
:1030D000818270470029818A02D041F0080101E015
:1030E00021F00801818270470029818902D041F4D2
:1030F000004101E0C1F30E01818170470029818AFE
:1031000002D041F4006101E021F400618182704746
:10311000828A22F004028282828A0A438282704773
:103120000029818A02D041F0020101E021F0020170
:10313000818270470246002012880A4200D0012096
:103140007047C9430180704730B501F01F02012468
:103150000025C1F3421304FA02F2012B0FD0022B17
:103160000FD0838A4FEA11210088134204FA01F438
:1031700000EA040001D000B10125284630BD838952
:10318000F0E7038AEEE70A0A01219140C943018072
:1031900070470000003801400044004000480040F3
:1031A000004C004000500040994910B588420AD1B7
:1031B000841401212046FFF7ACF82046BDE81040FA
:1031C0000021FFF7A6B89349884202D101210414D7
:1031D00004E0914988420AD10121C4132046FFF737
:1031E000A1F82046BDE810400021FFF79BB810BDB4
:1031F00030B502884C8802F441530A88CD882243B6
:103200008C882C4322430C8922434C8922438C898D
:103210002243CC8922431A430280828B22F400622B
:103220008283098A018230BDF0B505460C46022032
:103230000021AA8B85B001264FF240031A40AA83D1
:103240002884AF8BA268022A27D0A08800B102266A
:103250006846FFF703F8E1880098B1F5007F2DD0AC
:103260007101B0FBF1F000BF00EB8000A1684000ED
:10327000B0FBF1F0401D80B20A21B0FBF1F000F08C
:103280000101401A4FF6FF72C0F34F0002EA01211C
:10329000821EFE2A01D302200021E2880843024355
:1032A0002A8420886188A2890843A18811430843A1
:1032B000384340F40060A88305B0F0BD000AD3E7AE
:1032C0000021018041808180C18001814181818113
:1032D000C1810721018270470021018041808180E6
:1032E000C18002228260818170470029018802D05A
:1032F00041F0400101E021F04001018070470029C8
:10330000818B02D041F4806101E021F480618183EE
:103310007047090901238B40002A828899B201D0A5
:103320000A4300E08A4382807047002A828801D0E5
:103330000A4300E08A438280704781817047808918
:103340007047A1F57E420188FF3A02D041F48071B6
:1033500001E021F48071018070470029818802D04A
:1033600041F0040101E021F00401818070470288EE
:1033700022F40062028002880A43028070470188BA
:1033800041F48051018070470029018802D041F446
:10339000005101E021F4005101807047012901D062
:1033A000008B7047808A7047008A7047B1F5804F64
:1033B000018803D021F480410180704741F48041AD
:1033C000FAE70246002012890A4200D00120704725
:1033D000C9430181704710B501F00F040122034673
:1033E00002FA04F4002009098A4091B29A88A4B232
:1033F0000A401989214202D0002A00D0012010BDC4
:1034000001F00F0201219140C94301817047000082
:103410000030014000380040003C004037490020A7
:103420000860091D0860091D0860091D086033490E
:10343000334814310860704730B5304983790268E9
:1034400053B30B6893430B600A1D13680468A343CE
:10345000136002790A441368046823431360274AFF
:10346000083213680468A3431360131D1C680568C1
:10347000AC431C604479102C05D021440A680068D4
:1034800002430A6030BD1168046821431160196865
:1034900000680143196030BD007908440168914318
:1034A000016030BD0021016001710C224271817107
:1034B0007047124910310A6802430A60704701469A
:1034C0000E4A0020143212680A4200D001207047D0
:1034D0000A49143108607047084A01460020126802
:1034E000064B0A4014331B680B4202D0002A00D05E
:1034F0000120704701491431086070470004014001
:10350000FFFF0F002DE9F04714210320FDF78FFB8B
:1035100001F0F0FAFE4F394601F000FB6FF00B08A6
:10352000414601F078FCFB4D0446B5F90A0001F074
:10353000C9FA214601F0C8FB01F0A4FA80B24FF4A9
:103540007A7674006882B04201D2304602E0A0422E
:1035500000D92046688214210120FDF768FB01F0A4
:10356000C9FAB946394601F0D9FA414601F053FC8F
:103570000746B5F90C0001F0A5FA394601F03CF90F
:1035800001F080FA80B2E882B04201D2304602E017
:10359000A04200D92046E88214210020FDF747FB15
:1035A00001F0A8FA494601F0B9FA414601F033FCAE
:1035B0000746B5F90E0001F085FA394601F01CF90D
:1035C00001F060FA80B2A882B04201D2304602E037
:1035D000A04200D92046A88214210220FDF727FB33
:1035E00001F088FA494601F099FA414601F013FCCE
:1035F0000746B5F9100001F065FA394601F0FCF80C
:1036000001F040FA80B22883B04201D2304602E095
:10361000A04200D920462883BDE8F08770B5BD4C94
:1036200000252E46607A5A2879D14FF4FA606081DD
:103630004010A081E08120823046A5712CE000BFBF
:10364000FFF760FF608AE18A284460F30F0501EB11
:10365000154060F31F45A08A218B304460F30F06AC
:1036600001EB164060F31F466420FCF75DFEE07935
:10367000401C40B2E071072801D10220E071C0B2C5
:10368000401EC0B20021FCF76BFEE0790121FCF77F
:1036900067FEA079401CA07194F90810C0B288425E
:1036A000CEDBA9B2C0B2B1FBF0F16289511A01F2CE
:1036B000DC516181290CB1FBF0F1A289511A01F2B0
:1036C000DC51A181B1B2B1FBF0F1E289511A01F2F2
:1036D000DC51E181310CB1FBF0F0218A081A00F2D3
:1036E000DC502082FFF70EFF638A40F2DE518B42EE
:1036F00012D20A1F204693420ED9C38A8B420BD2A4
:10370000934209D9838A8B4206D2934204D9038B10
:103710008B4201D2934203D85A20607204E015E034
:10372000A5216172FEF733FB00210220FCF718FE91
:1037300000210320FCF714FE00210420FCF710FEFA
:10374000BDE8704000210520FCF70ABE70BD70B5D1
:10375000704C40F21A432146628A0420098B0025EE
:103760009A4224D240F24C46B14220D2E5702179EF
:10377000491CC9B22171042945D3207166A000F00B
:10378000FDF90026062000F01DF918B1761CF6B2EE
:10379000052EF7D3052E01D065A025E0B620A07038
:1037A00000210520FCF7DCFD257069A01CE09A4291
:1037B00027D240F26C72914223D9E178491CC9B2F8
:1037C000E170257104291ED3E07067A000F0D6F9DE
:1037D0000026052000F0F6F818B1761CF6B2052E8A
:1037E000F7D3052E04D065A0BDE8704000F0C6B93F
:1037F0006B20A07001210520FCF7B2FD257066A0AA
:10380000F2E7E570257170BD10B5424C0420617877
:10381000FCF7A6FD6078002804D0CD2000F0D2F897
:103820000020607010BD70B53A4800258178B62937
:103830006CD1418A40F21A42914267D2028B40F227
:103840004C418A4262D2C28A8A425FD2818A40F265
:103850006C74A1425AD94179491CC9B241710429F9
:1038600055D15A21417240F6980608E029460520B4
:10387000FCF776FDEDB30025C820FCF755FD0F21C0
:103880000320FDF7D4F9A042F0D30F210320FDF768
:10389000CEF9B042EAD80F210020FDF7C8F9A042C6
:1038A000E4D30F210020FDF7C2F9B042DED80F218A
:1038B0000120FDF7BCF9A042D8D30F210120FDF76C
:1038C000B6F9B042D2D80F210220FDF7B0F9A042DC
:1038D000CCD30F210220FDF7AAF9B042C6D8C820E8
:1038E000FCF722FDFFF79AFE304800F0C9F8304897
:1038F00000E009E000F0C4F82E4800F0C1F8BDE88F
:1039000070402D4800F0BCB80125B5E756E057E0FF
:1039100000007A446200002044697361726D696E30
:1039200067204D6F746F72732E2E2E0D0A000000EB
:103930004D6F746F72732063616E6E6F7420626579
:103940002064697361726D65642121210D0A000094
:103950004D6F746F72732064697361726D65642159
:1039600021210D0A0000000041726D696E67204D33
:103970006F746F72732E2E2E0D0A00004D6F746FD0
:1039800072732063616E6E6F742062652061726D68
:1039900065642121210D0A004D6F746F72732061DF
:1039A000726D65642121210D0A000000DC050020F4
:1039B000E8050020F40500200006002000214171E8
:1039C00070BD0000F8B5284C06460025257024205F
:1039D00000F036F84D2000F033F83C2000F030F8CD
:1039E0006570072E11D0002000F02AF8304600F054
:1039F00027F8607800F024F80820012300901A4688
:103A000020211A48FDF7ECFEF8BD082000F018F858
:103A1000304600F015F81648008800B200F01AF899
:103A20001448008800B200F015F81348008800B26E
:103A300000F010F81148008800B200F00BF8D8E749
:103A400009490A4B0A789854521C0A704A78424035
:103A50004A70704710B50446C0B2FFF7F1FFC4F3D7
:103A60000720BDE81040EBE77C000020BA050020ED
:103A7000740000207A0000207800002076000020EA
:103A800040F2DC51018041802B49416081607047E8
:103A90002DE9F84F294D0E4604468168286901F04A
:103AA0003DF80090D4F804A0E868514601F036F8DB
:103AB0008346608801F01EF8A96801F02FF8B4F879
:103AC00000808146404601F015F8696801F026F84B
:103AD0000746308801F00EF8296801F01FF83946D2
:103AE00000F08AFE494600F087FE594601F0ECF8E6
:103AF000009901F0E9F8A4F8028031882180C4E936
:103B0000010A00F0BFFF3080BDE8F88F10B50C4906
:103B10000C48FFF7BDFF0B480B490C30FFF7B8FF0F
:103B200008480A491830FFF7B3FF0648BDE81040BF
:103B300007492430ACE700000080BB44800000202F
:103B400074000020DC0500207A00002078000020AE
:103B5000760000207047B2F120030AD5C2F120039D
:103B600001FA02F120FA03F300FA02F041EA03013C
:103B7000704700FA03F14FF0000070470FB404499A
:103B800010B503AA029800F073F910BC5DF814FB9D
:103B9000280000202DE9F0410E4604460020206256
:103BA0002046E168884730B3252805D0D4E90121B3
:103BB0009047206A401CF2E7E168204600278847CA
:103BC000050018D0A5F14100192802D820354FF47E
:103BD00000673246294620462760FCF7C1FA40B10B
:103BE000012804D0F61D26F007060836D8E7361D52
:103BF000D6E72846DAE7206ABDE8F0812DE9F041F2
:103C00000646002410687529314615A510D0AFF37B
:103C10000080002802DA404212A507E031688A07D6
:103C200001D511A502E0490704D510A5012401E042
:103C3000AFF3008000210A2306F1240707E0B0FB60
:103C4000F3F203FB1200303078541046491C002870
:103C5000F5D123462A463046BDE8F04100F0AFB822
:103C6000000000002D0000002B00000020000000DC
:103C700070B504460D4621461068AFF300802188D8
:103C8000090502D50F4A7A4402E00E4A7A440E3200
:103C9000002104F1240305E000F00F060009965D01
:103CA0005E54491C0028F7D120780023000704D572
:103CB000702D02D009B1022311322046BDE87040B8
:103CC00000F07DB808120000032A40F2308010F0A6
:103CD000030C00F0158011F8013BBCF1020F6244A7
:103CE00098BF11F801CB00F8013B38BF11F8013B38
:103CF000A2F1040298BF00F801CB38BF00F8013BE5
:103D000011F0030300F02580083AC0F0088051F854
:103D1000043B083A51F804CBA0E80810F5E7121D5F
:103D20005CBF51F8043B40F8043BAFF30080D2077E
:103D300024BF11F8013B11F801CB48BF11F8012B4A
:103D400024BF00F8013B00F801CB48BF00F8012B6D
:103D5000704710B5203AC0F00B80B1E81850203AF7
:103D6000A0E81850B1E81850A0E81850BFF4F5AF1B
:103D70005FEA027C24BFB1E81850A0E8185044BFA5
:103D800018C918C0BDE810405FEA827C24BF51F812
:103D9000043B40F8043B08BF7047D20728BF31F806
:103DA000023B48BF11F8012B28BF20F8023B48BF57
:103DB00000F8012B704770477047704770472DE936
:103DC000F0470D4699469246044600F124080168E2
:103DD000880604D5E06921F01001216000E001208F
:103DE000A84201DD471B00E00027A1697A1902EB18
:103DF0000900081AA0612078C00602D42046AFF35B
:103E00000080002608E0D4E901211AF80600904756
:103E1000206A401C761C20624E45F4DB2078C006E8
:103E20000AD52046AFF3008006E0D4E90121302016
:103E30009047206A401C2062381EA7F10107F4DC7D
:103E400007E0D4E9012118F805009047206A401CDA
:103E50002062281EA5F10105F3DC2046AFF30080A7
:103E60002078000602D50220BDE8F0870120FBE79C
:103E7000074B70B50D467B4400F011F80446284608
:103E800000F020F810B14FF0FF3070BD204670BD3B
:103E900049CAFFFF01694A1C02610878704700B5F2
:103EA0008FB0CDE901310021059105497944CDE973
:103EB000031011466846FFF76DFE0FB000BD00000D
:103EC000E5FFFFFF007B00F080007047754600F0C3
:103ED00029F8AE4605006946534620F0070085469E
:103EE00018B020B5FCF70EFABDE820404FF00006F0
:103EF0004FF000074FF000084FF0000B21F00701D2
:103F0000AC46ACE8C009ACE8C009ACE8C009ACE814
:103F1000C0098D4670470446AFF300802046FCF789
:103F200034F90000004870470C06002021F00042E0
:103F3000A2F16052B2F5801F01F0004328BFD2F118
:103F40007F6C0BD95FEA001C43EAC20242EB50705F
:103F500018BF704728BF20F001007047B2F5801FDE
:103F6000BCBF184670474FEA410C1CF5001F02D237
:103F7000084600F09ABE70B500F0C8FA000000894B
:103F8000FFF7F6BF4FF00040A0F58000704700003B
:103F900010B591EA030F48BF83F0004300F11E8380
:103FA000841A71EB030C05D2121943EB0C03001BAE
:103FB00061EB0C01DFF824E14FEA1154A4EB135C30
:103FC0001EEA430F18BF9EEA445F73D023EA0E0334
:103FD000DCF1200E21EA045143F4801332D322FA9B
:103FE0000CFE10EB0E0023FA0CFE41EB0E01CCF19F
:103FF000200E03FA0EFE10EB0E0051F10001B1F598
:10400000801FCCF1200E32D201EB045112FA0EF2D5
:10401000BDE8104058BF7047401C38BF5FEA4202FD
:1040200018BF7047002814BF20F0010041F10001C3
:104030004FEA410313F5001F38BF7047A1F1C0419B
:1040400000F0B2BA012A43EB0302ACF1200CDCF120
:104050001F0E32BF4FF0000E23FA0CF310EB0300DB
:1040600041EB0451B4EB115FD0D0A1EB045101F549
:10407000801149085FEA300001EB04510ED350F182
:10408000000038BF12FA0EFE08D1BDE81040C9E7A3
:10409000401C38BF5FEA4202CAD1C3E7BDE8104006
:1040A0004FEA410313F5001F38BF7047A1F1C0412B
:1040B00000F07ABA9EEA445F08D011EA5E0FBDE8CC
:1040C000104004BF01F0004100207047BDE81040DF
:1040D00070B500F01BFA00BF64FBBE3E0000E0FFBD
:1040E0002DE9C04130B4DFF8A0C23CEA111418BF7A
:1040F0003CEA131400F0EC8081EA03051CEA111479
:1041000044EAD57418BF1CEA131500F0C780A4EB6D
:1041100005044FF0004545EAC12145EAC32341EAC1
:10412000505143EA525304F17F74994204F500342C
:104130004FEAC0204FEAC22208BF904200F09C80A4
:104140004FEA13650FF24016765D4FEA134506FB02
:1041500005F7C7F1807706FB07F74FEAD737A7FBCC
:1041600003687642C8F58038A7FB06CE38BFA8F1B1
:10417000010807FB08E64FF0000EA6FB028CE6FBE9
:1041800003CEDCF1000CCEF1004E38BFAEF1010ED3
:10419000A6FB0C584FF000074FF00005E6FB0E871A
:1041A000A1FB08C6A0FB07CE16EB0E0645F10005E5
:1041B000E1FB076515F1E04E7EBFA4F580345FEAB0
:1041C00046066D4116F1800745F100054FEA1727B5
:1041D0004FEA066647EA0567A6F1DE46B6F1805F5C
:1041E0004FEA15251FD9384624F0010C05EBC471A0
:1041F000BCF1FE6F01EB0C1102D8F0BCBDE80081F0
:1042000024425CBF01F5801E9EEAC47F02D4F0BC4C
:10421000BDE80081244238D4F0BCA1F1C041BDE822
:10422000004100F0C1B94FEAD22242EA43524FEABC
:10423000D323A7FB02864FEAD02040EA415007FB78
:1042400003661EEA0E0F4FEAD12105FB026658BF36
:10425000A6EB0056B6EB00564FEA520E4EEAC37E6E
:1042600018EB0E0E56EB530EBDD518EB02085E414F
:104270007F1C55F10005B6E74FF480154FF000079D
:104280004FF000064FF00008ADE7F0BC4FF0000023
:1042900001F1C04101F00041BDE8008111EA0C1FAD
:1042A0000CEA131500D00CE013EA0C1F00F0258077
:1042B0004FF00000F0BC81EA030101F00041BDE8CD
:1042C0000081F0BC81EA0301BDE8004100F06CB957
:1042D000F0BCBDE8004170B500F018F9097EFC3E65
:1042E00000F007B881EA03014FF0000001F000413F
:1042F000704781EA030100F057B9F0BC4FF00000AD
:104300002249BDE800417047FFFDFBF9F7F5F4F2E3
:10431000F0EEEDEBE9E8E6E4E3E1E0DEDDDBDAD860
:10432000D7D5D4D3D1D0CFCDCCCBCAC8C7C6C5C4BE
:10433000C2C1C0BFBEBDBCBBBAB9B8B7B6B5B4B3D5
:10434000B2B1B0AFAEADACABAAA9A8A8A7A6A5A4C0
:10435000A3A3A2A1A09F9F9E9D9C9C9B9A99999884
:104360009797969595949393929191908F8F8E8E27
:104370008D8C8C8B8B8A89898888878786858584B4
:1043800084838382828181800000FF070000F87FA0
:10439000B0FA80F310FA03F10AD0C3F11D0303F55C
:1043A00080634FEA41504FEA035202EBD12170473C
:1043B0004FF0000070470000DFF848C170B51CEAFC
:1043C000111E1EBF1CEA13159EEA0C0F95EA0C0F76
:1043D00000F06F8081EA030423EA4C134EEAD47E96
:1043E00021EA4C1141F4801143F48013AE44A1FB47
:1043F000024CA0FB0365AEF17F7E361955EB0C0530
:10440000A1FB034C4CF10003A0FB021C16EB0C06B5
:10441000654153F10003094218BF46F0010613F449
:10442000007F0BD14FEA03314FEA0530340341EAF4
:10443000155140EA16506FF003020AE04FEAC3211B
:104440004FEAC520F40241EA555140EA56506FF058
:10445000020202EB2E4201EB025585EACE710AD030
:104460005FEA440C18BF24F0004450F1000041F111
:10447000000120EAD47040F2FE7C624500D270BD9B
:10448000A84214BF4FF080444FF04044002E08BFB4
:104490000024BEF1806FA8BFA1F1C041BDE870400B
:1044A00080F282804FF0000001F1C04101F0004134
:1044B00070479EEA0C0F0CEA131518BF95EA0C0F13
:1044C00006D04FF0000081EA030E0EF0004170BDEF
:1044D00000F01CF88900013E00F007B800F009B8B0
:1044E0004FEA430C5FEA5C5C08D081EA030100F00C
:1044F0005BB84FEA410C5FEA5C5CF6D14FF000001C
:10450000014970470000FF070000F87F0EF1020E1E
:104510002EF0030E5EF8046B364205D4012A43EBFD
:10452000030515F5001F12D8012841EB010C1CF5FD
:10453000001F0CD80ED14FEAD17C15F5001F0CEBF3
:104540004C0C0CF1020C08BF4CEBD37C04E04FF098
:10455000080C01E04FEAD37C0CEB4C0526FA05F67B
:1045600006F00706B6F1040C06D20EEB860CBDE889
:1045700070404CF0010C6047DFE80CF0090B0202C0
:104580004FF000414FF00000A1F5002170BD194629
:104590001046012851EB010418BFD4F5001484BF64
:1045A000002001F0004170BD0808A0F500114FEA9D
:1045B0003101704791EA030F10B581F000413FF5DA
:1045C000EFAC83F0004300F009B8000010B591EAA9
:1045D000030F48BF83F000433FF5E2AC841A71EB50
:1045E000030C07D212198CF0004C43EB0C03001B98
:1045F00061EB0C01DFF8A4E14FEA1154A4EB135C6A
:104600001EEA430F18BF9EEA445F00F0B08023EA21
:104610006E03524221EA0451C3EB6E0338BF5B1EA6
:10462000DCF1200E25D322FA0CFE10EB0E0043FA2B
:104630000CFE41EB0E01CCF1200E03FA0EFE10EB46
:104640000E0051F10001CCF1200E29D412FA0EF225
:1046500001EB0451BDE8104058BF7047401C1CBF1F
:10466000B2F1004F704700280CBF491C20F0010038
:10467000704712EB020E43EB030218BF4FF0010E1E
:104680004EEA4202ACF1200CDCF11E0E54D943FA82
:104690000CFE10EB0E0051F1FF31CCF11E0ED5D502
:1046A0000EF1010E12FA0EFE404141EB010101EB49
:1046B000445C5FEA5C5C10D910EBDE7001EB0451E6
:1046C00038BFBEF1004FBDE8104018BF704700284A
:1046D0000CBF491C20F00100704730D24FEAD42CA7
:1046E00011F5001124F400641BD0B1FA81F20B3AE9
:1046F000A41AA41ED2F12003914030FA03F3194307
:10470000904001EBCC71002C01EB0451BDE810404E
:10471000A8BF704701F1C0414FF0000001F0004117
:104720007047B0FA80F310FA03F100D110BDE41A1B
:10473000173C4805C90AE4E701EB045110BD4910D4
:1047400001EB0451BDE810404FEA300002E04FF0A9
:10475000000170474A0008BF0042F8D0B2F5001FC0
:1047600028BF704701F000414FF0000070479EEAFB
:10477000445F07D011EA5E0FBDE8104004BF00217E
:1047800000207047BDE8104070B5FFF7BFFE00BFC6
:1047900040DFF63E83F00041104670470000E0FF26
:1047A00043004FEAD30C4FEA3C0C43401FBF400785
:1047B0000CF1605113F0FE4F70471CF0006F03D1F5
:1047C00000200CF0004170470CF0004343EA5070A9
:1047D00010B540EACC0000F022FA00BF00000092C1
:1047E0004FEA0001FFF7E0BE4FF000414FF000003C
:1047F000A1F500217047000090EA010F48BF81F049
:10480000004100F16882421A3CBF801A89184FEAC1
:10481000D0524FF07F4C1CEA410FA2EBD15318BF8E
:104820009CEA026F00F03B804FF0004C4CEA002005
:104830004CEA012121FA03FC10EB0C0C1ED202F110
:10484000FF325FEA1C2040EBC25038BF70471CF0BB
:104850007F0F4FEA400C18BFBCF17F4F38BF704745
:10486000C3F12003994008BF20F00100BCF17F4F45
:1048700038BF7047A0F1C04000F017BA4FEA3C00C3
:10488000000A40EBC25028BF1CF0FF0F4FEA400C5B
:10489000E6D018BFBCF17F4F38BF7047EAE79CEA0B
:1048A000026F05D010EA5C0F08BF00F000407047AF
:1048B00010B500F0B4F900BF64FBBE3E014800F043
:1048C00078BA00BF0000C07F4FF47F0C1CEAD01202
:1048D0001EBF1CEAD11392EA0C0F93EA0C0F00F0F2
:1048E000858090EA010F48BF42F4807240F4000CCA
:1048F00041F400002CF07F4120F07F4000B5814260
:10490000A2EB03020FF2081CACEB504EC0F100000A
:104910009EF800E04FEA4E0E00FB0EFC38BF490047
:104920004FEA2C1C02F5FA020CFB0EF34FEACE1EE6
:104930004FEA112C4FEAC1210EEB635E42EB22429B
:104940000EFB0CFC4FEA1C5300FB03114FEA112C29
:104950004FEA01310EFB0CFC4FEADC4C00FB0C1162
:10496000C14228BF09184CEB03335DF804EB10EB90
:10497000410143EBC250B2F57C0F38BF704729D5D7
:1049800012F0F00F1CBF00F1C04000F00040704773
:10499000008182838485868788898B8C8D8E8F9118
:1049A0009293959697999A9C9D9FA0A2A3A5A7A83C
:1049B000AAACAEB0B2B3B5B7B9BCBEC0C2C5C7C968
:1049C000CCCED1D4D7D9DCDFE2E6E9ECF0F3F7FACC
:1049D000FE0000004FEA400C0CF1807CBCF17E4FE1
:1049E00028BF7047B0F1C04000F05FB990EA010FF6
:1049F0000CEAD11348BF42F48072624538BF634568
:104A000007D213F47F0F16D080EA010000F00040B7
:104A1000704710B500F003F9097EFC3E00F005B8C0
:104A200080EA010000F00040704780EA010000F0D9
:104A3000004000F03AB912F47F0F04BF02487047FB
:104A400080EA010000F031B90000C07F41000B0E88
:104A5000D3F19E0208D950F400034FEA032323FA4E
:104A600002F048BF4042704710B500F0D8F800BFD0
:104A700049922480002070476FF0004282EA2000B3
:104A800070470000C10DD1F19E0206DB4FEA002302
:104A900043F0004323FA02F07047004207D54FEA83
:104AA0004001B1F1FE4F02D24FF00000704710B547
:104AB00000F0B5F849922480002070476FEA20008A
:104AC0007047000010F0004148BF4042B0FA80F348
:104AD00010FA03F2C3F19D030BD051EAC35101EB6D
:104AE0001220530638BF704700F1010008BF20F0C4
:104AF00001007047B0FA80F310FA03F2C3F19D038E
:104B00000AD0D90501EB1220530638BF704700F1D7
:104B1000010008BF20F00100704700004FF47F0C37
:104B20001CEAD0121EBF1CEAD11392EA0C0F93EAC2
:104B30000C0F00F0478090EA010F48BF42F48072EA
:104B40004FF0004C4CEA00204CEA012102EB03023A
:104B5000A0FB0113A2F50002002918BF43F00103D6
:104B60005B0028BF4FEA330342EB22425FEA132C7B
:104B70004CEBC2502EBFBCEB436FB2F57C0F7047BD
:104B80004FEA036CBCF1004F08BF20F00100B2F502
:104B90007C0F38BF70470BD582F0FF0212F5803FC3
:104BA000C8BF704700F1C040D8BF00F00040704758
:104BB00000F5000C5FEA4C0C48BF7047B0F1C040F4
:104BC00000F073B890EA010F0CEAD11348BF42F429
:104BD0008072624538BF634504D280EA010000F06C
:104BE0000040704710B500F01AF800BF8900013E80
:104BF00000F007B800F009B85FEA410C5FEA1C6CEE
:104C000008D080EA010000F050B85FEA400C5FEA8B
:104C10001C6CF6D14FF00040A0F5800070470EF1FB
:104C2000020E2EF0030E5EF8044B244204D44FEA29
:104C30004102B2F17F4F11D84FEA4003B3F17F4FE9
:104C40000CD80ED14FEAD07CB2F17F4F0CEB4C0C5C
:104C50000CF1020C08BF4CEBD17C04E04FF0080CC7
:104C600001E04FEAD17C0CEB4C0324FA03F404F08E
:104C70000704B4F1040C06D20EEB840CBDE810401E
:104C80004CF0010C6047DFE80CF0070802024FF01F
:104C90000040A0F5800010BD0846420018BFD2F1C8
:104CA000807288BF00F0004010BDFF2141EAD05063
:104CB000C005704780F0004090EA010F7FF5A3AD7A
:104CC00081F0004100F007B890EA010F48BF81F081
:104CD00000413FF598AD421A04D882F00042A0EBA3
:104CE000020011444FEAD0524FF07F4C1CEA410FB2
:104CF000A2EBD15318BF9CEA026F4AD04FF0004C90
:104D00004CEA00204CEA012121FA03FCB0EB0C0C28
:104D10000FD412F0FE0F36D05FEA4C001DD5001202
:104D200040EBC25038BF70471CF03F0F18BF7047B0
:104D30000BE0A2F101025FEA1C2040EBC25038BF39
:104D400070471CF07F0F18BF7047C3F120039940D4
:104D500014BF401E20F00100704780084FEA122364
:104D600008BF7047B0FA80FCA2EB0C02CCF1280C13
:104D700060FA0CF093EA122F04BF00EBC2507047A8
:104D80004FEAC3707047130A5FEADC1008BF704730
:104D9000F6E79CEA026F04D010EA5C0F08BF00201F
:104DA000704710B5FFF73BFF40DFF63E81F0004053
:104DB00070470CF00F03092B08BF082000F051804A
:104DC0000A2B0BD0082B18BF704708BF1CF0400FF0
:104DD0000AD04FF000004FF0000170471CF0400F68
:104DE00018BF4FF0004070471CF0100F08D020F0A3
:104DF000704300F07F4242EAD3014FEA43707047AC
:104E000000F0604021F07F4242EA000201F07F4062
:104E100040EA727070474FF0FF0212EAD0521CBF96
:104E200092F0FF038B42C2BFD14200EBC1507047EA
:104E3000002A0AD0002B0BD0002900F00040A4BFAC
:104E400040F0FE4040F40000704700F00040704722
:104E500043024FF00B0C18BF4CF0806C7FF42EAD6A
:104E600070471CF4801F11D01CF4E02F03D06FEAB0
:104E7000CC31490070474FF04050EFF3008222F0F0
:104E8000704242EA000282F3008870474FF000004F
:104E90007047303132333435363738394142434444
:104EA00045464030580030313233343536373839A2
:104EB000616263646566403078000000DC4E000883
:104EC000000000209400000028010008704F000836
:104ED00094000020DC0B0000440100080051250272
:104EE000000000000000000001020304060708099A
:104EF00000000000000000000000000000000000B2
:104F000000000000000000000000000000000000A1
:104F10000000000034C3101000000000000000007A
:104F2000000000000000000000020406080000006D
:104F3000000102030401020304060708090000003F
:104F4000B600000000011400000000000000000096
:104F500000000000000000000000000070F9963C16
:104F600070F9163D70F9963C4A7EBABFC1DB073F27
:04000005080002E904
:00000001FF
